:020000040800F2
:1000000060330020CD0100084D0C0008450C0008AD
:10001000490C000819030008EF1200080000000056
:10002000000000000000000000000000550F000864
:100030001D030008000000005D0E000869100008A4
:10004000E7010008E7010008E7010008E7010008F0
:10005000E7010008E7010008E7010008E7010008E0
:10006000E7010008E7010008E7010008E7010008D0
:10007000E7010008E7010008E7010008E7010008C0
:10008000E7010008E7010008E7010008E7010008B0
:10009000E7010008E7010008E7010008E7010008A0
:1000A000E7010008E7010008E7010008E701000890
:1000B000E7010008E7010008E7010008E701000880
:1000C000E7010008E7010008E7010008E701000870
:1000D000E7010008CD100008E7010008E70100086B
:1000E000E7010008E7010008E7010008E701000850
:1000F000E7010008E7010008E7010008E701000840
:10010000E7010008E7010008E7010008E70100082F
:10011000E7010008E7010008E7010008E70100081F
:10012000E7010008E7010008E7010008E70100080F
:1001300000F002F800F03AF80AA090E8000C8244BF
:100140008344AAF10107DA4501D100F02FF8AFF29C
:10015000090EBAE80F0013F0010F18BFFB1A43F0A5
:10016000010318478CF70000ACF70000103A24BFD9
:1001700078C878C1FAD8520724BF30C830C144BF0C
:1001800004680C607047000000230024002500264E
:10019000103A28BF78C1FBD8520728BF30C148BFEA
:1001A0000B6070471FB51FBD10B510BD00F06EF895
:1001B0001146FFF7F7FF01F0F5F800F0A0F803B4DF
:1001C000FFF7F2FF03BC01F094F8000009488047F4
:1001D00009480047FEE7FEE7FEE7FEE7FEE7FEE729
:1001E000FEE7FEE7FEE7FEE704480549054A064B41
:1001F000704700006D10000831010008602D0020DC
:1002000060330020602F0020602F00207047000026
:100210000FB4044910B503AA029800F009F810BC05
:100220005DF814FB18000020704770477047704756
:10023000074B70B50D467B4400F011F80446284684
:1002400000F020F810B14FF0FF3070BD204670BDB7
:100250004F11000001694A1C02610878704700B51F
:100260008FB0CDE901310021059105497944CDE9EF
:1002700003101146684600F02EF80FB000BD0000D4
:10028000E5FFFFFF007B00F080007047754600F03F
:100290003FF8AE4605006946534620F00700854604
:1002A00018B020B5FFF7A0FFBDE820404FF00006D2
:1002B0004FF000074FF000084FF0000B21F007014E
:1002C000AC46ACE8C009ACE8C009ACE8C009ACE891
:1002D000C0098D4670472DE9F04106460024D6E955
:1002E0000170F5688046304603E04146B847641C1B
:1002F0003046A8470028F8D12046BDE8F08110B567
:100300000446AFF300802046BDE81040FFF757BF1A
:1003100000487047002D002000BFFEE7704710B571
:10032000022000F0E5FB00F02BFA072000F0E0FBD4
:10033000A52000F0CBFB10BD2DE9F047074688460D
:100340001E264FF4D079102000F0D2FB00250CE0DF
:10035000002406E005FB0641785C00F0B7FB601C5A
:1003600084B2B442F6DB681C85B24D45F0DB132045
:1003700000F0BEFB00250FE0002409E005FB06416C
:1003800018F80110C943C8B200F0A0FB601C84B289
:10039000B442F3DB681C85B24D45EDDBBDE8F08768
:1003A0002DE9F0411E264FF4D077102000F0A0FB7D
:1003B00000250AE0002404E0FF2000F087FB601C19
:1003C00084B2B442F8DB681C85B2BD42F2DB132074
:1003D00000F08EFB00250AE0002404E0002000F07D
:1003E00075FB601C84B2B442F8DB681C85B2BD4268
:1003F000F2DBBDE8F0812DE9F04F05460E4692464E
:100400009B46002457460320A0EB4A090998002880
:1004100058D054E0A04641E006EB080291B22A19F8
:1004200090B25A4600F0ACFC06EB080291B22A1BCF
:1004300090B25A4600F0A4FC321991B2A5EB080222
:1004400090B25A4600F09CFC321B91B2A5EB080218
:1004500090B25A4600F094FCA6EB080291B22A1B17
:1004600090B25A4600F08CFCA6EB080291B22A1911
:1004700090B25A4600F084FC321B91B205EB0802A0
:1004800090B25A4600F07CFC321991B205EB08029A
:1004900090B25A4600F074FC08F10108B845BBDD83
:1004A000B9F1000F03DAA000801D814405E0E01BD4
:1004B00080000A308144781E87B2601C84B2BC423E
:1004C000A8DD49E046E0F21991B22A1990B25A46E5
:1004D00000F056FCF21991B22A1B90B25A4600F075
:1004E0004FFC321991B2EA1B90B25A4600F048FC18
:1004F000321B91B2EA1B90B25A4600F041FCF21B4B
:1005000091B22A1B90B25A4600F03AFCF21B91B20B
:100510002A1990B25A4600F033FC321B91B2EA1904
:1005200090B25A4600F02CFC321991B2EA1990B2FE
:100530005A4600F025FCB9F1000F03DAA000801D37
:10054000814405E0E01B80000A308144781E87B2B8
:10055000601C84B2BC42B6DDBDE8F08F2DE9FF4FD0
:1005600004460D4616461F46A146AA46301B01D436
:10057000301B00E0A01B8346781B002801DC781BA1
:1005800000E0E81B0390B44201DA012001E04FF0E3
:10059000FF300290BD4201DA012001E04FF0FF3050
:1005A000019003980BEB00080020009000BF00981A
:1005B000401CC0B20090514648460D9A00F0E0FB46
:1005C0004FEA48010398814208DBB14500D112E0AF
:1005D00003988044029848441FFA80F94FEA480083
:1005E0005845E4DCBA4500D105E0D84401985044B0
:1005F0001FFA80FADBE700BFBDE8FF8F2DE9F8475F
:1006000080460E4691461F46DDE9094ABAF1000FC1
:100610000DD0354608E02B464A4629464046009410
:10062000FFF79CFF681C85B2BD42F4DB1BE033463C
:100630004A46314640460094FFF790FF3B4642460B
:10064000314640460094FFF789FF33464A46394613
:1006500048460094FFF782FF3B46424639464846EB
:100660000094FFF77BFFBDE8F887000008B5012183
:100670004FF4B07000F0F4FB4FF48050ADF8000080
:1006800010208DF8030003208DF8020069462148F0
:1006900000F040FA2020ADF8000010208DF8030093
:1006A00003208DF8020069461B4800F033FA102041
:1006B000ADF800008DF8030003208DF802006946B4
:1006C000154800F027FA4FF40040ADF80000102064
:1006D0008DF8030003208DF8020069460E4800F0F3
:1006E00019FA0220ADF8000010208DF80300032055
:1006F0008DF802006946084800F00CFA4FF480704B
:10070000ADF8000048208DF803006946034800F06A
:1007100001FA08BD0020014000140140001801400A
:1007200010B5642000F00AFE1021084800F086FA97
:10073000142000F003FE1021044800F081FA142078
:1007400000F0FCFD00F01CF810BD0000001401409A
:1007500010B5FFF7E5FF00F013F8002000F0C8F92E
:100760000B2000F0B3F910BD10B50246012000E0E7
:1007700050430B1EA1F10104A1B2F9D110BD00003C
:1007800010B500BF4FF48071024800F04EFA002807
:10079000F8D010BD001801402DE9FE4F07468846ED
:1007A00092461C460197CDF80080082C02D14FF0EC
:1007B00006091FE02046E31704EB5373DB102146C4
:1007C0004FEAE47C04EB5C7C4FEAEC0CA4EBCC0C31
:1007D000BCF1000F02D04FF0010C01E04FF0000C13
:1007E0006344224604EBD27C4FEA6C0C03FB0CF30F
:1007F0001FFA83F9AAF1200086B2002568E0082CD0
:1008000007D106EB4600344901EB400010F805B073
:1008100027E00C2C07D106EB4600304901EB8000A5
:1008200010F805B01DE0102C05D12D4800EB061086
:1008300010F805B015E0182C07D106EBC6002949C1
:1008400001EB800010F805B00BE0302C07D106EB6F
:10085000C600254901EB001010F805B001E0BDE825
:10086000FE8F002002901CE00BF0010028B14146F1
:1008700038460C9A00F084FA09E00C9808B9012077
:1008800000E0002002464146384600F079FA4FEA7F
:100890006B0B08F101001FFA80F80298401C80B22F
:1008A000029002980828DFDB781C87B2082C0BD056
:1008B00004EBD4714A100199791A8A4204D1019F3C
:1008C0000098083080B20090DDF80080681C85B286
:1008D0004D4594DB00BFC2E770A2000898A4000851
:1008E0000CA90008FCAE000858BC00082DE9FF4F19
:1008F00081B080460D461C46002000902046E2173D
:1009000004EB5272D2102146E31704EB5373DB1051
:10091000A4EBC3030BB1012300E000231A44039BA3
:100920005A431FFA82FB2F46002634E000990E98A6
:1009300010F801A04FF000091CE00AF0800050B14F
:100940000F9808B9012000E00020024629464046E1
:1009500000F016FA04E0294640460F9A00F010FA1B
:10096000681C85B24FF6FF7000EA4A0A09F10100DF
:100970001FFA80F9B9F1080FDFDBE81BA04204D1B0
:100980003D4608F101001FFA80F80098401C80B233
:100990000090701C86B25E45C8DB05B0BDE8F08FE4
:1009A0002DE9FF4F85B007468A461C46DDE91289CE
:1009B000484609EBD071C1F3470641460A20FFF7CC
:1009C000D3FE019001F0BCF88346079901F0CCF802
:1009D000029001F095F880B20390002537E0601B8B
:1009E000401E81B20A20FFF7BFFE0399B1FBF0F071
:1009F0000A21B0FBF1F201FB12000490A4EB080005
:100A0000A84217D11498B34606EBDB725210921E1F
:100A1000A4EB080303FB06731A44009090B2AAF1FA
:100A2000060291B24B463A22FFF7B6FE681CC5B2E9
:100A3000601CC4B2149805FB0671009088B24B4646
:100A4000049A30325146FFF7A7FE681CC5B2A54292
:100A5000C5DB09B0BDE8F08F10B5042000F048F800
:100A6000FFF78EFE122000F043F8FFF789FE10BD5D
:100A700070B504460221134800F0E0F8002519E0A3
:100A80004FF48051104800F0D9F804F0800020B1F4
:100A900020210C4800F0D4F803E02021094800F0A0
:100AA000CDF84FF48051084800F0CAF86006040EF3
:100AB000681CC5B2082DE3DB0221024800F0C0F833
:100AC00070BD0000001401400020014010B5044634
:100AD0004FF40041054800F0B3F82046FFF7C8FF87
:100AE0004FF40041014800F0ABF810BD0014014084
:100AF00010B504464FF40041054800F09FF8204629
:100B0000FFF7B6FF4FF40041014800F099F810BD1F
:100B1000001401402DE9F041024600250026002086
:100B200000230024002791F803C00CF00F0591F872
:100B300003C00CF0100CBCF1000F03D091F802C000
:100B40004CEA050591F800C0BCF1000F31D01468E3
:100B500000202BE04FF0010C0CFA00F3B1F800C0BC
:100B60000CEA03069E4220D183004FF00F0C0CFAD2
:100B700003F7BC4305FA03FC4CEA040491F803C0F4
:100B8000BCF1280F06D14FF0010C0CFA00FCC2F8A2
:100B900014C00AE091F803C0BCF1480F05D14FF032
:100BA000010C0CFA00FCC2F810C0401C0828D1D37C
:100BB0001460B1F800C0BCF1FF0F34DD54680020B0
:100BC0002EE000F1080C4FF0010808FA0CF3B1F820
:100BD00000C00CEA03069E4221D183004FF00F0CA7
:100BE0000CFA03F7BC4305FA03FC4CEA040491F841
:100BF00003C0BCF1280F05D100F1080C08FA0CF86D
:100C0000C2F8148091F803C0BCF1480F07D100F17D
:100C1000080C4FF0010808FA0CF8C2F81080401CCC
:100C20000828CED35460BDE8F081024600209368C6
:100C30000B400BB1012000E000207047416170477C
:100C40000161704700BFFEE700BFFEE7704700008C
:100C500070B5002100230F22C47804B3154C24681A
:100C600004F4E064C4F5E064210AC1F10403CA405D
:100C7000447804FA03F184781440214309010E4CAE
:100C80000678A155047804F01F050124AC400578CE
:100C90006D11AD0005F1E025C5F8004109E00478CB
:100CA00004F01F050124AC40044D0678761145F888
:100CB000264070BD0CED00E000E400E080E100E0C3
:100CC00010B50246002110E0002008E0094C248AFB
:100CD00001FB0403074C2468E254441CA0B2054CF9
:100CE000248A8442F2DC4C1CA1B2024C648A8C42FD
:100CF000EADC10BD242C00202DE9F0410646069FB9
:100D000000201B4C206020460660878101814281C3
:100D10000C464FEAE17C01EB5C7C4FEAEC0CA1EB6A
:100D2000CC0CBCF1000F07D10D464FEAE57C05EB7A
:100D30005C7C4FEAEC0C08E008464FEAE17C01EBF2
:100D40005C7C4FEAEC0C0CF1010CDFF82480A8F875
:100D500010C040464282C3810BB1B42B03D104487A
:100D60008280C18002E002488180C280BDE8F081BB
:100D7000242C00200149086070470000242C00202A
:100D80002DE9F04103461746334EF6893EB15A2EFF
:100D900008D0B42E0DD0B6F5877F1CD114E00846DC
:100DA0001A461AE018462C4E7689761A761EB2B28A
:100DB00013E0294E3689761A761EB0B2264E768911
:100DC000F61A761EB2B208E0234E3689F61A761E5F
:100DD000B0B20A4601E0BDE8F08100BF06464FEA26
:100DE000E07C00EB5C7C4FEAEC0CDFF86C80B8F840
:100DF000108002FB08C4184E3668355DAFB9064650
:100E00004FEAE07C00EB5C7C4FEAEC0CA0EBCC08FA
:100E10004FF0800C4CFA08FC25EA0C0CDFF8388007
:100E2000D8F8008008F804C014E006464FEAE07CD9
:100E300000EB5C7C4FEAEC0CA0EBCC084FF0800C94
:100E40004CFA08FC4CEA050CDFF80C80D8F800805E
:100E500008F804C000BFBEE7242C00207047000043
:100E600029B1064A92690243044B9A6104E0034A9D
:100E700092698243014B9A61704700000010024062
:100E800030B500210022002400232D4D6D6805F0AF
:100E90000C0121B1042905D0082923D105E0294DF1
:100EA000056022E0274D05601FE0254D6D6805F4C3
:100EB0007012234D6D6805F48034022505EB9242D3
:100EC0001CB9214D554305600BE01D4D6D6805F4BF
:100ED00000351DB11C4D5543056002E0194D5543C9
:100EE000056002E0174D056000BF00BF144D6D683E
:100EF00005F0F0010909154D6B5C0568DD404560A2
:100F00000F4D6D6805F4E061090A104D6B5C456892
:100F1000DD4085600A4D6D6805F46051C90A0B4DCE
:100F20006B5C4568DD40C560054D6D6805F440416A
:100F3000890B074D6B5CC568B5FBF3F5056130BDEA
:100F40000010024000127A0000093D001E0000203F
:100F50002E000020704710B500F002F810BD000010
:100F60000CB50020019000903348006840F48030B8
:100F70003149086000BF3048006800F4003000903C
:100F80000198401C0190009818B90198B0F5A06F25
:100F9000F1D12948006800F4003010B10120009020
:100FA00001E0002000900098012843D12348006808
:100FB00040F01000214908600846006820F0030056
:100FC00008600846006840F0020008601A4840685F
:100FD000194948600846406848600846406840F43F
:100FE000806048600846406820F47C1048600846ED
:100FF000406840F4E81048600846006840F080709F
:10100000086000BF0C48006800F000700028F9D0AC
:101010000948406820F003000749486008464068D6
:1010200040F00200486000BF0348406800F00C0038
:101030000828F9D10CBD0000001002400020024039
:10104000042808D14FF0E021096941F004014FF074
:10105000E022116107E04FF0E021096921F004016D
:101060004FF0E022116170477047000010B513483F
:10107000006840F0010011490860084640681049C6
:1010800008400E494860084600680E4908400B4970
:1010900008600846006820F4802008600846406820
:1010A00020F4FE0048604FF41F008860FFF753FFF4
:1010B0004FF000600449086010BD000000100240BD
:1010C0000000FFF8FFFFF6FE08ED00E010B540F26B
:1010D00025511D4800F04AF810B31B4800F002F9F2
:1010E000C4B21A48008800F40040C8B91748008804
:1010F00000F4804060B10A2C03D00020134908801E
:1011000020E01248008840F400401049088019E0AF
:101110000D2C06D10D48008840F480400B49088012
:1011200010E00A480088C0F30D0009490C54074834
:101130000088401C0549088008460088C72801DD52
:101140000020088010BD0000003801401C00002075
:10115000382C002021B1828942F40052828104E0BF
:1011600082894DF6FF731A408281704770B502463E
:10117000002400230025002040F66A16B14200D169
:1011800000BFC1F3421501F01F03012606FA03F365
:10119000012D02D19689334006E0022D02D1168A34
:1011A000334001E0968A33400C12012606FA04F41B
:1011B0001688344013B10CB1012000E0002070BD4E
:1011C000F0B50346002400260025002040F66A17EB
:1011D000B94200D100BF1846C1F3421401F01F0606
:1011E000012707FA06F5012C01D10C3004E0022C8E
:1011F00001D1103000E014301AB107682F430760A6
:1012000002E00768AF430760F0BD00002DE9F0473A
:1012100086B005460E460024A24600BFA146002720
:10122000B08900B100BF2F462C8A4CF6FF700440F5
:10123000F08804432C82AC894EF6F3100440B08849
:1012400031890843718908430443AC81AC8A4FF665
:10125000FF400440B0890443AC8201A8FFF710FEB0
:101260001F48874202D1DDF810A001E0DDF80CA094
:10127000A88900F4004040B10AEBCA0000EB0A1054
:1012800031684900B0FBF1F807E00AEBCA0000EB57
:101290000A1031688900B0FBF1F86420B8FBF0F067
:1012A00004012009642101FB1089A88900F4004091
:1012B00040B1322000EBC900B0FBF1F000F00700B4
:1012C000044308E0322000EB09106421B0FBF1F088
:1012D00000F00F0004432C8106B0BDE8F087000049
:1012E0000038014001468888C0F30800704700BFFD
:1012F000FEE7014600BF704710B56FF00400FFF72E
:101300009FFE0A4800680A49B0FBF1F009490870DD
:101310000846007800EB4001C1EBC0104FF6FF71AA
:1013200001EAC0000449088010BD00000000002050
:1013300000127A0014000020160000200146114A15
:1013400012884A434FF0E0235A6100229A611A46FC
:10135000126942F001021A6100BF4FF0E0221069E9
:1013600000F001021AB100F48032002AF5D04FF0EB
:10137000E022126922F001024FF0E0231A610022FC
:101380009A6170471600002000BF054A128802F0DB
:101390004002002AF9D0C2B2014B1B1D1A807047CF
:1013A000003801400EB50024DFF8E491FFF7A4FFF8
:1013B0004FF4E13000F010F9FFF758F975A0FEF78F
:1013C00027FFFFF7C5F9FF2000234FF4D072F0216B
:1013D00000907248FFF790FCFF20FFF771FCFF20A0
:1013E00000234FF4D072F02100906D48FFF784FC89
:1013F000FF20FFF765FCFFF7ABF9FEF7D1FFFFF722
:101400002BFBFEF78CFF67A0FEF702FF4FF47A700C
:10141000FFF794FF4FF47A70FFF790FF4FF47A7064
:10142000FFF78CFFFFF794F961495C48FEF784FFF2
:10143000FFF712FBFEF773FF5EA0FEF7E9FE4FF425
:101440007A70FFF77BFF4FF47A70FFF777FF4FF466
:101450007A70FFF773FFFFF77BF955494F48FEF7A6
:101460006BFFFFF7F9FAFEF75AFF4FF47A70FFF7B8
:1014700065FF4FF47A70FFF761FF4FF47A70FFF762
:101480005DFFFF20FFF71CFC4448FFF773FCFFF7EC
:101490005FF943494C48FEF74FFFFFF7DDFAFEF7CF
:1014A0003EFF4FF47A70FFF749FF4FF47A70FFF771
:1014B00045FF4FF47A70FFF741FFFF20FFF700FC74
:1014C000FFF746F963E03648FFF754FC00203F4938
:1014D000C8234FF4B872CDE9001001461820FFF779
:1014E00005FA01200021EB233722CDE90010C821A5
:1014F0001420FFF783F8002003461222DC2100901D
:101500004FF4BC70FEF777FF2448FFF733FC002050
:101510000090EB237322C82101905020FFF76EF852
:10152000012000231222DC21009040F24B10FEF734
:1015300062FF0020302102220423CDE90021029025
:101540004A46BE219420FFF72BFA484600F0ACFA39
:1015500007461F4A1F4B00F0C1F8054600F08CF803
:1015600081460F490D48FEF7E7FEFFF775FA4FF485
:101570007A70FFF7E3FE601CC4B2052C07D105E0CA
:10158000FEF70EFFFFF768FAFEF7C9FEF8E79AE7E5
:10159000CDCC40414F4B0D0A00000000340000202C
:1015A0002C160020436C6561722D4F4B0D0A000014
:1015B000001D00085245445F506963747572652DC3
:1015C0004F4B0D0A00000000C04D0008807E00084F
:1015D0007B14AE47E17A843F10B586B00446012102
:1015E00044F20400FFF73CFC4FF40070ADF8140027
:1015F00003208DF8160018208DF8170005A91C4847
:10160000FFF788FA4FF48060ADF8140004208DF8DD
:10161000170005A91648FFF77DFA25208DF8000070
:1016200003208DF801008DF8020001208DF80300E1
:101630006846FFF70DFB01940020ADF80800ADF8F7
:101640000A00ADF80C00ADF810000C20ADF80E004B
:1016500001A90848FFF7DAFD012240F225510548AB
:10166000FFF7AEFD01210348FFF774FD06B010BD82
:10167000000801400038014021F00042A2F1605210
:10168000B2F5801F01F0004328BFD2F17F6C0BD967
:101690005FEA001C43EAC20242EB507018BF704779
:1016A00028BF20F001007047B2F5801FBCBF18466C
:1016B00070474FEA410C1CF5001F02D2084600F0AB
:1016C0001ABB70B500F0B2F800000089FFF7F6BF52
:1016D0004FF00040A0F580007047000010B591EA7F
:1016E000030F48BF83F0004300F1FC80841A71EBC4
:1016F000030C05D2121943EB0C03001B61EB0C0128
:10170000DFF824E14FEA1154A4EB135C1EEA430F07
:1017100018BF9EEA445F73D023EA0E03DCF1200E6B
:1017200021EA045143F4801332D322FA0CFE10EB69
:101730000E0023FA0CFE41EB0E01CCF1200E03FA51
:101740000EFE10EB0E0051F10001B1F5801FCCF13F
:10175000200E32D201EB045112FA0EF2BDE8104015
:1017600058BF7047401C38BF5FEA420218BF70473D
:10177000002814BF20F0010041F100014FEA4103AD
:1017800013F5001F38BF7047A1F1C04100F09CB8AD
:10179000012A43EB0302ACF1200CDCF11F0E32BF37
:1017A0004FF0000E23FA0CF310EB030041EB045151
:1017B000B4EB115FD0D0A1EB045101F580114908C1
:1017C0005FEA300001EB04510ED350F1000038BF46
:1017D00012FA0EFE08D1BDE81040C9E7401C38BF20
:1017E0005FEA4202CAD1C3E7BDE810404FEA4103B5
:1017F00013F5001F38BF7047A1F1C04100F064B875
:101800009EEA445F08D011EA5E0FBDE8104004BFB5
:1018100001F0004100207047BDE8104070B500F0B5
:1018200005F800BF64FBBE3E0000E0FF0EF1020EB3
:101830002EF0030E5EF8046B364205D4012A43EB0A
:10184000030515F5001F12D8012841EB010C1CF50A
:10185000001F0CD80ED14FEAD17C15F5001F0CEB00
:101860004C0C0CF1020C08BF4CEBD37C04E04FF0A5
:10187000080C01E04FEAD37C0CEB4C0526FA05F688
:1018800006F00706B6F1040C06D20EEB860CBDE896
:1018900070404CF0010C6047DFE80CF0090B0202CD
:1018A0004FF000414FF00000A1F5002170BD194636
:1018B0001046012851EB010418BFD4F5001484BF71
:1018C000002001F0004170BD0808A0F500114FEAAA
:1018D0003101704710B591EA030F48BF83F0004310
:1018E0003FF504AF841A71EB030C07D212198CF088
:1018F000004C43EB0C03001B61EB0C01DFF8A4E18F
:101900004FEA1154A4EB135C1EEA430F18BF9EEA82
:10191000445F00F0B08023EA6E03524221EA045192
:10192000C3EB6E0338BF5B1EDCF1200E25D322FA19
:101930000CFE10EB0E0043FA0CFE41EB0E01CCF155
:10194000200E03FA0EFE10EB0E0051F10001CCF157
:10195000200E29D412FA0EF201EB0451BDE810401A
:1019600058BF7047401C1CBFB2F1004F70470028A1
:101970000CBF491C20F00100704712EB020E43EB34
:10198000030218BF4FF0010E4EEA4202ACF1200CE8
:10199000DCF11E0E54D943FA0CFE10EB0E0051F18F
:1019A000FF31CCF11E0ED5D50EF1010E12FA0EFE4E
:1019B000404141EB010101EB445C5FEA5C5C10D902
:1019C00010EBDE7001EB045138BFBEF1004FBDE8F3
:1019D000104018BF704700280CBF491C20F00100C0
:1019E000704730D24FEAD42C11F5001124F4006472
:1019F0001BD0B1FA81F20B3AA41AA41ED2F1200333
:101A0000914030FA03F31943904001EBCC71002C64
:101A100001EB0451BDE81040A8BF704701F1C0417F
:101A20004FF0000001F000417047B0FA80F310FA67
:101A300003F100D110BDE41A173C4805C90AE4E7D8
:101A400001EB045110BD491001EB0451BDE81040F9
:101A50004FEA300002E04FF0000170474A0008BF33
:101A60000042F8D0B2F5001F28BF704701F00041D6
:101A70004FF0000070479EEA445F07D011EA5E0F06
:101A8000BDE8104004BF002100207047BDE81040B1
:101A900070B5FFF7CBFE00BF40DFF63E83F000419C
:101AA000104670470000E0FF43004FEAD30C4FEAB6
:101AB0003C0C43401FBF40070CF1605113F0FE4F38
:101AC00070471CF0006F03D100200CF000417047FC
:101AD0000CF0004343EA507010B540EACC0000F02F
:101AE000C4F800BF000000924FEA0001FFF7ECBE0F
:101AF0004FF000414FF00000A1F5002170470000B9
:101B0000C10DD1F19E0206DB4FEA002343F00043F2
:101B100023FA02F07047004207D54FEA4001B1F1C5
:101B2000FE4F02D24FF00000704710B500F09DF854
:101B300049922480002070476FEA2000704700001F
:101B4000B0FA80F310FA03F2C3F19D030AD0D9056D
:101B500001EB1220530638BF704700F1010008BFA7
:101B600020F00100704700004FF47F0C1CEAD012F7
:101B70001EBF1CEAD11392EA0C0F93EA0C0F00F07F
:101B8000478090EA010F48BF42F480724FF0004C4A
:101B90004CEA00204CEA012102EB0302A0FB0113F6
:101BA000A2F50002002918BF43F001035B0028BF23
:101BB0004FEA330342EB22425FEA132C4CEBC25054
:101BC0002EBFBCEB436FB2F57C0F70474FEA036C3E
:101BD000BCF1004F08BF20F00100B2F57C0F38BF08
:101BE00070470BD582F0FF0212F5803FC8BF7047E7
:101BF00000F1C040D8BF00F00040704700F5000C75
:101C00005FEA4C0C48BF7047B0F1C04000F073B8B9
:101C100090EA010F0CEAD11348BF42F4807262458A
:101C200038BF634504D280EA010000F000407047ED
:101C300010B500F01AF800BF8900013E00F007B8A7
:101C400000F009B85FEA410C5FEA1C6C08D080EA3A
:101C5000010000F050B85FEA400C5FEA1C6CF6D15E
:101C60004FF00040A0F5800070470EF1020E2EF0FC
:101C7000030E5EF8044B244204D44FEA4102B2F151
:101C80007F4F11D84FEA4003B3F17F4F0CD80ED1EC
:101C90004FEAD07CB2F17F4F0CEB4C0C0CF1020CF4
:101CA00008BF4CEBD17C04E04FF0080C01E04FEA98
:101CB000D17C0CEB4C0324FA03F404F00704B4F1D8
:101CC000040C06D20EEB840CBDE810404CF0010C65
:101CD0006047DFE80CF0070802024FF00040A0F573
:101CE000800010BD0846420018BFD2F1807288BF44
:101CF00000F0004010BDFF2141EAD050C005704700
:101D0000FFFFFFFFFFFFFFFFFFFFFFFFFFFFFFFFE3
:101D1000FFFFFFFFFFFFFFFFFFFFFFFFFFFFFFFFD3
:101D2000FFFFFFFFFFFFFFFFFFFFFFFFFFFFFFFFC3
:101D3000FFFFFFFFFFFFFFFFFFFFFFFFFFFFFFFFB3
:101D4000FFFFFFFFFFFFFFFFFFFFFFFFFFFFFFFFA3
:101D5000FFFFFFFFFFFFFFFFFFFFFFFFFFFFFFFF93
:101D6000FFFFFFFFFFFFFFFFFFFFFFFFFFFFFFFF83
:101D7000FFFFFFFFFFFFFFFFFFFFFFFFFFFFFFFF73
:101D8000FFFFFFFFFFFFFFFFFFFFFFFFF7FFFFFF6B
:101D9000FFFFFFFFFFFFFFFFFFFFFFFFFFFFFFFF53
:101DA000FFFFFFFFFFFFFFFFFFFFF7FFFFFFFFFF4B
:101DB000FFFFFFFFFFFFFFFFFFFFFFFFFFFFFFFF33
:101DC000FFFFFFFFFFFFFFFFF7FFFFFFFFFFFFFF2B
:101DD000FFFFFC3FE7FFFFFFFFFFFFFFFFFFFFFFEE
:101DE000FFFFFFFFFFFFF7FFFFFFFFFFFFFFFFFF0B
:101DF000FB3FC7FFFFFFFFFFFFFFFFFFFFFFFFFFEF
:101E0000FFFFFFFFF7FFFFFFFFFFFFFFFFFFFBFFEE
:101E1000B7FFFFFFFFFFFFFFFFFFFFFFFFFFFFFF1A
:101E2000FFFFF7FFFFFFFFFFFFFFFFFFF7FF77FF5A
:101E3000FFFFFFFFFFFFFFFFFFFFFFFFFFFFFFFFB2
:101E4000F7FFFFFFFFFFFFFFFFFFF7FEF7FFFFFFBB
:101E5000FFFFFFFFFFFFFFFFFFFFFFFFFFFFF7FF9A
:101E6000FFFFFFFFFFFFFFFFF7FDF7FFFFFFFFFF94
:101E7000FFFFFFFFFFFFFFFFFFFFFFFFF7FFFFFF7A
:101E8000FFFFFFFFFFFFF7F3F7FFFFFFFFFFFFFF7E
:101E9000FFFFFFFFFFFFFFFFFFFFF7FFFFFFFFFF5A
:101EA000FFFFFFFFF3E7F7FFFFFFFFFFFFFFFFFF6E
:101EB000FFFFFFFFFFFFFFFFF7FFFFFFFFFFFFFF3A
:101EC000FFFFF80FE7FFFFFFFFFFFFFFFFFFFFFF31
:101ED000FFFFFFFFFFFFF7FFFFFFFFFFFFFFFFFF1A
:101EE000FC3F8FFFFFFFFFFFFFFFFFFFFFFFFFFF35
:101EF000FFFFFFFFF7FFFFFFFFFFFFFFFFFFFFFFFA
:101F0000FFFFFFFFFFFFFFFFFFFFFFFFFFFFFFFFE1
:101F1000FFFFF7FFFFFFFFFFFFFFFFFFFFFFFFFFD9
:101F2000FFFFFFFFFFFFFFFFFFFFFFFFFFFFFFFFC1
:101F3000F7FFFFFFFFFFFFFFFFFFFFFFFFFFFFFFB9
:101F4000FFFFFFFFFFFFFFFFFFFFFFFFFFFFF7FFA9
:101F5000FFFFFFFFFFFFFFFFFF80FFFFFFFFFFFF10
:101F6000FFFFFFFFFFFFFFFFFFFFFFFFF7FFFFFF89
:101F7000FFFFFFFFFFFFFC001FFFFFFFFFFFFFFF53
:101F8000FFFFFFFFFFFFFFFFFFFFF7FFFFFFFFFF69
:101F9000FFFFFFFFF8FF8FFFFFFFFFFFFFFFFF8146
:101FA000FFFFFFFFFFFFFFFFF7FFFFFFFFFFFFFF49
:101FB000FFFFF3FFE7FFFFFFFFFFFFFFFF81FFFFD3
:101FC000FFFFFFFFFFFFF7FFFFFFFFFFFFFFFFFF29
:101FD000F7FFF7FFFFFFFFFFFFFFFF81FFFFFFFF9F
:101FE000FFFFFFFFF7FFFFFFFFFFFFFFFFFFF7FF11
:101FF000F7FFFFFFFFFFFFFFFF81FFFFFFFFFFFF77
:10200000FFFFF7FFFFFFFFFFFFFFFFFFF7FFF7FFF8
:10201000FFFFFFFFFFFFFF81FF1FFFFFFFFFFFFF2E
:10202000F7FE3FFFFFFFFFFFFFFFF3FFE7FFFFFFAD
:10203000FFFFFFFFFF81FF7FFFFFFFFFFFFFF7FEB7
:10204000FFFFFFFFFFFFFFFFF8FF8FFFFFFFFFFF17
:10205000FFFFFF81FF7FDFFFFFFFFFFFF7FEFFBFF7
:10206000FFFFFFFFFFFFFC001FFFFFFFFFFFFFFF62
:10207000FF81FF001FFFFFFFFFFFF7FE003FFFFF95
:10208000FFFFFFFFFF00FFFFFFFFFFFFFFFFFF81DD
:10209000FF7FDFFFFFFFFFFFF7FEFFBFFFFFFFFF39
:1020A000FFFFFFFFFFFFFFFFFFFFFFFFFF81FF7F3E
:1020B000FFFFFFFFFFFFF7FEFFFFFFFFFFFFFFFF39
:1020C000FC3FE7FFFFFFFFFFFFFFFF81FF1FFFFF59
:1020D000FFFFFFFFF7FE3FFFFFFFFFFFFFFFFB3F9D
:1020E000C7FFFFFFFFFFFFFFFF81FFFFFFFFFFFFB6
:1020F000FFFFF7FFFFFFFFFFFFFFFFFFFBFFB7FF44
:10210000FFFFFFFFFFFFFF81FFFFFFFFFFFFFFFF5D
:10211000F7FFFFFFFFFFFFFFFFFFF7FF77FFFFFF67
:10212000FFFFFFFFFF81FFC07FFFFFFFFFFFF7FF04
:1021300080FFFFFFFFFFFFFFF7FEF7FFFFFFFFFF3F
:10214000FFFFFF81FFBFBFFFFFFFFFFFF7FF7F7FA5
:10215000FFFFFFFFFFFFF7FDF7FFFFFFFFFFFFFFA1
:10216000FF81FF7FDFFFFFFFFFFFF7FEFFBFFFFFE6
:10217000FFFFFFFFF7F3F7FFFFFFFFFFFFFFFF8109
:10218000FF7FDFFFFFFFFFFFF7FEFFBFFFFFFFFF48
:10219000FFFFF3E7F7FFFFFFFFFFFFFFFF81FF7F79
:1021A000DFFFFFFFFFFFF7FEFFBFFFFFFFFFFFFFA8
:1021B000F80FE7FFFFFFFFFFFFFFFF81FFBFBFFF3C
:1021C000FFFFFFFFF7FF7F7FFFFFFFFFFFFFFC3FEA
:1021D0008FFFFFFFFFFFFFFFFF81FFC07FFFFFFFBC
:1021E000FFFFF7FF80FFFFFFFFFFFFFFFFFFFFFF86
:1021F000FFFFFFFFFFFFFF81FFFFFFFFFFFFFFFF6D
:10220000F7FFFFFFFFFFFFFFFFFFFFFFFFFFFFFFE6
:10221000FFFFFFFFFF81FF7FDFFFFFFFFFFFF7FEF5
:10222000FFBFFFFFFFFFFFFFFFFFFFFFFFFFFFFFFE
:10223000FFFFFF81FF001FFFFFFFFFFFF7FE003FD3
:10224000FFFFFFFFFFFFFC7F1FFFFFFFFFFFFFFF01
:10225000FF81FF7FDFFFFFFFFFFFF7FE1FBFFFFFD5
:10226000FFFFFFFFF87F0FFFFFFFFFFFFFFFFF8173
:10227000FF7FDFFFFFFFFFFFF7FFE3FFFFFFFFFF32
:10228000FFFFF7FFF7FFFFFFFFFFFFFFFF81FF7F6C
:10229000DFFFFFFFFFFFF7FFFC3FFFFFFFFFFFFF39
:1022A000F7FFF7FFFFFFFFFFFFFFFF81FF7FDFFF6C
:1022B000FFFFFFFFF7FFE3FFFFFFFFFFFFFFF7F762
:1022C000F7FFFFFFFFFFFFFFFF81FFBFBFFFFFFF24
:1022D000FFFFF7FE1FBFFFFFFFFFFFFFF7F7F7FF4F
:1022E000FFFFFFFFFFFFFF81FFC07FFFFFFFFFFF3B
:1022F000F7FE003FFFFFFFFFFFFFF3E7F7FFFFFFE2
:10230000FFFFFFFFFF81FFFFFFFFFFFFFFFFF7FE64
:10231000FFBFFFFFFFFFFFFFF80BEFFFFFFFFFFF18
:10232000FFFFFF81FFFFDFFFFFFFFFFFF7FFFFFF63
:10233000FFFFFFFFFFFFFC380FFFFFFFFFFFFFFF67
:10234000FF81FFFF1FFFFFFFFFFFF7FF80FFFFFF82
:10235000FFFFFFFFFFFE1FFFFFFFFFFFFFFFFF81EC
:10236000FFF8DFFFFFFFFFFFF7FF7F7FFFFFFFFFAC
:10237000FFFFFFFFFFFFFFFFFFFFFFFFFF81FFC525
:10238000FFFFFFFFFFFFF7FEFFBFFFFFFFFFFFFFA6
:10239000FFFFFFFFFFFFFFFFFFFFFF81FF3DFFFF8D
:1023A000FFFFFFFFF7FEFFBFFFFFFFFFFFFFFFFF86
:1023B000FDFFFFFFFFFFFFFFFF81FFC5FFFFFFFFE7
:1023C000FFFFF7FEFFBFFFFFFFFFFFFFFFFFF3FF72
:1023D000FFFFFFFFFFFFFF81FFF8DFFFFFFFFFFFB2
:1023E000F7FF7F7FFFFFFFFFFFFFFFFF8FFFFFFF75
:1023F000FFFFFFFFFF81FFFF1FFFFFFFFFFFF7FF53
:1024000080FFFFFFFFFFFFFFFFFE3FFFFFFFFFFF1C
:10241000FFFFFF81FFFFDFFFFFFFFFFFF7FFFFFF72
:10242000FFFFFFFFFFFFFFF8FFFFFFFFFFFFFFFFC3
:10243000FF81FFFFFFFFFFFFFFFFF7FEFFBFFFFF73
:10244000FFFFFFFFFFE3FFFFFFFFFFFFFFFFFF8136
:10245000FF7FFFFFFFFFFFFFF7FE003FFFFFFFFFD4
:10246000FFFFFF8FFFFFFFFFFFFFFFFFFF81FF1F4A
:10247000FFFFFFFFFFFFF7FEEFBFFFFFFFFFFFFFC5
:10248000FE3FFFFFFFFFFFFFFFFFFF81FF67DFFF53
:10249000FFFFFFFFF7FEEFFFFFFFFFFFFFFFF8FF6C
:1024A000FFFFFFFFFFFFFFFFFF81FFF81FFFFFFFA1
:1024B000FFFFF7FEE3FFFFFFFFFFFFFFE7FFFFFF69
:1024C000FFFFFFFFFFFFFF81FF67DFFFFFFFFFFF52
:1024D000F7FEECFFFFFFFFFFFFFFDFFFFFFFFFFF48
:1024E000FFFFFFFFFF81FF1FFFFFFFFFFFFFF7FF62
:1024F0001F3FFFFFFFFFFFFFFFFFFFFFFFFFFFFF8C
:10250000FFFFFF81FF7FFFFFFFFFFFFFF7FFFFBF21
:10251000FFFFFFFFFFFFFFFFFFFFFFFFFFFFFFFFCB
:10252000FF81FFFFFFFFFFFFFFFFF7FFFFFFFFFF41
:10253000FFFFFFFFFF80FFFFFFFFFFFFFFFFFF81A8
:10254000FFFFFFFFFFFFFFFFF7FEFFBFFFFFFFFFE4
:10255000FFFFFC001FFFFFFFFFFFFFFFFF81FFFFEB
:10256000FFFFFE7F81FFF7FE003FFFFFFFFFFFFF42
:10257000F8FF8FFFFFFFFFFFFFFFFF81FFFFFFFF60
:10258000FE7F00FFF7FEEFBFFFFF03FFFFFFF3FF3C
:10259000E7FFFFFFFFFFFFFFFF81FFFFFFFFFE7E63
:1025A000187FF7FEEFFFFFFE01FFFFFFF7FFF7FFCA
:1025B000FFFFFFFFFFFFFF81FFFFFFFFFE7C7E3F6E
:1025C000F7FEE3FFFFFC30FFFFFFF7FFF7FFFFFF22
:1025D000FFFFFFFFFF81FFFFFFFFFE78FF3FF7FEDA
:1025E000ECFFFFF8FC41FFFFF7FFF7FFFFFFFFFFE6
:1025F000FFFFFF81FFFFFFE7FE60FF3FF7FF1F3F89
:10260000FFF1FE7FFFFFF3FFE7FFFFFF8001FFFF0A
:10261000FF81FFFFFFE3FFC1FF3FF7FFFFBFFFC1E8
:10262000FE7FFFFFF8FF8FFFFFF800001FFFFF8115
:10263000FFFFFFF1FF8FFF3FF7FFFFFFFF83FE402C
:10264000FFFFFC001FFFFFC0000003FFFF81FFFF33
:10265000FFF8F01FFF3FF7FFFFFFFF9FFE7FFFFF29
:10266000FF00FFFFFF00000000FFFF81FFFFFFFCF6
:10267000C01FFF3FF7FF80FFFF9FFE4E1FFFFFFFC2
:10268000FFFFFE007FFE007FFF81FFFFFFFF839FB4
:10269000FF3FF7FF7F7FFF1FFE7FFFFFFFFFFFFF73
:1026A000FC0FFFFFF03FFF81FFFFFFFF0F8FFF3F9A
:1026B000F7FEFFBFFF1FFE7FFFFFFFFFFFFFF83F9B
:1026C000FFFFFC1FFF81FFFFFFFE3F0FFF3FF7FEF5
:1026D000FFBFFF3FFE403FFFFDFFF7FFF0FFFFFFA3
:1026E000FF0FFF81FFFFFFFE3E1FFF3FF7FEFFBF13
:1026F000FE3FFE7FFFFFFDFFF7FFE3FFFFFFFFC78A
:10270000FF81FFFFFFFC7C7FFF3FF7FF7F7FFC7FA8
:10271000FE7FFFFFFDFFF7FFE7FFFFFFFFE7FF8102
:10272000FFFFFFFC78FFFF3FF7FF80FFF8FFFE6130
:102730008FFFF80007FFC7FFFFFFFFE3FF81FFFFE9
:10274000FFFCF8FFFF3FF7FFFFFFF1FFFE7FFFFFFA
:10275000F00007FFCFFFFFFFFFF3FF81FFFFFC0C3F
:10276000F9FFFF3FF7FEFFFFF3FFFE7FFFFFFFFFD5
:10277000F7FFCFFFFFFFFFF3FF81FFFFFC0CF1FF2F
:10278000FF3FF7FE01FFE7FFFE600FFFFFFFF7FFD0
:10279000CFFFFFFFFFF3FF81FFFFFFFCF3FFFF3FD2
:1027A000F7FFFE3FE7FFFE7FFFFFFFFFF7FFCFFFD3
:1027B000FFFFFFF3FF81FFFFFFFCF3FFFF3FF7FE8B
:1027C000F1FFE7FFFE7FFFFFFFFFFFFFCFFFFFFFF0
:1027D000FFF3FF81FFFFFFFC73FFFF3FF7FE0FFFDB
:1027E000E7FFFE430FFFFFFFFFFFE7FFFFFFFFE7EE
:1027F000FF81FFFFFFFE71FFFF3FF7FEF1FFE7FFE5
:10280000FE7FFFFFFFFFFFFFE3FFFFFFFFC7FF812B
:10281000FFFFFFFE31FFFF3FF7FFFE3FE3FFFE7FBD
:10282000FFFFFFFFFDFFF1FFFFFFFF8FFF81FFFFB6
:10283000FFFF19FFFF3FF7FE01FFF3FFFE600FFFF1
:10284000FFFFF3FFF07FFFFFFE0FFF81FFFFFFFFA2
:1028500080FFFF3FF7FEFFFFF3FFFE7FFFFFFFFF5D
:102860008FFFF81FFFFFF01FFF81FFFFFFFCC07FFE
:10287000FF3FF7FFFFFFF1FFFE7FFFFFFFFE3FFF80
:10288000FE00FFFF007FFF81FFFFFFF8F03FFF3FEB
:10289000F7FFFFFFF8FFFE601FFFFFF8FFFFFF00DD
:1028A000000000FFFF81FFFFFFF1FE03FF3FF7FF86
:1028B000FFFFFC7FFE7FFFFFFFE3FFFFFFC0000085
:1028C00003FFFF81FFFFFFE3FF81FF3FF7FFFFFFF4
:1028D000FE1FFE460FFFFF8FFFFFFFF800001FFFE8
:1028E000FF81FFFFFFE7FE60FF3FF7FFFFFFFF07EE
:1028F000FE7FFFFFFE3FFFFFFFFF8001FFFFFF8125
:10290000FFFFFFFFFE78FF3FF7FFFFFFFFC3FE7FE4
:10291000FFFFF8FFFFFFFFFFFFFFFFFFFF81FFFF4C
:10292000FFFFFE7C7E3FF7FFFFFFFFF1FE403FFF12
:10293000E7FFFFFFFFFFFFFFFFFFFF81FFFFFFFF3D
:10294000FE7C3C7FF7FFFFFFFFF8FC7FFFFFDFFF10
:10295000FFFFFFFFFFFFFFFFFF81FFFFFFFFFE7E87
:1029600000FFF7FFFFFFFFF878FFFFFFFFFFFFFF0C
:10297000FFFFFFFFFFFFFF81FFFFFFFFFE7F81FFE4
:10298000F7FFFFFFFFFC01FFFFFFFF80FFFFFFFFDF
:10299000FFFFFFFFFF81FFFFFFFFFFFFFFFFF7FFCD
:1029A000FFFFFFFF03FFFFFFFC001FFFFFFFFFFF15
:1029B000FFFFFF81FFFFFFFFFFFFFFFFF7FFFFFFAD
:1029C000FFFFFFFFFFFFF8FF8FFFFFFF8001FFFF0B
:1029D000FF81FFFFFFFFFFFFFFFFF7FFFFFFFFFF8D
:1029E000FFFFFFFFF3FFE7FFFFF800001FFFFF817E
:1029F000FFFFFFFFFFFFFFFFF7FFFFFFFFFFFFFFEF
:102A0000FFFFF7FFF7FFFFC0000003FFFF81FFFF9D
:102A1000FFFFFFFFFFFFF7FFFFFFFFFFFFFFFFFFCE
:102A2000F7FFF7FFFF00000000FFFF81FFFFFFFF40
:102A3000FFFFFFFFF7FFFFFFFFFFFFFFFFFFF7FFB6
:102A4000F7FFFE007FFE007FFF81FFFFFFFFFFFF1C
:102A5000FFFFF7FFFFFFFFFFFFFFFFFFF3FFE7FFB2
:102A6000FC0FFFFFF03FFF81FFFFFFFFFFFFFFFFB6
:102A7000F7FFFFFFFFFFFFFFFFFFF8FF8FFFF83FAC
:102A8000FFFFFC1FFF81FFFFFFFFFFFFFFFFF7FFBF
:102A9000FFFFFFFFFFFFFFFFFC001FFFF0FFFFFF37
:102AA000FF0FFF81FFFFFFFFFFFFFFFFF7FFFFFFAC
:102AB000FFFFFFFFFFFFFF00FFFFE3FFFFFFFFC779
:102AC000FF81FFFFFFFFFFFFFFFFF7FFFFFFFFFF9C
:102AD000FFFFFFFFFFFFFFFFE7FFFFFFFFE7FF81B4
:102AE000FFFFFFFFFFFFFFFFF7FFFFFFFFFFFFFFFE
:102AF000FFFFFFFFFFFFC7FFFFFFFFE3FF81FFFFB8
:102B0000FFFFFFFFFFFFF7FFFFFFFFFFFFFFFFFFDD
:102B1000FFFFFFFFCFFFFFFFFFF3FF81FFFFFFFF7F
:102B2000FFFFFFFFF7FFFFFFFFFFFFFFFFFFFFFFBD
:102B3000FFFFCFFFFFFFFFF3FF81FFFFFFFFFFFF5F
:102B4000FFFFF7FFFFFFFFFFFFFFFFFFFDFFF7FFA7
:102B5000CFFFFFFFFFF3FF81FFFFFFFFFFFFFFFF3F
:102B6000F7FFFFFFFFFFFFFFFFFFFDFFF7FFCFFFB7
:102B7000FFFFFFF3FF81FFFFFFFFFFFFFFFFF7FFF7
:102B8000FFFFFFFFFFFFFFFFFDFFF7FFCFFFFFFF8F
:102B9000FFF3FF81FFFFFFFFFFFFFFFFF7FFFFFFD7
:102BA000FFFFFFFFFFFFF80007FFE7FFFFFFFFE763
:102BB000FF81FFFFFFFF7FFFFF7FF7FFFFFFFF7F2B
:102BC000FFFF7FFFF00007FFE3FFFFFFFFC7FF816D
:102BD000FFFFFFFF7FFFFF7FF7FFFFFFFF7FFFFF8D
:102BE0007FFFFFFFF7FFF1FFFFFFFF8FFF81FFFF79
:102BF000FFFF7FFFFF7FF7FFFFFFFF7FFFFF7FFFED
:102C0000FFFFF7FFF07FFFFFFE0FFF81FFFFFFFFDA
:102C10007FFFFE7FF7FFFFFFFF7FFFFE7FFFFFFFCE
:102C2000F7FFF81FFFFFF01FFF81FFFFFFFE00000F
:102C3000007FF7FFFFFFFE0000007FFFFFFFFFFFA9
:102C4000FE00FFFF007FFF81FFFFFFFC0000007F11
:102C5000F7FFFFFFFC0000007FFFFFFFFFFFFF000B
:102C6000000000FFFF81FFFFFFFFFFFFFE7FF7FF78
:102C7000FFFFFFFFFFFE7FFFFFFFFFFFFFC0000022
:102C800003FFFF81FFFFFFFFFFFFFF7FF7FFFFFF56
:102C9000FFFFFFFF7FFFFFFFFFFFFFF800001FFFA9
:102CA000FF81FFFFFFFFFFFFFF7FF7FFFFFFFFFF3A
:102CB000FFFF7FFFFFFFFFFFFFFF8001FFFFFF819F
:102CC000FFFFFFFFFFFFFF7FF7FFFFFFFFFFFFFF9C
:102CD0007FFFFFFFFFFFFFFFFFFFFFFFFF81FFFF02
:102CE000FFFFFFFFFF7FF7FFFFFFFFFFFFFF7FFFFC
:102CF000FFFFFFFFFFFFFFFFFFFFFF81FFFFFFFF62
:102D0000FFFFFFFFF7FFFFFFFFFFFFFFFFFFFFFFDB
:102D1000FFFFFFFFFFFFFFFFFF81FFFFFFFFFFFF41
:102D2000FFFFF7FFFFFFFFFFFFFFFFFFFFFFFFFFBB
:102D3000FFFFFFFFFFFFFF81FFFFFFFFFFFFFFFF21
:102D4000F7FFFFFFFFFFFFFFFFFFFFFFFFFFFFFF9B
:102D5000FFFFFFFFFF81FFFFFFFFFFFFFFFFF7FF09
:102D6000FFFFFFFFFFFFFFFFFFFFFFFFFFFFFFFF73
:102D7000FFFFFF81FFFFFFFFFFFFFFFFF7FFFFFFE9
:102D8000FFFFFFFFFFFFFFFFFFFFFFFFFFFFFFFF53
:102D9000FF81FFFFFFFFFE003FFFF7FFFFFFFF8701
:102DA000FFE3FFFFFFFFFFFFFFFFFFFFFFFFFF81CD
:102DB000FFFFFFFFF00007FFF7FFFFFFFF07FFC167
:102DC000FFFFFFFFFFFFFFFFFFFFFFFFFF81FFFF91
:102DD000FFFFC7E7C3FFF7FFFFFFFE47FFC0FFFF8F
:102DE000FFFFFFFFFFFFFFFFFFFFFF81FFFFFFFF71
:102DF000BFCFF9FFF7FFFFFFFEFFFFE4FFFFFFFF7D
:102E0000FFFFFFFFFFFFFFFFFF81FFFFFFFF7FBF10
:102E1000FCFFF7FFFFFFFDFFFFFE7FFFFFFFFFFF50
:102E2000FFFFFFFFFFFFFF81FFFFFFFEFFBFFEFF72
:102E3000F7FFFFFFFDFFDFFF7FFFFFFFFFFFFFFF4C
:102E4000FFFFFFFFFF81FFFFFFFEFF7FFF7FF7FF19
:102E5000FFFFFDFFDFFF7FFFFFFFFFFFFFFFFFFF24
:102E6000FFFFFF81FFFFFFFDFF7FFF7FF7FFFFFFFA
:102E7000FDFFDFFF7FFFFFFFFFFFFFFFFFFFFFFF04
:102E8000FF81FFFFFFFDFF7FFF7FF7FFFFFFFDFFDC
:102E9000DFFF7FFFFFFFFFFFFFFF8FFFFF8FFF8140
:102EA000FFFFFFFDFF7FFF7FF7FFFFFFFCFF8FFFAF
:102EB0007FFFFFFFFFFFFFFF07FFFF07FF81FFFF10
:102EC000FFFDFF7FFF7FF7FFFFFFFEFF2FFEFFFFEE
:102ED000FFFFFFFFFFFE03FFFE03FF81FFFFFFFD7C
:102EE000FF3FFEFFF7FFFFFFFE3E67FCFFFFFFFF18
:102EF000FFFFFFFE03FFFE03FF81FFFFFFFC1F9F9D
:102F0000FCFFF7FFFFFFFF00F1F9FFFFFFFFFFFFEF
:102F1000FFFE03FFFE03FF81FFFFFFFE1FC7F1FF60
:102F2000F7FFFFFFFFC1F803FFFFFFFFFFFFFFFFFA
:102F300007FFFF07FF81FFFFFFFF1FE003FFF7FF12
:102F4000FFFFFFFFFE0FFFFFFFFFFFFFFFFF8FFFF2
:102F5000FF8FFF81FFFFFFFFFFF80FFFF7FFFFFF6E
:102F6000FFFFFFFFFFFFFFFFFFFFFFFFFFFFFFFF71
:102F7000FF81FFFFFFFFFFFFFFFFF7FFFFFFFFFFE7
:102F8000FFFFFFFFFFFFFFFFFFFFFFFFFFFFFF81CF
:102F9000FFFFFFFFFFFFFFFFF7FFFFFFFFFFFFFF49
:102FA000FFFFFFFFFFFFFFFFFFFFFFFFFF81FFFFAF
:102FB000FFFFFFFFFFFFF7FFFFFFFFFFFFFFFFFF29
:102FC000FFFFFFFFFFFFFFFFFFFFFF81FFFFFFFF8F
:102FD000FFFFFFFFF7FFFFFFFFFFFFFFFFFFFFFF09
:102FE000FFFFFFFFFFFFFFFFFF81FFFFFFFFFFFF6F
:102FF000FFFFF7FFFFFFFFFFFFFFFFFFFFFFFFFFE9
:10300000FFFFFFFFFFFFFF81FFFFFFFFFFFFFFFF4E
:10301000F7FFFFFFFFFFFFFFFFFFFFFFFFFFFFFFC8
:10302000FFFFFFFFFF81FFFFFFFFFFFFFFFFF7FF36
:10303000FFFFFFFFFFFFFFFFFFFFFFFFFFFFFFFFA0
:10304000FFFFFF81FFFFFFF83FFFFFFFF7FFFFFFDD
:10305000F83FFFFFFFFFFFFFFFFFFFFFFFFFFFFF47
:10306000FF81FFFFFFF3BFFFFFFFF7FFFFFFF3BF8E
:10307000FFFFFFFFFFFFFFFFFFFFFFFFFFFFFF81DE
:10308000FFFFFFF79FFFFFFFF7FFFFFFF79FFFFF28
:10309000FFFFFFFFFFFFFFFFFFFFFFFFFF81FFFFBE
:1030A000FFF7DFFFFFFFF7FFFFFFF7DFFFFFFFFF88
:1030B000FFFFFFFFFFFFFFFFFFFFFF81FFFFFFF7A6
:1030C0009FFFFFFFF7FFFFFFF79FFFFFFFFFFFFFE0
:1030D000FFFFFFFFFFFFFFFFFF81FFFFFFF03FFF4D
:1030E000FFFFF7FFFFFFF03FFFFFFFFFFFFFFFFFC7
:1030F000FFFFFFFFFFFFFF81FFFFFFFCFFFFFFFF61
:10310000F7FFFFFFFCFFFFFFFFFFFFFFFFFFFFFFDA
:10311000FFFFFFFFFF81FFFFFFFFFC01FFFFF7FF46
:10312000FFFFFFFC01FFFFFFFFFFFFFFFFFFFFFFB0
:10313000FFFFFF81FFFFFFFFE0003FFFF7FFFFFF03
:10314000FFE0003FFFFFFFFFFFFFFFFFFFFFFFFF6D
:10315000FF81FFFFFFFF80000FFFF7FFFFFFFF80F2
:10316000000FFFFFFFFFFFFFFFFFFFFFFFFFFF81DC
:10317000FFFFFFFF07FF07FFF7FFFFFFFF07FF0747
:10318000FFFFFFFFFFFFFFFFFFFFFFFFFF81FFFFCD
:10319000FFFE3FFFC3FFF7FFFFFFFE3FFFC3FFFF41
:1031A000FFFFFFFFFFFFFFFFFFFFFF81FFFFFFFCB0
:1031B0007FFFF1FFF7FFFFFFFC7FFFF1FFFFFFFF46
:1031C000FFFFFCFFFFFFFFF3FF81FFFFFFF8FFFFA3
:1031D000F8FFF7FFFFFFF8FFFFF8FFFFFFFFFFFF1C
:1031E000FCFFFFFFFFF3FF81FFFFFFF9FFFFFCFF85
:1031F000F7FFFFFFF9FFFFFCFFFFFFFFFFFFFCFFF3
:10320000FFFFFFF3FF81FFFFFFFBFFFFFCFFF7FF67
:10321000FFFFFBFFFFFCFFFFFFFFFFFFFCFFFFFFC8
:10322000FFF3FF81FFFFFFFBFFFFFE7FF7FFFFFFC5
:10323000FBFFFFFE7FFFFFFFFFFFFCFFFFFFFFF332
:10324000FF81FFFFFFF3FFFFFE7FF7FFFFFFF3FFAD
:10325000FFFE7FFFFFFFFFFFFCFFFFFFFFE3FF819C
:10326000FFFFFFF3FFFFFE7FF7FFFFFFF3FFFFFE10
:103270007FFFFFFFFFFFF87FFFFFFFC3FF81FFFF1F
:10328000FFF3FFFFFE7FF7FFFFFFF3FFFFFE7FFF70
:10329000FFFFFFFFF80000000003FF81FFFFFFF3C7
:1032A000FFFFFE7FF7FFFFFFF3FFFFFE7FFFFFFF44
:1032B000FFFFF00000000003FF81FFFFFFFBFFFFA7
:1032C000FEFFF7FFFFFFFBFFFFFEFFFFFFFFFFFF1C
:1032D000E00000000003FF81FFFFFFFBFFFFFCFF9A
:1032E000F7FFFFFFFBFFFFFCFFFFFFFFFFFFC0003B
:1032F00000000003FF81FFFFFFF9FFFFFCFFF7FF66
:10330000FFFFF9FFFFFCFFFFFFFFFFFFFFFFFFFFD6
:10331000FFC3FF81FFFFFFFDFFFFF9FFF7FFFFFF87
:10332000FDFFFFF9FFFFFFFFFFFFFFFFFFFFFFE3D1
:10333000FF81FFFFFFFCFFFFFBFFF7FFFFFFFCFF2D
:10334000FFFBFFFFFFFFFFFFFFFFFFFFFFF3FF811B
:10335000FFFFFFFE7FFFF3FFF7FFFFFFFE7FFFF39F
:10336000FFFFFFFFFFFFFFFFFFFFFFF3FF81FFFFF7
:10337000FFFF1FFFE7FFF7FFFFFFFF1FFFE7FFFF55
:10338000FFFFFFFFFFFFFFFFFFF3FF81FFFFFFFCDA
:1033900001FFDFFFF7FFFFFFFC01FFDFFFFFFFFF84
:1033A000FFFFFFFFFFFFFFF3FF81FFFFFFFFFFFFB7
:1033B000FFFFF7FFFFFFFFFFFFFFFFFFFFFFFFFF25
:1033C000FFFFFFFFFFF3FF81FFFFFFFFFFFFFFFF97
:1033D000F7FFFFFFFFFFFFFFFFFFFFFFFFFFFFFF05
:1033E000FFFFFFFFFF81FFFFFFFFFFFFFFFFF7FF73
:1033F000FFFFFFFFFFFFFFFFFFFFFFFFFFFFFFFFDD
:10340000FFFFFF81FFFFFFFFFFFFFFFFF7FFFFFF52
:10341000FFFFFFFFFFFFFFFFFFFFFFFFFFFFFFFFBC
:10342000FF81FFFFFFFFFFFFFFFFF7FFFFFFFFFF32
:10343000FFFFFFFFFFFFFFFFFFFFFFFFFFFFFF811A
:10344000FFFFFFFFFFFFFFFFF7FFFFFFFFFFFFFF94
:10345000FFFFFFFFFFFFFFFFFFFFFFFFFF81FFFFFA
:10346000FFFFFFFFFFFFF7FFFFFFFFFFFFFFFFFF74
:10347000FFFFFFFFFFFFFFFFFFFFFF81FFFFFFCF0A
:10348000FFFFFFFFF7FFFFFFCFFFFFFFFFFFFFFF84
:10349000FFFFFFFFFFFFFFFFFF81FFFFFF3FFFFF7A
:1034A000FFFFF7FFFFFF3FFFFFFFFFFFFFFFFFFFF4
:1034B000FFFFFFFFFFFFFF81FFFFFF7FFFFFFFFF1A
:1034C000F7FFFFFF7FFFFFFFFFFFFFFFFFFFFFFF94
:1034D000FFFFFFFFFF81FFFFFEFFFFFFFFFFF7FF83
:1034E000FFFEFFFFFFFFFFFFFFFFFFFFFFFFFFFFED
:1034F000FFFFFF81FFFFFEFFFFFFFFFFF7FFFFFE64
:10350000FFFFFFFFFFFFFFFFFFFFFFFFFFFFFF8347
:10351000FF81FFFFFE7FFFFFFFFFF7FFFFFE7FFF43
:10352000FFFFFFFFFFFFFFFFFFC0FFFFFF03FF8164
:10353000FFFFFE3FFFFFFFFFF7FFFFFE3FFFFFFF25
:10354000FFFFFFFFFFFFFE007FFFFC03FF81FFFF88
:10355000FF1FFFFFFFFFF7FFFFFF1FFFFFFFFFFF43
:10356000FFFFFFFFFC007FFFF843FF81FFFFFF8F9E
:10357000FFFFFFFFF7FFFFFF8FFFFFFFFFFFFFFFD3
:10358000FFFFF8007FFFF0C3FF81FFFFFFC7FFFFD2
:10359000FFFFF7FFFFFFC7FFFFFFFFFFFFFFFFFF7B
:1035A000F0E07FFFE1C3FF81FFFFFFE7FFFFFFFFC9
:1035B000F7FFFFFFE7FFFFFFFFFFFFFFFFFFF1F850
:1035C000FFFFC7C3FF81FFFFFFF3FFFFFFFFF7FF11
:1035D000FFFFF3FFFFFFFFFFFFFFFFFFE3FFFFFF23
:1035E0008FC3FF81FFFFFFFBFFFFFFFFF7FFFFFF21
:1035F000FBFFFFFFFFFFFFFFFFFFE7FFFFFF1FC313
:10360000FF81FFFFFFFBFFFFFFFFF7FFFFFFFBFF58
:10361000FFFFFFFFFFFFFFFFC7FFFFFE3FC3FF816D
:10362000FFFFFFF7FFFFFFFFF7FFFFFFF7FFFFFFC2
:10363000FFFFFFFFFFFFCFFFFFFC7FC3FF81FFFF07
:10364000FFEFFFFFFFFFF7FFFFFFEFFFFFFFFFFFB2
:10365000FFFFFFFFCFFFFFF8FFC3FF81FFFFFF9FCB
:10366000FFFFFFFFF7FFFFFF9FFFFFFFFFFFFFFFD2
:10367000FFFFCFFFFFF1FFC3FF81FFFFFFFFFFFF52
:10368000FFFFF7FFFFFFFFFFFFFFFFFFFFFFFFFF52
:10369000CFFFFFE3FFC3FF81FFFFFFFFFFFFFFFF40
:1036A000F7FFFFFFFFFFFFFFFFFFFFFFFFFFCFFF62
:1036B000FFC7FFC3FF81FFFFFFFFC3FFFC7FF7FFD3
:1036C000FFFFFFC3FFFC7FFFFFFFFFFFCFFFFF8F69
:1036D000FFC3FF81FFFFFFFF01FFF87FF7FFFFFF41
:1036E000FF01FFF87FFFFFFFFFFFC7FFFF1FFFC3C3
:1036F000FF81FFFFFFFF01FFF27FF7FFFFFFFF01E9
:10370000FFF27FFFFFFFFFFFE7FFFC3FFFC3FF81EB
:10371000FFFFFFFE71FFC67FF7FFFFFFFE71FFC6D1
:103720007FFFFFFFFFFFE3FFF87FFFC3FF81FFFF86
:10373000FFFEFFFF9E7FF7FFFFFFFEFFFF9E7FFF65
:10374000FFFFFFFFE1FFE0FFFFC3FF81FFFFFFFD82
:10375000FFFF3E7FF7FFFFFFFDFFFF3E7FFFFFFF05
:10376000FFFFF07F01FFFF83FF81FFFFFFFDFFFEF3
:103770007E7FF7FFFFFFFDFFFE7E7FFFFFFFFFFF66
:10378000F80003FFFF03FF81FFFFFFFDFFFCFE7F4B
:10379000F7FFFFFFFDFFFCFE7FFFFFFFFFFFFC00C9
:1037A00007FFFE03FF81FFFFFFFDFFF9FE7FF7FF2D
:1037B000FFFFFDFFF9FE7FFFFFFFFFFFFE001FFF82
:1037C000E003FF81FFFFFFFDFFF3FE7FF7FFFFFF39
:1037D000FDFFF3FE7FFFFFFFFFFFFF80FFFFE1FF25
:1037E000FF81FFFFFFFCFFE7FE7FF7FFFFFFFCFF0E
:1037F000E7FE7FFFFFFFFFFFFFFFFFFFFFFFFF81F0
:10380000FFFFFFFEFFCFFE7FF7FFFFFFFEFFCFFEB4
:103810007FFFFFFFFFFFFFFFFFFFFFFFFF81FFFFB6
:10382000FFFE3E1FFC7FF7FFFFFFFE3E1FFC7FFFFA
:10383000FFFFFFFFFFFFFFFFFFFFFF81FFFFFFFF16
:10384000003FF87FF7FFFFFFFF003FF87FFFFFFF1C
:10385000FFFFFFFFFFFFFFFFFF81FFFFFFFFC1FF34
:10386000E3FFF7FFFFFFFFC1FFE3FFFFFFFFFFFFE6
:10387000FFFFFFFFFFFFFF81FFFFFFFFFFFFFFFFD6
:10388000F7FFFFFFFFFFFFFFFFFFFFFFFFFFFFFF50
:10389000FFFFFFFFFF81FFFFFFFFFFFFFFFFF7FFBE
:1038A000FFFFFFFFFFFFFFFFFFFFFFFFFFFFFFFF28
:1038B000FFFFFF81FFFFFFFFFFFFFFFFF7FFFFFF9E
:1038C000FFFFFFFFFFFFFFFFFFFFFFFFFFFFFFFF08
:1038D000FF81FFFFFFFFFFFFFFFFF7FFFFFFFFFF7E
:1038E000FFFFFFFFFFFFFFFFFFFFFFFFFFFFFF8166
:1038F000FFFFFFFFFFFFC7FFF7FFFFFFFFFFFFFF18
:10390000FFFFFFFFFFFFFFFFFFFFFFFFFF81FFFF45
:10391000FFFFE00F81FFF7FFFFFFFFFFFFFFFFFF4C
:10392000FFFFFFFFFFFFFFFFFFFFFF81FFFFFFFC28
:1039300003CF80FFF7FFFFFFFFFFFFFFFFFFFFFF4A
:10394000FFFFFFFFFFFFFFFFFF81FFFFFFFCFF9F68
:103950008EFFF7FFFFFFFF7FFFFF7FFFFFFFFFFFF0
:10396000FFFFFFFFFFFFFF81FFFFFFFCFFBFFE7FA9
:10397000F7FFFFFFFF7FFFFF7FFFFFFFFFFFFFFF5F
:10398000FFFFFFFFFF81FFFFFFFCFF7FFF7FF7FFD0
:10399000FFFFFF7FFFFF7FFFFFFFFFFFFFFFFFFF37
:1039A000FFFFFF81FFFFFFFCFF7FFF7FF7FFFFFFB0
:1039B000FF7FFFFE7FFFFFFFFFFFFFFFFFFFFFFF18
:1039C000FF81FFFFFFFCFF7FFF7FF7FFFFFFFE0090
:1039D00000007FFFFFFFFFFFFFFF8FFFFF8FFF81D3
:1039E000FFFFFFFCFF7FFF7FF7FFFFFFFC000000F2
:1039F0007FFFFFFFFFFFFFFF07FFFF07FF81FFFFC5
:103A0000FFFCFF7FFF7FF7FFFFFFFFFFFFFE7FFF52
:103A1000FFFFFFFFFFFE03FFFE03FF81FFFFFFFC31
:103A2000FF3FFEFFF7FFFFFFFFFFFFFF7FFFFFFFEF
:103A3000FFFFFFFE03FFFE03FF81FFFFFFFCFF9F71
:103A4000FCFFF7FFFFFFFFFFFFFF7FFFFFFFFFFF11
:103A5000FFFE03FFFE03FF81FFFFFFFCFFC7F1FF37
:103A6000F7FFFFFFFFFFFFFF7FFFFFFFFFFFFFFFEE
:103A700007FFFF07FF81FFFFFFFCFFE003FFF7FFEA
:103A8000FFFFFFFFFFFF7FFFFFFFFFFFFFFF8FFF36
:103A9000FF8FFF81FFFFFFFCFFF80FFFF7FFFFFF26
:103AA000FFFFFFFFFFFFFFFFFFFFFFFFFFFFFFFF26
:103AB000FF81FFFFFFFFFFFFFFFFF7FFFFFFFFFF9C
:103AC000FFFFFFFFFFFFFFFFFFFFFFFFFFFFFF8184
:103AD000FFFFFFFFFFFFFFFFF7FFFFFFFFFFFFFFFE
:103AE000FFFFFFFFFFFFFFFFFFFFFFFFFF81FFFF64
:103AF000FFFFFFFFFFFFF7FFFFFFFFFFFFFFFFFFDE
:103B0000FFFFFFFFFFFFFFFFFFFFFF81FFFFFFFF43
:103B1000FFFFFFFFF7FFFFFFFFFFFFFFFFFFFFFFBD
:103B2000FFFFFFFFFFFFFFFFFF81FFFFFFFFFFFF23
:103B3000FFFFF7FFFFFFFFFFFFFFFFFFFFFFFFFF9D
:103B4000FFFFFFFFFFFFFF81FFFFFFFFFFFFFFFF03
:103B5000F7FFFFFFFFFFFFFFFFFFFFFFFFFFFFFF7D
:103B6000FFFFFFFFFF81FFFFFFFFFFFFFFFFF7FFEB
:103B7000FFFFFFFFFFFFFFFFFFFFFFFFFFFFFFFF55
:103B8000FFFFFF81FFFFFFF83FFFFFFFF7FFFFFF92
:103B9000F83FFFFFFFFFFFFFFFFFFFFFFFFFFFFFFC
:103BA000FF81FFFFFFF3BFFFFFFFF7FFFFFFF3BF43
:103BB000FFFFFFFFFFFFFFFFFFFFFFFFFFFFFF8193
:103BC000FFFFFFF79FFFFFFFF7FFFFFFF79FFFFFDD
:103BD000FFFFFFFFFFFFFFFFFFFFFFFFFF81FFFF73
:103BE000FFF7DFFFFFFFF7FFFFFFF7DFFFFFFFFF3D
:103BF000FFFFFFFFFFFFFFFFFFFFFF81FFFFFFF75B
:103C00009FFFFFFFF7FFFFFFF79FFFFFFFFFFFFF94
:103C1000FFFFFFFFFFFFFFFFFF81FFFFFFF03FFF01
:103C2000FFFFF7FFFFFFF03FFFFFFFFFFFFFFFFF7B
:103C3000FFFFFFFFFFFFFF81FFFFFFFCFFFFFFFF15
:103C4000F7FFFFFFFCFFFFFFFFFFFFFFFFFFFFFF8F
:103C5000FFFFFFFFFF81FFFFFFFFFC01FFFFF7FFFB
:103C6000FFFFFFFC01FFFFFFFFFFFFFFFFFFFFFF65
:103C7000FFFFFF81FFFFFFFFE0003FFFF7FFFFFFB8
:103C8000FFE0003FFFFFFFFFFFFFFFFF8001FFFF9F
:103C9000FF81FFFFFFFF80000FFFF7FFFFFFFF80A7
:103CA000000FFFFFFFFFFFFFFFF800001FFFFF8176
:103CB000FFFFFFFF07FF07FFF7FFFFFFFF07FF07FC
:103CC000FFFFFFFFFFFFFFC0000003FFFF81FFFFBB
:103CD000FFFE3FFFC3FFF7FFFFFFFE3FFFC3FFFFF6
:103CE000FFFFFFFFFF00000000FFFF81FFFFFFFC61
:103CF0007FFFF1FFF7FFFFFFFC7FFFF1FFFFFFFFFB
:103D0000FFFFFE007FFE007FFF81FFFFFFF8FFFF48
:103D1000F8FFF7FFFFFFF8FFFFF8FFFFFFFFFFFFD0
:103D2000FC0FFFFFF03FFF81FFFFFFF9FFFFFCFFEC
:103D3000F7FFFFFFF9FFFFFCFFFFFFFFFFFFF83F6B
:103D4000FFFFFC1FFF81FFFFFFFBFFFFFCFFF7FFF3
:103D5000FFFFFBFFFFFCFFFFFFFFFFFFF0FFFFFF89
:103D6000FF0FFF81FFFFFFFBFFFFFE7FF7FFFFFF5E
:103D7000FBFFFFFE7FFFFFFFFFFFE3FFFFFFFFC72C
:103D8000FF81FFFFFFF3FFFFFE7FF7FFFFFFF3FF62
:103D9000FFFE7FFFFFFFFFFFE7FFFFFFFFE7FF8162
:103DA000FFFFFFF3FFFFFE7FF7FFFFFFF3FFFFFEC5
:103DB0007FFFFFFFFFFFC7FFFFFFFFE3FF81FFFF65
:103DC000FFF3FFFFFE7FF7FFFFFFF3FFFFFE7FFF25
:103DD000FFFFFFFFCFFFFFFFFFF3FF81FFFFFFF3B9
:103DE000FFFFFE7FF7FFFFFFF3FFFFFE7FFFFFFFF9
:103DF000FFFFCFFFFFFFFFF3FF81FFFFFFFBFFFF91
:103E0000FEFFF7FFFFFFFBFFFFFEFFFFFFFFFFFFD0
:103E1000CFFFFFFFFFF3FF81FFFFFFFBFFFFFCFF73
:103E2000F7FFFFFFFBFFFFFCFFFFFFFFFFFFCFFFE1
:103E3000FFFFFFF3FF81FFFFFFF9FFFFFCFFF7FF2D
:103E4000FFFFF9FFFFFCFFFFFFFFFFFFCFFFFFFFBB
:103E5000FFF3FF81FFFFFFFDFFFFF9FFF7FFFFFF0C
:103E6000FDFFFFF9FFFFFFFFFFFFE7FFFFFFFFE79A
:103E7000FF81FFFFFFFCFFFFFBFFF7FFFFFFFCFFE2
:103E8000FFFBFFFFFFFFFFFFE3FFFFFFFFC7FF8118
:103E9000FFFFFFFE7FFFF3FFF7FFFFFFFE7FFFF354
:103EA000FFFFFFFFFFFFF1FFFFFFFF8FFF81FFFF1E
:103EB000FFFF1FFFE7FFF7FFFFFFFF1FFFE7FFFF0A
:103EC000FFFFFFFFF07FFFFFFE0FFF81FFFFFFFC03
:103ED00001FFDFFFF7FFFFFFFC01FFDFFFFFFFFF39
:103EE000FFFFF81FFFFFF01FFF81FFFFFFFFFFFF36
:103EF000FFFFF7FFFFFFFFFFFFFFFFFFFFFFFFFFDA
:103F0000FE00FFFF007FFF81FFFFFFFFFFFFFFFFBE
:103F1000F7FFFFFFFFFFFFFFFFFFFFFFFFFFFF00B8
:103F2000000000FFFF81FFFFFFFFFFFFFFFFF7FF24
:103F3000FFFFFFFFFFFFFFFFFFFFFFFFFFC00000CE
:103F400003FFFF81FFFFFFFFFFFFFFFFF7FFFFFF03
:103F5000FFFFFFFFFFFFFFFFFFFFFFF800001FFF56
:103F6000FF81FFFFFFFFFFFFFFFFF7FFFFFFFFFFE7
:103F7000FFFFFFFFFFFFFFFFFFFF8001FFFFFF814C
:103F8000FFFFFFFFFFFFFFFFF7FFFFFFFFFFFFFF49
:103F9000FFFFFFFFFFFFFFFFFFFFFFFFFF81FFFFAF
:103FA000FFFFFFFFFFFFF7FFFFFFFFFFFFFFFFFF29
:103FB000FFFFFFFFFFFFFFFFFFFFFF81FFFFFFFF8F
:103FC000FFFFFFFFF7FFFFFFFFFFFFFFFFFFFFFF09
:103FD000FFFFFFFFFFFFFFFFFF81FFFFFFFFFFFF6F
:103FE000FFFFF7FFFFFFFFFFFFFFFFFFFFFFFFFFE9
:103FF000FFFFFFFFFFFFFF81FFFFFFFFFFFFFFFF4F
:10400000F7FFFFFFFFFFFFFFFFFFFFFFFFFFFFFFC8
:10401000FFFFFFFFFF81FFFFFFFFFFFFFFFFF7FF36
:10402000FFFFFFFFFFFFFFFFFFFFFFFFFFFFFFFFA0
:10403000FFFFFF81FFFFFFFFFFFFFFFFF7FFFFFF16
:10404000FFFFFFFFFFFFFFFFFFFFFFFFFFFFFFFF80
:10405000FF81FFFFFFFFFFFFFFFFF7FFFFFFFFFFF6
:10406000FFFFFFFFFFFFFFFFFFFFFFFFFFFFFF81DE
:10407000FFFFFFFFFFFFFFFFF7FFFFFFFFFFFFFF58
:10408000FFFFFFFFFFFFFFFFFFFFFFFFFF81FFFFBE
:10409000FFFFFFFFFFFFF7FFFFFFFFFFFFFFFFFF38
:1040A000FFFFFFFFFFFFFFFFFFFFFF81FFFFFFFF9E
:1040B000FFFFFFFFF7FFFFFFFFFFFFFFFFFFFFFF18
:1040C000FFFFFCFFFFFFFFF3FF81FFFFFFFFFFFF8D
:1040D000FFFFF7FFFFFFFFFFFFFFFFFFFFFFFFFFF8
:1040E000FCFFFFFFFFF3FF81FFFFFFFFFFFFFFFF6D
:1040F000F7FFFFFFFFFFFFFFFFFFFFFFFFFFFCFFDB
:10410000FFFFFFF3FF81FFFFFFFFFFFFFFFFF7FF51
:10411000FFFFFFFFFFFFFFFFFFFFFFFFFCFFFFFFB2
:10412000FFF3FF81FFFFFFFFFFFFFFFFF7FFFFFF31
:10413000FFFFFFFFFFFFFFFFFFFFFCFFFFFFFFF39E
:10414000FF81FFFFFFFFFFFFFFFFF7FFFFFFFFFF05
:10415000FFFFFFFFFFFFFFFFFCFFFFFFFFE3FF810C
:10416000FFFFFFFFFFFFFFFFF7FFFFFFFFFFFFFF67
:10417000FFFFFFFFFFFFF87FFFFFFFC3FF81FFFF90
:10418000FFFFFFFFFFFFF7FFFFFFFFFFFFFFFFFF47
:10419000FFFFFFFFF80000000003FF81FFFFFFFFAC
:1041A000FFFFFFFFF7FFFFFFFFFFFFFFFFFFFFFF27
:1041B000FFFFF00000000003FF81FFFFFFFFFFFF94
:1041C000FFFFF7FFFFFFFFFFFFFFFFFFFFFFFFFF07
:1041D000E00000000003FF81FFFFFFFFFFFFFFFF84
:1041E000F7FFFFFFFFFFFFFFFFFFFFFFFFFFC00025
:1041F00000000003FF81FFFFFFFFFFFFFFFFF7FF4E
:10420000FFFFFFFFFFFFFFFFFFFFFFFFFFFFFFFFBE
:10421000FFC3FF81FFFFFFFFFFFFFFFFF7FFFFFF70
:10422000FFFFFFFFFFFFFFFFFFFFFFFFFFFFFFE3BA
:10423000FF81FFFFFFFFFFFFFFFFF7FFFFFFFFFF14
:10424000FFFFFFFFFFFFFFFFFFFFFFFFFFF3FF8108
:10425000FFFFFFFFFFFFFFFFF7FFFFFFFFFFFFFF76
:10426000FFFFFFFFFFFFFFFFFFFFFFF3FF81FFFFE8
:10427000FFFFFFFFFFFFF7FFFFFFFFFFFFFFFFFF56
:10428000FFFFFFFFFFFFFFFFFFF3FF81FFFFFFEFD8
:10429000FDFFFFFFF7FFFFFFFFFFFFFFFFFFE00056
:1042A00001FFFFFFFFFFFFF3FF81FFFFFFEFFDFFB8
:1042B000FFFFF7FFFFFFDFFBFFFFFFFFDFFFFEFF5B
:1042C000FFFFFFFFFFF3FF81FFFFFFC001FFFFFFC5
:1042D000F7FFFFFFDFFBFFFFFFFFDFFFFEFFFFFF3B
:1042E000FFFFFFFFFF81FFFFFFFFFDFFFFFFF7FF66
:1042F000FFFF8003FFFFFFFFDFFFFEFFFFFFFFFF6A
:10430000FFFFFF81FFFFFFFFFDFFFFFFF7FFFFFF45
:10431000FFFBFFFFFFFFDC000EFFFFFFFFFFFFFFC4
:10432000FF81FFFFFFFFFFFFFFFFF7FFFFFFFFFB27
:10433000FFFFFFFFDFFFFEFFFFFFFFFFFFFFFF812C
:10434000FFFFFFFFFFFFFFFFF7FFFFFFFFFFFFFF85
:10435000FFFFDFFFFEFFFFFFFFFFFFFFFF81FFFF0C
:10436000FFFFFFFFFFFFF7FFFFFFFFFFFFFFFFFF65
:10437000DFFFFEFFFFFFFFFFFFFFFF81FFFFFFF8F3
:104380000FFFFFFFF7FFFFFFFFFFFFFFFFFFDC0057
:104390000EFFFFFFFFFFFFFFFF81FFFFFFE7F3FFC0
:1043A000FFFFF7FFFFFFF01FFFFFFFFFDC000EFF27
:1043B000FFFFFFFFFFFFFF81FFFFFFDFFDFFFFFFAD
:1043C000F7FFFFFFCFE7FFFFFFFFDFFFFEFFFFFF6E
:1043D000FFFFFFFFFF81FFFFFFDFFDFFFFFFF7FF95
:1043E000FFFFBFFBFFFFFFFFDFFFFEFFFFFFFFFF42
:1043F000FFFFFF81FFFFFFDFFDFFFFFFF7FFFFFF75
:10440000BFFBFFFFFFFFDFFFFEFFFFFFFFFFFFFF21
:10441000FF81FFFFFFDFFDFFFFFFF7FFFFFFBFFB98
:10442000FFFFFFFFDFFFFEFFFFFFFFFFFFFFFF813B
:10443000FFFFFFE7F3FFFFFFF7FFFFFFBFFBFFFFFC
:10444000FFFFDFFFFEFFFFFFFFFFFFFFFF81FFFF1B
:10445000FFF80FFFFFFFF7FFFFFFCFE7FFFFFFFFB3
:10446000DFFFFEFFFFFFFFFFFFFFFF81FFFFFFFFFB
:10447000FFFFFFFFF7FFFFFFF01FFFFFFFFFDFFF63
:10448000FEFFFFFFFFFFFFFFFF81FFFFFFFFFFFFBB
:10449000FFFFF7FFFFFFFFFFFFFFFFFFDFFFFEFF55
:1044A000FFFFFFFFFFFFFF81FFFFFFF80FFFFFFF91
:1044B000F7FFFFFFFFFFFFFFFFFFDFFFFEFFFFFF35
:1044C000FFFFFFFFFF81FFFFFFE7F3FFFFFFF7FFA6
:1044D000FFFFFFFFFFFFFFFFDFFFFEFFFFFFFFFF0D
:1044E000FFFFFF81FFFFFFDFFDFFFFFFF7FFFFFF84
:1044F000FFFFFFFFFFFFDFFFFEFFFFFFFFFFFFFFED
:10450000FF81FFFFFFDFFDFFFFFFF7FFFFFFDFFB87
:10451000FFFFFFFFDFFFFEFFFFFFFFFFFFFFFF814A
:10452000FFFFFFDFFDFFFFFFF7FFFFFFDFFBFFFFE9
:10453000FFFFDFFFFEFFFFFFFFFFFFFFFF81FFFF2A
:10454000FFDFFDFFFFFFF7FFFFFF8003FFFFFFFF20
:10455000DFFFFEFFFFFFFFFFFFFFFF81FFFFFFE722
:10456000F3FFFFFFF7FFFFFFFFFBFFFFFFFFDFFF93
:10457000FEFFFFFFFFFFFFFFFF81FFFFFFF80FFFC1
:10458000FFFFF7FFFFFFFFFBFFFFFFFFDFFFFEFF68
:10459000FFFFFFFFFFFFFF81FFFFFFFFFFFFFFFFA9
:1045A000F7FFFFFFFFFFFFFFFFFFDFFFFEFFFFFF44
:1045B000FFFFFFFFFF81FFFFFFFFFFFFFFFFF7FF91
:1045C000FFFFFFFFFFFFFFFFDFFFFEFFFFFFFFFF1C
:1045D000FFFFFF81FFFFFFFFFFFFFFFFF7FFFFFF71
:1045E000C7C7FFFFFFFFDFFFFEFFFFFFFFFFFFFF6C
:1045F000FF81FFFFFFEFFDFFFFFFF7FFFFFFBFFBA7
:10460000FFFFFFFFDFFFFEFFFFFFFFFFFFFFFF8159
:10461000FFFFFFEFFDFFFFFFF7FFFFFFBFFBFFFF08
:10462000FFFFDFFFFEFFFFFFFFFFFFFFFF81FFFF39
:10463000FFC001FFFFFFF7FFFFFFBEFBFFFFFFFF14
:10464000DFFFFEFFFFFFFFFFFFFFFF81FFFFFFFF19
:10465000FDFFFFFFF7FFFFFFBEFBFFFFFFFFE000D7
:1046600000FFFFFFFFFFFFFFFF81FFFFFFFFFDFFD9
:10467000FFFFF7FFFFFFDCFBFFFFFFFFFFBF3FFF79
:10468000FFFFFFFFFFFFFF81FFFFFFFFFFFFFFFFB8
:10469000F7FFFFFFE377FFFFFFFFFFBFBFFFFFFF56
:1046A000FFFFFFFFFF81FFFFFFFFFFFFFFFFF7FFA0
:1046B000FFFFFF8FFFFFFFFFFFBF3FFFFFFFFFFF7A
:1046C000FFFFFF81FFFFFFDFFDFFFFFFF7FFFFFFA2
:1046D000FFFFFFFFFFFFFF807FFFFFFFFFFFFFFFE9
:1046E000FF81FFFFFFC001FFFFFFF7FFFFFFBFFBE1
:1046F000FFFFFFFFFFFFFFFFFFFFFFFFFFFFFF8148
:10470000FFFFFFDF7DFFFFFFF7FFFFFF8003FFFFDE
:10471000FFFFFFFFFFFFFFFFFFFFFFFFFF81FFFF27
:10472000FFFF7FFFFFFFF7FFFFFFBEFBFFFFFFFF66
:10473000FFFFFFFFFFFFFFFFFFFFFF81FFFFFFFF07
:104740007FFFFFFFF7FFFFFFFEFFFFFFFFFFFFFF02
:10475000FFFFFFFFFFFFFFFFFF81FFFFFFFF7FFF67
:10476000FFFFF7FFFFFFFEFFFFFFFFFFFFFFFFFF62
:10477000FFFFFFFFFFFFFF81FFFFFFDF7DFFFFFF69
:10478000F7FFFFFFFEFFFFFFFFFFFFFFFFFFFFFF42
:10479000FFFFFFFFFF81FFFFFFC001FFFFFFF7FFEC
:1047A000FFFFBEFBFFFFFFFFFFFFFFFFFFFFFFFF5E
:1047B000FFFFFF81FFFFFFDFFDFFFFFFF7FFFFFFB1
:1047C0008003FFFFFFFFFFFFFFFFFFFFFFFFFFFF74
:1047D000FF81FFFFFFFFFFFFFFFFF7FFFFFFBFFBB3
:1047E000FFFFFFFFFFFFFFFFFFFFFFFFFFFFFF8157
:1047F000FFFFFFFDFF7FFFFFF7FFFFFFFFFFFFFF53
:10480000FFFFFFFE7FFFFFFFFFFFFFFFFF81FFFFB7
:10481000FFFC007FFFFFF7FFFFFFFBFEFFFFFFFF37
:10482000FFFD7FFFFFFFFFFFFFFFFF81FFFFFFFE99
:10483000FB7FFFFFF7FFFFFFF800FFFFFFFFFFF326
:104840007FFFFFFFFFFFFFFFFF81FFFFFFFDFDFF7A
:10485000FFFFF7FFFFFFFDF6FFFFFFFFFFEF7FFF0B
:10486000FFFFFFFFFFFFFF81FFFFFFFDFDFFFFFFDA
:10487000F7FFFFFFFBFBFFFFFFFFFF9F7BFFFFFF3C
:10488000FFFFFFFFFF81FFFFFFFDFDFFFFFFF7FFC2
:10489000FFFFFBFBFFFFFFFFFE7F7BFFFFFFFFFF35
:1048A000FFFFFF81FFFFFFFEFBFFFFFFF7FFFFFFA3
:1048B000FBFBFFFFFFFFFCFF7BFFFFFFFFFFFFFF97
:1048C000FF81FFFFFFFF07FFFFFFF7FFFFFFFDF780
:1048D000FFFFFFFFF00003FFFFFFFFFFFFFFFF8170
:1048E000FFFFFFFFFFFFFFFFF7FFFFFFFE0FFFFFD1
:1048F000FFFFF00003FFFFFFFFFFFFFFFF81FFFF50
:10490000FFFFFFFFFFFFF7FFFFFFFFFFFFFFFFFFBF
:10491000FFFF7BFFFFFFFFFFFFFFFF81FFFFFFFEAA
:1049200063FFFFFFF7FFFFFFFFFFFFFFFFFFFFFF3B
:104930007BFFFFFFFFFFFFFFFF81FFFFFFFDDDFFAD
:10494000FFFFF7FFFFFFFCC7FFFFFFFFFFFF7BFF3E
:10495000FFFFFFFFFFFFFF81FFFFFFFDDDFFFFFF09
:10496000F7FFFFFFFBBBFFFFFFFFFFFFFFFFFFFFA7
:10497000FFFFFFFFFF81FFFFFFFDDDFFFFFFF7FFF1
:10498000FFFFFBBBFFFFFFFFFFFFFFFFFFFFFFFF7F
:10499000FFFFFF81FFFFFFFDBDFFFFFFF7FFFFFFF1
:1049A000FBBBFFFFFFFFFFFFFFFFFFFFFFFFFFFF5F
:1049B000FF81FFFFFFFDBBFFFFFFF7FFFFFFFB7B5B
:1049C000FFFFFFFFFF807FFFFFFFFFFFFFFFFF8174
:1049D000FFFFFFFE01FFFFFFF7FFFFFFFB77FFFF7A
:1049E000FFFFFE001FFFFFFFFFFFFFFFFF81FFFF35
:1049F000FFFFFDFFFFFFF7FFFFFFFC03FFFFFFFFD0
:104A0000F87F8FFFFFFFFFFFFFFFFF81FFFFFFFF2B
:104A1000F9FFFFFFF7FFFFFFFFFBFFFFFFFFF9FFBE
:104A2000E7FFFFFFFFFFFFFFFF81FFFFFFFFFFFF2C
:104A3000FFFFF7FFFFFFFFF3FFFFFFFFF3FFF3FFB2
:104A4000FFFFFFFFFFFFFF81FFFFFFFFFFFFFFFFF4
:104A5000F7FFFFFFFFFFFFFFFFFFF7FFFBFFFFFF7A
:104A6000FFFFFFFFFF81FFFFFFFFFFFFFFFFF7FFDC
:104A7000FFFFFFFFFFFFFFFFF7FFFBFFFFFFFFFF52
:104A8000FFFFFF81FFFFFFFFFFFFFFFFF7FFFFFFBC
:104A9000FFFFFFFFFFFFF7FFFBFFFFFFFFFFFFFF32
:104AA000FF81FFFFFFFFFFFFFFFFF7FFFFFFFFFF9C
:104AB000FFFFFFFFFBFFF7FFFFFFFFFFFFFFFF8190
:104AC000FFFFFFFFFFFFFFFFF7FFFFFFFFFFFFFFFE
:104AD000FFFFF87F87FFFFFFFFFFFFFFFF81FFFF63
:104AE000FFFFFFFFFFFFF7FFFFFFFFFFFFFFFFFFDE
:104AF000FE001FFFFFFFFFFFFFFFFF81FFFFFFFF24
:104B0000FFFFFFFFF7FFFFFFFFFFFFFFFFFFFF803C
:104B10007FFFFFFFFFFFFFFFFFFFFFFFFFFFFFFF25
:104B2000FFFFF7FFFFFFFFFFFFFFFFFFFFFFFFFF9D
:104B3000FFFFFFFFFFFFFFFFFFFFFFFFFFFFFFFF85
:104B4000F7FFFFFFFFFFFFFFFFFFF81FFFFFFFFF64
:104B5000FFFFFFFFFFFFFFFFFFFFFFFFFFFFF7FF6D
:104B6000FFFFFFFFFFFFFFFFF7EFFFFFFFFFFFFF6D
:104B7000FFFFFFFFFFFFFFFFFFFFFFFFF7FFFFFF4D
:104B8000FFFFFFFFFFFFEFF7F3FFFFFFFFFFFFFF59
:104B9000FFFFFFFFFFFFFFFFFFFFF7FFFFFFFFFF2D
:104BA000FFFFFFFFEFF7CFFFFFFFFFFFFFFFFFFF5D
:104BB000FFFFFFFFFFFFFFFFF7FFFFFFFFFFFFFF0D
:104BC000FFFFF7E73FFFFFFFFFFFFFFFFFFFFFFFD5
:104BD000FFFFFFFFFFFFF7FFFFFFFFFFFFFFFFFFED
:104BE000F81CFFFFFFFFFFFFFFFFFFFFFFFFFFFFBF
:104BF000FFFFFFFFF7FFFFFFFFFFFFFFFFFFFFE3E9
:104C0000FFFFFFFFFFFFFFFFFFFFFFFFFFFFFFFFB4
:104C1000FFFFF7FFFFFFFFFFFFFFFFFFFF9C0FFFFF
:104C2000FFFFFFFFFFFFFFFFFFFFFFFFFFFFFFFF94
:104C3000F7FFFFFFFFFFFFFFFFFFFE7BF7FFFFFF19
:104C4000FFFFFFFFFFFFFFFFFFFFFFFFFFFFF7FF7C
:104C5000FFFFFFFFFFFFFFFFF9F7FBFFFFFFFFFF76
:104C6000FFFFFFFFFFFFFFFFFFFFFFFFF7FFFFFF5C
:104C7000FFFFFFFFFFFFE7F7FBFFFFFFFFFFFFFF68
:104C8000FFFFFFFFFFFFFFFFFFFFF7FFFFFFFFFF3C
:104C9000FFFFFFFFFFFBF3FFFFFFFFFFFFFFFFFF34
:104CA000FFFFFFFFFFFFFFFFF7FFFFFFFFFFFFFF1C
:104CB000FFFFFFFC0FFFFFFFFFFFFFFFFFFFFFFFF7
:104CC000FFFFFFFFFFFFF7FFFFFFFFFFFFFFFFFFFC
:104CD000FFFFFFFFFFFFFFFFFFFFFFFFFFFFFFFFE4
:104CE000FFFFFFFFF7FFFFFFFFFFFFFFFFFFFFFFDC
:104CF000FFFFFFFFFFFFFFFFFFFFFFFFFFFFFFFFC4
:104D0000FFFFF7FFFFFFFFFFFFFFFFFFFFFFFFFFBB
:104D1000FFFFFFFFFFFFFFFFFFFFFFFFFFFFFFFFA3
:104D2000F7FFFFFFFFFFFFFFFFFFFFFFFFFFFFFF9B
:104D3000FFFFFFFFFFFFFFFFFFFFFFFFFFFFF7FF8B
:104D4000FFFFFFFFFFFFFFFFFFFFFFFFFFFFFFFF73
:104D5000FFFFFFFFFFFFFFFFFFFFFFFFFFFFFFFF63
:104D6000FFFFFFFFFFFFFFFFFFFFFFFFFFFFFFFF53
:104D7000FFFFFFFFFFFFFFFFFFFFFFFFFFFFFFFF43
:104D8000FFFFFFFFFFFFFFFFFFFFFFFFFFFFFFFF33
:104D9000FFFFFFFFFFFFFFFFFFFFFFFFFFFFFFFF23
:104DA000FFFFFFFFFFFFFFFFFFFFFFFFFFFFFFFF13
:104DB000FFFFFFFFFFFFFFFFFFFFFFFFFFFFFFFF03
:104DC00000000000000000000000000000000000E3
:104DD00000000000000000000000000000000000D3
:104DE00000000000000000000000000000000000C3
:104DF00000000000000000000000000000000000B3
:104E000000000000000000000000000000000000A2
:104E10000000000000000000000000000000000092
:104E20000000000000000000000000000000000082
:104E30000000000000000000000000000000000072
:104E40000000000000000000000000000000000062
:104E50000000000000000000000000000000000052
:104E60000000000000000000000000000000000042
:104E70000000000000000000000000000000000032
:104E80000000000000000000000000000000000022
:104E900000000000000000000000007FC001FF00D3
:104EA0000000001FF0001C000000000000000000D7
:104EB0000000000000000000007FC001FF000000B3
:104EC000001FF0001C0000000000000000000000B7
:104ED000000000000000007FC001FF000000001F74
:104EE000F0001C00000000000000000000000000B6
:104EF000000000000380380E00E000E000E00E003B
:104F00001F80000000000000000000000000000002
:104F100000000380380E00E000E000E00E001F807B
:104F20000000000000000000000000000000000081
:104F30000380380E00E000E000E00E001F8000005B
:104F400000000000000000000000000000000380DE
:104F5000380E00E000E000E00E001C000000000041
:104F60000000000000000000000000000380380E78
:104F700000E000E000E00E001C0000000000000067
:104F8000000000000000000000000380380E00E078
:104F900000E000E00E001C00000000000000000027
:104FA00000000000000000000380380E00E0000058
:104FB00000E000001C0000000000000000000000F5
:104FC0000000000000000380380E00E0000000E058
:104FD00000001C00000000000000000000000000B5
:104FE000000000000380380E00E0000000E0000038
:104FF0001C00000000000000000000000000000095
:1050000000000380380E00E00000001C00001C00BF
:105010000000000000000000000000000000000090
:105020000380380E00E00000001C00001C0000009F
:1050300000000000000000000000000000000380ED
:10504000380E00E00000001C00001C000000000002
:105050000000000000000000000000000380380E87
:1050600000E00000000380001C00000000000000C1
:10507000000000000000000000000380380E00E087
:105080000000000380001C00000000000000000081
:1050900000000000000000000380380E00E0000067
:1050A000000380001C000000000000000000000061
:1050B0000000000000000380380E00E000E0000067
:1050C00070001C0000000000000000000000000054
:1050D000000000000380380E00E000E000007000D7
:1050E0001C000000000000000000000000000000A4
:1050F00000000380380E00E000E0000070001C009B
:10510000000000000000000000000000000000009F
:105110000380380E00E000E000000E001C000000DC
:1051200000000000000000000000000000000380FC
:10513000380E00E000E000000E001C00000000003F
:105140000000000000000000000000000380380E96
:1051500000E000E000000E001C0000000000000065
:1051600000000000000000000000007FC001FF0000
:10517000000000FFFE001C00000000000000000016
:105180000000000000000000007FC001FF000000E0
:1051900000FFFE001C0000000000000000000000F6
:1051A000000000000000007FC001FF00000000FFC1
:1051B000FE001C00000000000000000000000000D5
:1051C00000000000000000000000000000000000DF
:1051D00000000000000000000000000000000000CF
:1051E00000000000000000000000000000000000BF
:1051F00000000000000000000000000000000000AF
:10520000000000000000000000000000000000009E
:10521000000000000000000000000000000000008E
:10522000000000000000000000000000000000007E
:10523000000000000000000000000000000000006E
:10524000000000000000000000000000000000005E
:10525000000000000000000000000000000000004E
:10526000000000000000000000000000000000003E
:105270000000000000040000000000000004000026
:105280000000000000000000000800000000000016
:10529000000000060000000004300006003C000092
:1052A000000006000000000CFE00000000000000EE
:1052B0000004000000000430000400420C00000064
:1052C00004000000000912000000000000000004BB
:1052D0000000000004700004084108000000040001
:1052E00000000009100000000000000000040000A1
:1052F0000000045000040443080000000400000003
:105300000008100000000000019C38746D8E39C345
:1053100084D000743F40080039C385C7C6731CE8B9
:105320001000000000000350C48C9B31108C44908E
:10533000008C04200800108466242D4211181000EF
:1053400000000000003084848921088825900084B2
:10535000041008000888643420C2110810000000FE
:105360000000001082848920890825100084040828
:105370000800090F0410604211081000000000002E
:105380000010FE84893F8918271000840404080057
:105390000908C4138042110810000000000000102A
:1053A0000284890085182610008404040800060879
:1053B00024160042110810000000000000100684AE
:1053C0008901860824100084040208000608243499
:1053D00000421108100000000000001084848921A0
:1053E00002084410008448410800020C262420438F
:1053F0001108100000000000007C7878DB9E020796
:10540000803801CE387F7E00021BC1C3C1F0E39C0F
:105410007800000000000000000000000000000014
:10542000000000000000020000000000000000007A
:10543000000000000000000000000000000000006C
:105440000000000001C0000000000000000000009B
:10545000000000000000000000000000000000004C
:10546000000000000000000000000000000000003C
:10547000000000000000000000000000000000002C
:10548000000000000000000000000000000000001C
:10549000000000000000000000000000000000000C
:1054A00000000000000000000000000000000000FC
:1054B00000000000000000000000000000000000EC
:1054C00000000000000000000000000000000000DC
:1054D00000000000000000000000000000000000CC
:1054E00000000000000000000000000000000000BC
:1054F00000000000000000000000000000000000AC
:1055000000000000FFFFFFFFFFFFFFFFFFFFFFFFA7
:10551000FFFFFFFFFFFFFFFFFFFFFFFFFFFFFFFF9B
:10552000FFFFFFFFFFFFFFFFFFFFFFFFFFFFFFFF8B
:10553000FFFFFFFFFFFFFFFFFFFFFFFFFFFFFFFF7B
:10554000FFFFFFFFFFFFFFFFFFFFFFFFFFFFFFFF6B
:10555000FFFFFFFFFFFFFFFFFFFFFFFFFFFFFFFF5B
:10556000FFFFFFFFFFFFFFFFFFFFFFFFFFFFFFFF4B
:10557000FFFFFFFFFFFFFFFFFFFFFFFFFFFFFFFF3B
:10558000FFFFFFFFFFFFFFFFFFFFFFFFFFFFFFFF2B
:10559000FFFFFFFFFFFFFFFFFFFFFFFFFFFFFFFF1B
:1055A000FFFFFFFFFFFFFFFFFFFFFFFFFFFFFFFF0B
:1055B000FFFFFFFFC003FFFFFFFFFFFFFFFFFFFF36
:1055C000FFFFFFFFFFFFFFFFFFFFFFFFFFFFFFFFEB
:1055D000FFFF0000FFFFFFFFFFFFFFFFFFFFFFFFD9
:1055E000FFFFFFFFFFFFFFFFFFFFFFFFFFFFFFFFCB
:1055F0003000FFFFFFFFFFFFFFFFFFFFFFFFFFFF89
:10560000FFFFFFFFFFFFFFFFFFFFFFFFFFFF33CCA9
:105610007FFFFFFFFFFFFFFFFFFFFFFFFFFFFFFF1A
:10562000FFFFFFFFFFFFFFFFFFFFFFFE33CE7FFF08
:10563000FFFFFFFFFFFFFFFFFFFFFFFFFFFFFFFF7A
:10564000FFFFFFFFFFFFFFFFFFFE73CE7FFFFFFFA8
:10565000FF800000000000007FFFFFFFFFFFFFFF53
:10566000FFFFFFFFFFFFFFFC63C63FFFFFFFFE3FA3
:105670000000000000001FFFFFFFFFFFFFFFFFFF14
:10568000FFFFFFFFFFFCE3C73FFFFFFFF9FFE00065
:105690000000000007FFFFFFFFFFFFFFFFFFFFFF0E
:1056A000FFFFFFF8E7E71FFFFFFFF7FFF80000002D
:1056B000000003FFFFFFFFFFFFFFFFFFFFFFFFFFF4
:1056C000FFF8E7E79FFFFFFFEFFFFC00000000008F
:1056D00001FFFFFFFFFFFFFFFFFFFFFFFFFFFFF9DE
:1056E000E7E79FFFFFFFDFFFFE000000000000FF75
:1056F000FFFFFFFFFFFFFFFFFFFFFFFFFFF1E7E7F8
:105700008FFFFFFFBFFFFF0000000000007FFFFFD3
:10571000FFFFFFFFFFFFFFFFFFFFFFF3CFE3CFFF21
:10572000FFFFBFFFFF0000000000007FFFFFFFFF43
:10573000FFFFFFFFFFFFFFFFFFE3CFF3C7FFFFFF09
:105740007FFFFF8000000000003FFFFFFFFFFFFF23
:10575000FFFFFFFFFFFFFFE7C7F3E7FFFFFF7FFF4D
:10576000FF8000000000003FFFFFFFFFFFFFFFFF83
:10577000FFFFFFFFFFE30180C7FFFFFEFFFFFFC04A
:1057800000000000001FFFFFFFFFFFFFFFFFFFFF04
:10579000FFFFFFE0100007FFFFFEFFFFFFC000005C
:1057A0000000001FFFFFFFFFFFFFFFFFFFFFFFFFE6
:1057B000FFF03C3E0FFFFFFEFFFFFFC000000000B8
:1057C000001FFFFFFFFFFFFFFFFFFFFFFFFFFFFFC8
:1057D000FE7FFFFFFFFEFFFFFFC000000000001F75
:1057E000FFFFFFFFFFFFFFFFFFFFFFFFFFFFFE7F4A
:1057F000FFFFFFFEFFFFFFC000000000001FFFFFD4
:10580000FFFFFFFFFFFFFFFFFFFFFFFFFE7FFFFF29
:10581000FFFEFFFFFFC000000000001FFFFFFFFFB3
:10582000FFFFFFFFFFFFFFFFFFFFFE7FFFFFFFFE0A
:10583000FFFFFFC000000000001FFFFFFFFFFFFF92
:10584000FFFFFFFFFFFFFFFFFE7FFFFFFFFEFFFFEA
:10585000FFC000000000001FFFFFFFFFFFFFFFFF72
:10586000FFFFFFFFFFFFFE7FFFFFFFFF7FFFFF80C8
:1058700000000000003FFFFFFFFFFFFFFFFFFFFFF3
:10588000FFFFFFFFFE7FFFFFFFFF7FFFFF800000A6
:105890000000003FFFFFFFFFFFFFFFFFFFFFFFFFD5
:1058A000FFFFFE7FFFFFFFFFBFFFFF0000000000C4
:1058B000007FFFFFFFFFFFFFFFFFFFFFFFFFFFFF77
:1058C0008001FFFFFFFFBFFFFF0000000000007F1F
:1058D000FFFFFFFFFFFFFFFFFFFFFFFFFFFF0000D6
:1058E000FFFFFFFFDFFFFE000000000000FFFFFFE3
:1058F000FFFFFFFFFFFFFFFFFFFFFFFF1FF8FFFF9F
:10590000FFFFEFFFFC000000000001FFFFFFFFFFB3
:10591000FFFFFFFFFFFFFFFFFFFF1FF8FFFFFFFF7E
:10592000F7FFF8000000000003FFFFFFFFFFFFFF8D
:10593000FFFFFFFFFFFFFFFF8001FFFFFFFFF9FFFA
:10594000E0000000000007FFFFFFFFFFFFFFFFFF79
:10595000FFFFFFFFFFFFC003FFFFFFFFFE3F000051
:10596000000000001FFFFFFFFFFFFFFFFFFFFFFF23
:10597000FFFFFFFFFFFFFFFFFFFFFF8000000000B2
:1059800000007FFFFFFFFFFFFFFFFFFFFFFFFFFFA5
:10599000FFFFFFFFFFFFFFFFFFFFFFFFFFFFFFFF17
:1059A000FFFFFFFFFFFFFFFFFFFFFFFFFFFFFFFF07
:1059B000FFFFFFFFFFFFFFFFFFFFFFFFFFFFFFFFF7
:1059C000FFFFFFFFFFFFFFFFFFFFFFFFFFFFFFFFE7
:1059D000FFFFFFFFFFFFFFFFFFFFFFFFFFFFFFFFD7
:1059E000FFFFFFFFFFFFFFFFFFFFFFCFFFFE07FFF0
:1059F000FFFFE31E1FFFFFFFFFFFFFFFFFFFFFFF94
:105A0000FFFFFFFFFFFFFFFFFFDFFFFDEFFFFFFFD8
:105A1000F73DEFFFFFFFFFFFFFFFFFFFFFFFFFFF70
:105A2000FFFFFFFFFFFFFFDFFFFDEFFFFFFFF73D82
:105A3000EFFFFFFFFFFFFFFFFFFFFFFFFFFFFFFF86
:105A4000FFFFFFFFFFDFFFFDEFFFFFFFF6BBF7FFED
:105A5000FFFFFFFFFFFFFFFFFFFFFFFFFFFFE03C38
:105A60007F1F18D1F8FEEFFFFFFFF6BBF7FFFFFF28
:105A7000FFFFFFFFFFFFFFFFFFFFFFFFDB7BBEEF2F
:105A80006BCEF77E0FFFFFFFF6BBF7FFFFFFFFFFB9
:105A9000FFFFFFFFFFFFFFFFFFFFDB77DDF7F3DF18
:105AA0006FBDEFFFFFFFF5BBF7FFFFFFFFFFFFFF3E
:105AB000FFFFFFFFFFFFFFFFDB77DDF7FBDF603B53
:105AC000EFFFFFFFF5BBF7FFFFFFFFFFFFFFFFFF4C
:105AD000FFFFFFFFFFFFDB77DDF7FBDF7FBBEFFFA4
