:020000040800F2
:1000000090660020AD1400088503000887030008EF
:100010008B0300088F030008930300080000000012
:10002000000000000000000000000000970300082E
:1000300099030008000000009B0300089D030008CE
:10004000C7140008C7140008C7140008C714000824
:10005000C7140008C7140008C7140008C714000814
:10006000C7140008C7140008C7140008C714000804
:10007000C7140008C7140008C7140008C7140008F4
:10008000C7140008C7140008C7140008C7140008E4
:10009000C7140008C7140008C7140008C7140008D4
:1000A000C7140008C7140008C7140008C7140008C4
:1000B000C7140008C7140008C7140008C7140008B4
:1000C000C7140008C7140008C7140008C7140008A4
:1000D000C71400083F220008C7140008C71400080E
:1000E000C7140008C7140008C7140008C714000884
:1000F000C7140008C7140008C7140008C714000874
:10010000C7140008C7140008C7140008C714000863
:10011000C7140008C7140008C7140008C714000853
:10012000C7140008C7140008C7140008C714000843
:10013000DFF810D002F09EFA00480047490100089D
:10014000AFF30080906600200EB57C4C4FF00009A4
:1001500001F0B0FF4FF4E13002F025F800F010FAA2
:1001600077A002F0A9FA00F0DCFAFF2000234FF498
:10017000D072F0210090744800F07EFBFF2000F068
:10018000B7FBFF2000234FF4D072F02100906F489E
:1001900000F072FBFF2000F0ABFB00F0C2FA00F0B1
:1001A000CCFA00F0A5FA00F0AFFA69A002F084FAE8
:1001B0004FF47A7001F0BBFF4FF47A7001F0B7FF93
:1001C0004FF47A7001F0B3FF00F0ABFA63495E4878
:1001D00000F0DEFA00F08CFA00F096FA60A002F06F
:1001E0006BFA4FF47A7001F0A2FF4FF47A7001F0CD
:1001F0009EFF4FF47A7001F09AFF00F092FA57498F
:10020000514800F0C5FA00F073FA00F07DFA4FF49F
:100210007A7001F08CFF4FF47A7001F088FF4FF490
:100220007A7001F084FFFF2000F062FB464800F086
:10023000E5FB00F076FA45494E4800F0A9FA00F0D7
:1002400057FA00F061FA4FF47A7001F070FF4FF442
:100250007A7001F06CFF4FF47A7001F068FFFF20B4
:1002600000F046FB00F05DFA66E0384800F0C6FB9F
:1002700000204149C8234FF4B872CDE9001001466F
:10028000182001F0AFF801200021EB233722CDE93F
:100290000010C821142000F004FC002003461222A4
:1002A000DC2100904FF4BC7000F032FC264800F0D6
:1002B000A5FB00200090EB237322C8210190502061
:1002C00000F0EFFB012000231222DC21009040F21D
:1002D0004B1000F01DFC0020302102220423CDE948
:1002E000002102902246BE21942001F01FF82046F2
:1002F00002F0DCF80746214A214B02F017F80546C8
:1003000002F0E7F8044611490F4800F041FA00F006
:10031000EFF94FF47A7001F00AFF09F1010000F0E3
:10032000FF09B9F1050F07D105E000F006FA00F06A
:10033000DFF900F0E9F9F8E797E70000CDCC40419C
:100340004F4B0D0A0000000034000020F430002064
:10035000436C6561722D4F4B0D0A000008270008A1
:100360005245445F506963747572652D4F4B0D0A99
:1003700000000000C8570008888800087B14AE47BA
:10038000E17A843F704700BFFEE700BFFEE700BF91
:10039000FEE700BFFEE770477047704770470000F8
:1003A0000CB50020019000906C48006840F480304B
:1003B0006A49086000BF6948006800F40030009096
:1003C0000198401C0190009818B90198B0F5A06FF1
:1003D000F1D16248006800F4003010B101200090B3
:1003E00001E0002000900098012843D15C4800689B
:1003F00040F010005A4908600846006820F00300E9
:1004000008600846006840F00200086053484068F1
:10041000524948600846406848600846406840F4D1
:10042000806048600846406820F47C1048600846B8
:10043000406840F4E81048600846006840F080706A
:10044000086000BF4548006800F000700028F9D03F
:100450004248406820F00300404948600846406830
:1004600040F00200486000BF3C48406800F00C00CB
:100470000828F9D10CBD10B5FFF792FF10BD10B5DB
:100480003648006840F0010034490860084640687A
:1004900034490840314948600846006832490840FC
:1004A0002E4908600846006820F48020086008464D
:1004B000406820F4FE0048604FF41F008860FFF79A
:1004C000DAFF4FF000602949086010BD10B5002127
:1004D00000200022214B5B6803F00C0121B10429AC
:1004E00006D0082928D107E0214B224C236027E0C1
:1004F0001F4B204C236023E0184B5B6803F4701003
:10050000164B5B6803F48032022303EB904022B960
:10051000194B4343174C23600DE0104B5B6803F409
:10052000003323B1144B4343124C236003E0104BC0
:100530004343104C236003E00D4B0E4C236000BF7F
:1005400000BF064B5B68C3F303130C4CE15C094B23
:100550001B68CB40074C236010BD00000010024018
:10056000002002400000FFF8FFFFF6FE08ED00E06B
:1005700000127A000000002000093D000400002065
:1005800008B501212C2001F02DFB2020ADF8000042
:1005900010208DF8030003208DF8020069464248C0
:1005A00001F064F88020ADF8000010208DF8030001
:1005B00003208DF8020069463B4801F057F80420FB
:1005C000ADF8000010208DF8030003208DF8020024
:1005D0006946364801F04AF82020ADF800001020A6
:1005E0008DF8030003208DF802006946304801F0C1
:1005F0003DF81020ADF800008DF8030003208DF8C1
:1006000002006946284801F031F84020ADF80000AA
:1006100048208DF803006946254801F027F808BDF9
:1006200070B504461021204801F0CFF8002517E0EE
:1006300020211D4801F0C9F804F0800020B180217C
:10064000194801F0C0F803E08021174801F0BDF817
:100650002021154801F0B7F86006040E681CC5B2E9
:10066000082DE5DB1021104801F0ADF870BD10B584
:10067000044620210E4801F0A8F82046FFF7D0FFDD
:1006800020210B4801F09FF810BD10B50446202131
:10069000074801F098F82046FFF7C2FF20210448E0
:1006A00001F091F810BD0000000801400014014065
:1006B000000C014010B500BF40216D4801F069F801
:1006C0000028F9D010BD10B5642001F030FD0421E0
:1006D000684801F07AF8142001F029FD04216548EA
:1006E00001F071F8142001F022FDFFF7E3FF10BDC7
:1006F00010B50420FFF7BBFFFFF7DCFF1220FFF768
:10070000B6FFFFF7D7FF10BD10B50220FFF7AFFF10
:10071000FFF7D0FF0720FFF7AAFFA520FFF7B5FFDF
:1007200010BD10B5FFF7CFFFFFF7C4FF0020FFF7A4
:100730009EFF0B20FFF7A9FF10BD2DE9F0411E26FB
:100740004FF4D0771020FFF792FF00250AE0002435
:1007500004E0FF20FFF799FF601C84B2B442F8DB8D
:10076000681C85B2BD42F2DB1320FFF780FF002535
:100770000AE0002404E00020FFF787FF601C84B239
:10078000B442F8DB681C85B2BD42F2DBBDE8F08103
:100790002DE9F047074688461E264FF4D0791020F1
:1007A000FFF765FF00250CE0002406E005FB06418D
:1007B000785CFFF76AFF601C84B2B442F6DB681C09
:1007C00085B24D45F0DB1320FFF751FF00250FE008
:1007D000002409E005FB064118F80110C943C8B21E
:1007E000FFF753FF601C84B2B442F3DB681C85B290
:1007F0004D45EDDBBDE8F0872DE9F04780468946A1
:10080000002700241020FFF732FF002510E004EB42
:10081000840000EBC40008EB4010C65D641C1E2C75
:1008200001D37F1C0024F143C8B2FFF72EFF6D1CDB
:10083000B5F5435FEBD3002700241320FFF717FF24
:1008400000250FE004EB840000EBC40009EB40102E
:10085000C65D641C1E2C01D37F1C00243046FFF7AC
:1008600014FF6D1CB5F5435FECD3BDE8F0870000C5
:10087000000C0140001401402DE9F0410646069F9E
:100880000020F74C2060204606608781018142816C
:100890000C464FEAE17C01EB5C7C4FEAEC0CA1EBEF
:1008A000CC0CBCF1000F07D10D464FEAE57C05EBFF
:1008B0005C7C4FEAEC0C08E008464FEAE17C01EB77
:1008C0005C7C4FEAEC0C0CF1010CDFF89483A8F887
:1008D00010C040464282C3810BB1B42B03D1E04823
:1008E0008280C18002E0DE488180C280BDE8F08164
:1008F00010B50246002110E0002008E0D84C248A00
:1009000001FB0403D64C2468E254441CA0B2D44C2E
:10091000248A8442F2DC4C1CA1B2D14C648A8C4201
:10092000EADC10BD2DE9F04103461746CC4EF689AE
:100930003EB15A2E08D0B42E0DD0B6F5877F1CD10B
:1009400014E008461A461AE01846C54E7689761A0B
:10095000761EB2B213E0C24E3689761A761EB0B257
:10096000BF4E7689F61A761EB2B208E0BC4E3689C2
:10097000F61A761EB0B20A4601E0BDE8F08100BF6B
:1009800006464FEAE07C00EB5C7C4FEAEC0CDFF8BB
:10099000D082B8F8108002FB08C4B14E3668355DCD
:1009A000AFB906464FEAE07C00EB5C7C4FEAEC0C0A
:1009B000A0EBCC084FF0800C4CFA08FC25EA0C0C9C
:1009C000DFF89C82D8F8008008F804C014E00646DE
:1009D0004FEAE07C00EB5C7C4FEAEC0CA0EBCC082F
:1009E0004FF0800C4CFA08FC4CEA050CDFF87082E2
:1009F000D8F8008008F804C000BFBEE79849086036
:100A000070472DE9FF4F04460D4616461F46A14686
:100A1000AA46301B01D4301B00E0A01B8346781B84
:100A2000002801DC781B00E0E81B0390B44201DAE7
:100A3000012001E04FF0FF300290BD4201DA0120B9
:100A400001E04FF0FF30019003980BEB000800200D
:100A5000009000BF0098401CC0B20090514648462C
:100A60000D9AFFF75FFF4FEA48010398814208DBC8
:100A7000B14500D112E003988044029848441FFA1F
:100A800080F94FEA48005845E4DCBA4500D105E05A
:100A9000D844019850441FFA80FADBE700BFBDE854
:100AA000FF8F2DE9F84780460E4691461F46DDE947
:100AB000094ABAF1000F0DD0354608E02B464A46E8
:100AC000294640460094FFF79CFF681C85B2BD4252
:100AD000F4DB1BE033464A46314640460094FFF7BC
:100AE00090FF3B464246314640460094FFF789FF5F
:100AF00033464A46394648460094FFF782FF3B4654
:100B00004246394648460094FFF77BFFBDE8F88728
:100B10002DE9F04F05460E4692469B460024574667
:100B20000320A0EB4A090998002858D054E0A046B9
:100B300041E006EB080291B22A1990B25A46FFF73B
:100B4000F1FE06EB080291B22A1B90B25A46FFF75B
:100B5000E9FE321991B2A5EB080290B25A46FFF7AE
:100B6000E1FE321B91B2A5EB080290B25A46FFF7A4
:100B7000D9FEA6EB080291B22A1B90B25A46FFF7A3
:100B8000D1FEA6EB080291B22A1990B25A46FFF79D
:100B9000C9FE321B91B205EB080290B25A46FFF72C
:100BA000C1FE321991B205EB080290B25A46FFF726
:100BB000B9FE08F10108B845BBDDB9F1000F03DA51
:100BC000A000801D814405E0E01B80000A308144C4
:100BD000781E87B2601C84B2BC42A8DD4CE049E0BC
:100BE000F21991B22A1990B25A46FFF79BFEF219F8
:100BF00091B22A1B90B25A46FFF794FE321991B275
:100C0000EA1B90B25A46FFF78DFE321B91B2EA1BE7
:100C100090B25A46FFF786FEF21B91B22A1B90B2A1
:100C20005A46FFF77FFEF21B91B22A1990B25A463C
:100C3000FFF778FE321B91B2EA1990B25A46FFF7DD
:100C400071FE321991B2EA1990B25A46FFF76AFE64
:100C5000B9F1000F06DAA000801D814408E0000011
:100C6000B4610020E01B80000A308144781E87B206
:100C7000601C84B2BC42B3DDBDE8F08F2DE9FF4FAC
:100C800081B0064617461C4600962046E21704EB44
:100C90005272D2102146E31704EB5373DB10A4EB1E
:100CA000C3030BB1012300E000231A4462431FFA7F
:100CB00082FB4FF0050A002545E005EB8510F7495A
:100CC00011F81000397888423AD105EB8510F349C4
:100CD00001EB400040787978884231D14FF000082C
:100CE0002CE04FF0000921E005EB8510EB4901EB0A
:100CF0004000801C10F80800012101FA09F10840A9
:100D000020B130460E9A0299FFF70CFE701C86B295
:100D10000098301AA04205D1009E0298401C80B273
:100D2000029006E009F1010000F0FF09B9F1080F97
:100D3000DADB00BF08F1010000F0FF08D845D0DB86
:100D400000BF681C85B25545B7DB05B0BDE8F08F24
:100D50002DE9FF4F81B0064617461C4600962046F7
:100D6000E21704EB5272D2102146E31704EB5373DF
:100D7000DB10A4EBC3030BB1012300E000231A44F2
:100D800062431FFA82FB4FF0050A00254BE005EB9A
:100D9000850000EB4510C24911F8100039788842EF
:100DA0003ED105EB850000EB4510BD4901EB40004D
:100DB00040787978884233D14FF000082EE04FF028
:100DC000000923E005EB850000EB4510B44901EB79
:100DD0004000801C10F80800012101FA09F10840C8
:100DE00020B130460E9A0299FFF79CFD701C86B226
:100DF0000098301AA04205D1009E0298401C80B293
:100E0000029006E009F1010000F0FF09B9F1080FB6
:100E1000D8DB00BF08F1010000F0FF08D845CEDBA9
:100E200000BF681C85B25545B1DB05B0BDE8F08F49
:100E30002DE9FF4F81B0064617461C460096204616
:100E4000E21704EB5272D2102146E31704EB5373FE
:100E5000DB10A4EBC3030BB1012300E000231A4411
:100E600062431FFA82FB4FF0140A002545E005EBB0
:100E700005108C4911F81000397888423AD105EBF9
:100E80000510884901EB400040787978884231D1DB
:100E90004FF000082CE04FF0000921E005EB0510B1
:100EA000804901EB4000801C10F80800012101FA84
:100EB00009F1084020B130460E9A0299FFF732FD41
:100EC000701C86B20098301AA04205D1009E02988C
:100ED000401C80B2029006E009F1010000F0FF0919
:100EE000B9F1080FDADB00BF08F1010000F0FF08DC
:100EF000D845D0DB00BF681C85B25545B7DB05B0CF
:100F0000BDE8F08F2DE9FF4F81B0064617461C461D
:100F100000962046E21704EB5272D2102146E317E6
:100F200004EB5373DB10A4EBC3030BB1012300E00C
:100F300000231A4462431FFA82FB4FF0050A002582
:100F40004BE005EB850000EBC500574911F8100098
:100F5000397888423ED105EB850000EBC500524947
:100F600001EB400040787978884233D14FF0000897
:100F70002EE04FF0000923E005EB850000EBC500F3
:100F8000494901EB4000801C10F80800012101FADA
:100F900009F1084020B130460E9A0299FFF7C2FCD1
:100FA000701C86B20098301AA04205D1009E0298AB
:100FB000401C80B2029006E009F1010000F0FF0938
:100FC000B9F1080FD8DB00BF08F1010000F0FF08FD
:100FD000D845CEDB00BF681C85B25545B1DB05B0F6
:100FE000BDE8F08F2DE9F8410746884616461C46B5
:100FF000079D2CE00C2C07D123463246414638464B
:101000000095FFF77FFF1FE0102C07D123463246E3
:10101000414638460095FFF70BFF15E0182C07D125
:1010200023463246414638460095FFF791FE0BE0D5
:10103000202C07D123463246414638460095FFF71B
:101040001DFE01E0BDE8F881B61C381987B2307882
:101050000028CFD100BFF5E72DE9FE4F07468846AF
:1010600092461C460197CDF80080082C02D14FF023
:10107000060927E02046E31704EB5373DB102146F3
:101080004FEAE47C04EB5C7C4FEAEC0CA4EBCC0C68
:10109000BCF1000F0AD04FF0010C09E06C00010810
:1010A000FAFE000852FC0008D0FB00084FF0000CCC
:1010B0006344224604EBD27C4FEA6C0C03FB0CF336
:1010C0001FFA83F9AAF1200086B2002568E0082CF7
:1010D00007D106EB4600F04901EB400010F805B0DF
:1010E00027E00C2C07D106EB4600EC4901EB800011
:1010F00010F805B01DE0102C05D1E94800EB0610F2
:1011000010F805B015E0182C07D106EBC600E5492C
:1011100001EB800010F805B00BE0302C07D106EB96
:10112000C600E14901EB001010F805B001E0BDE890
:10113000FE8F002002901CE00BF0010028B1414618
:1011400038460C9AFFF7EEFB09E00C9808B901202D
:1011500000E00020024641463846FFF7E3FB4FEA35
:101160006B0B08F101001FFA80F80298401C80B256
:10117000029002980828DFDB781C87B2082C0BD07D
:1011800004EBD4714A100199791A8A4204D1019F63
:101190000098083080B20090DDF80080681C85B2AD
:1011A0004D4594DB00BFC2E72DE9F84106460F46E6
:1011B00014461D46DDF81C800EE0CDF80080227834
:1011C0002B4639463046FFF747FF641C284605EB9F
:1011D000D07106EB61018EB220780028EDD1BDE818
:1011E000F88110B50246012000E050430B1EA1F12A
:1011F0000104A1B2F9D110BD2DE9FF4F82B006461E
:1012000091461F46DDE90F4A4FF0000B082C01D133
:101210004FF0020B00252FE0781B401E81B20A2000
:10122000FFF7DFFFB9FBF0F00A21B0FBF1F201FBA1
:101230001208B8F1000F0ED104EBD4710BEB610171
:1012400001FB056188B223463022CDE900A4039951
:10125000FFF702FF0EE004EBD4710BEB610101FB21
:10126000056188B2234608F13002CDE900A4039954
:10127000FFF7F2FE681CC5B2BD42CDDB06B0BDE88B
:10128000F08F2DE9FF4F85B0064691461C46DDE9FB
:10129000138A129F404608EBD071C1F347010491B5
:1012A00039460A20FFF79DFF009001F0E6F8494615
:1012B000019001F009F8029001F0E4F880B2039087
:1012C00000252EE0601B401E81B20A20FFF789FF37
:1012D0000399B1FBF0F00A21B0FBF1F201FB120B14
:1012E000E01BA8420FD1E21BCDF800A0049902FB3D
:1012F000016188B243462E220699FFF7ADFE681CB5
:10130000C5B2601CC4B2CDF800A0049905FB016110
:1013100088B243460BF130020699FFF79DFE681C28
:10132000C5B2A542CEDB09B0BDE8F08F2DE9FF4F75
:1013300085B007468A461C46DDE91289484609EB16
:10134000D071C1F3470641460A20FFF74AFF0190DA
:1013500001F093F88346079900F0B6FF029001F080
:1013600091F880B20390002537E0601B401E81B2E7
:101370000A20FFF736FF0399B1FBF0F00A21B0FB1A
:10138000F1F201FB12000490A4EB0800A84217D16F
:101390001498B34606EBDB725210921EA4EB0803BE
:1013A00003FB06731A44009090B2AAF1060291B2B0
:1013B0004B463A22FFF750FE681CC5B2601CC4B20F
:1013C000149805FB0671009088B24B46049A30329F
:1013D0005146FFF741FE681CC5B2A542C5DB09B006
:1013E000BDE8F08F2DE9FF4F81B080460D461C46C9
:1013F000002000902046E21704EB5272D2102146E2
:10140000E31704EB5373DB10A4EBC3030BB101230D
:1014100000E000231A44039B5A431FFA82FB2F4625
:10142000002634E000990E9810F801A04FF0000952
:101430001CE00AF0800050B10F9808B9012000E0CC
:101440000020024629464046FFF76CFA04E0294690
:1014500040460F9AFFF766FA681C85B24FF6FF7098
:1014600000EA4A0A09F101001FFA80F9B9F1080FF0
:10147000DFDBE81BA04204D13D4608F101001FFA62
:1014800080F80098401C80B20090701C86B25E45C7
:10149000C8DB05B0BDE8F08F78AC0008A0AE00084E
:1014A00014B3000804B9000860C600080648804765
:1014B00006480047FEE7FEE7FEE7FEE7FEE7FEE739
:1014C000FEE7FEE7FEE7FEE77F04000831010008C3
:1014D00031490143314A1160704770B50021002342
:1014E0000F22C47804B32D4C246804F4E064C4F5DE
:1014F000E064210AC1F10403CA40447804FA03F10C
:101500008478144021430901254C0678A1550478BC
:1015100004F01F050124AC4005786D11AD0005F104
:10152000E025C5F8004109E0047804F01F05012416
:10153000AC401C4D0678761145F8264070BD1A4A1D
:101540000A400243154B1B1F1A60704739B1134AFA
:10155000121D12680243114B1B1D1A6006E00F4A50
:10156000121D126882430D4B1B1D1A607047042820
:1015700008D14FF0E021096941F004014FF0E02269
:10158000116107E04FF0E021096921F004014FF0FB
:10159000E0221161704700000000FA050CED00E048
:1015A00000E400E080E100E080FFFF1F10B504468A
:1015B000CC48844208D10121042000F02DFB0021F9
:1015C000042000F029FB46E0C748844208D10121ED
:1015D000082000F021FB0021082000F01DFB3AE06C
:1015E000C248844208D10121102000F015FB0021DF
:1015F000102000F011FB2EE0BD48844208D10121EB
:10160000202000F009FB0021202000F005FB22E053
:10161000B848844208D10121402000F0FDFA0021A1
:10162000402000F0F9FA16E0B348844208D10121C5
:10163000802000F0F1FA0021802000F0EDFA0AE0AD
:10164000AE48844207D10121801500F0E5FA00215F
:10165000A01500F0E1FA10BD10B50121084600F018
:10166000DBFA0021012000F0D7FA10BD2DE9F0418E
:10167000024600250026002000230024002791F8C0
:1016800003C00CF00F0591F803C00CF0100CBCF176
:10169000000F03D091F802C04CEA050591F800C094
:1016A000BCF1000F31D0146800202BE04FF0010C8A
:1016B0000CFA00F3B1F800C00CEA03069E4220D1F8
:1016C00083004FF00F0C0CFA03F7BC4305FA03FC40
:1016D0004CEA040491F803C0BCF1280F06D14FF086
:1016E000010C0CFA00FCC2F814C00AE091F803C027
:1016F000BCF1480F05D14FF0010C0CFA00FCC2F808
:1017000010C0401C0828D1D31460B1F800C0BCF14F
:10171000FF0F34DD546800202EE000F1080C4FF07C
:10172000010808FA0CF3B1F800C00CEA03069E4267
:1017300021D183004FF00F0C0CFA03F7BC4305FADC
:1017400003FC4CEA040491F803C0BCF1280F05D156
:1017500000F1080C08FA0CF8C2F8148091F803C0E4
:10176000BCF1480F07D100F1080C4FF0010808FA4E
:101770000CF8C2F81080401C0828CED35460BDE895
:10178000F0814FF6FF710180022181700421C17048
:1017900070470246002093680B400BB1012000E027
:1017A000002070470146886880B2704702460020DA
:1017B000D3680B400BB1012000E0002070470146C8
:1017C000C86880B2704701617047416170470AB1D3
:1017D000016100E041617047C16070474FF48032A1
:1017E0000A4382618161826182698269704702462F
:1017F0000020434B18684FF68073184040EA0210EF
:1018000008433F4B186070473E49C8617047F0B5C8
:101810000A46002300240021002500F00046B6F10E
:10182000004F02D1364EF16901E0354E7168C0F3C8
:10183000034583B200F44016B6F5401F08D121F0ED
:1018400070612F4E766826F070662D4F7E6012E034
:1018500000F48016B6F5801F06D1032606FA05F4BB
:10186000A14341F0706106E0460D360103FA06F629
:10187000B14341F0706122B1460D360103FA06F61C
:10188000314300F00046B6F1004F02D11C4EF16129
:1018900001E01B4E7160F0BD30B500228B071C0FBC
:1018A0000F2303FA04F2164B08338C1053F824303C
:1018B0009343134C08348D1044F8253023468C1084
:1018C00053F824308C07240F00FA04F423430C4C03
:1018D00008348D1044F8253030BD0A49DC310860E9
:1018E0007047000000080140000C0140001001405A
:1018F0000014014000180140001C0140002001407C
:101900000000014000002042DF48006840F0010074
:10191000DD49086008464068DC490840DA4948600B
:1019200008460068DA490840D74908600846006858
:1019300020F4802008600846406820F4FE004860DB
:101940004FF41F0088607047CF49096821F4803147
:10195000CD4A11601146096821F480211160B0F56B
:10196000803F03D0B0F5802F0ED106E0C64909684C
:1019700041F48031C44A116007E0C349096841F469
:10198000A021C14A116000E000BF00BF704710B540
:1019900001460022002300204A11012A02D1BA4C3C
:1019A000236806E0022A02D1B74C236A01E0B64C54
:1019B000636A01F01F02012494401C400CB1012015
:1019C00000E0002010BD38B5002000900024002564
:1019D00000BF3120FFF7DBFF05460098401C009058
:1019E0000098B0F5A06F01D0002DF2D03120FFF7A4
:1019F000CEFF08B1012400E00024204638BD014696
:101A00000020A14A106820F0F80040EAC1001060F0
:101A10007047A04908607047024600209A4B5868FA
:101A200020F47C1042EA01031843974B586070473A
:101A300098490866704701460020934A506820F094
:101A400003000843506070478F48406800F00C0066
:101A50007047014600208C4A506820F0F00008438F
:101A60005060704701460020874A506820F4E060CB
:101A700008435060704701460020834A506820F4B4
:101A8000605040EAC1005060704729B17E4A527AE6
:101A900002437D4B5A7204E07B4A527A82437A4B6E
:101AA0005A7270477B49D831086070470146002060
:101AB000754A506820F44040084350607047002148
:101AC000714A20321170704A82F82010012802D029
:101AD00004280AD104E001216B4A2032117005E08C
:101AE0000521694A2032117000E000BF00BF704735
:101AF0006949086070476449096A0143624A116292
:101B00007047654944390860704730B500210022AC
:101B1000002400235C4D6D6805F00C0121B10429FF
:101B200005D0082923D105E05C4D056022E05B4D1E
:101B300005601FE0544D6D6805F47012524D6D68DC
:101B400005F48034022505EB92421CB9544D5543EF
:101B500005600BE04C4D6D6805F400351DB1504D2E
:101B60005543056002E04D4D5543056002E04B4D85
:101B7000056000BF00BF444D6D6805F0F001090924
:101B8000484D6B5C0568DD4045603F4D6D6805F470
:101B9000E061090A434D6B5C4568DD4085603A4D64
:101BA0006D6805F46051C90A3E4D6B5C4568DD40C7
:101BB000C560354D6D6805F44041890B3A4D6B5C4D
:101BC000C568B5FBF3F5056130BD29B12E4A5269F0
:101BD00002432D4B5A6104E02B4A526982432A4B3F
:101BE0005A61704729B1284A92690243264B9A618B
:101BF00004E0254A92698243234B9A61704729B1D8
:101C0000214AD2690243204BDA6104E01E4AD269BC
:101C100082431D4BDA61704729B11B4AD2680243E7
:101C2000194BDA6004E0184AD2688243164BDA6036
:101C3000704729B1144A12690243134B1A6104E038
:101C4000114A12698243104B1A6170471249403998
:101C5000086070470F49C86470470B49C8717047E6
:101C60000948406A40F08070074948627047014661
:101C70000020054A92680A400AB1012000E00020D5
:101C80007047014988727047001002400000FFF859
:101C9000FFFFF6FE000042428004424200127A003A
:101CA00000093D00140000202400002010B5044667
:101CB000FB48844209D101218803FFF7ADFF0021D1
:101CC0004FF48040FFF7A8FF32E0F648844209D184
:101CD00001214804FFF7ADFF00214FF40030FFF76A
:101CE000A8FF25E0F048844209D101218804FFF7CC
:101CF000A0FF00214FF48020FFF79BFF18E0EB4886
:101D0000844209D10121C804FFF793FF00214FF459
:101D10000020FFF78EFF0BE0E548844208D1012147
:101D20000805FFF786FF00214FF48010FFF781FFC1
:101D300010BD2DE9F04786B005460E460024A246A8
:101D400000BFA1460027B08900B100BF2F462C8AF2
:101D50004CF6FF700440F08804432C82AC894EF6A8
:101D6000F3100440B0883189084371890843044363
:101D7000AC81AC8A4FF6FF400440B0890443AC828A
:101D800001A8FFF7C2FEC648874202D1DDF810A0C5
:101D900001E0DDF80CA0A88900F4004040B10AEB96
:101DA000CA0000EB0A1031684900B0FBF1F807E007
:101DB0000AEBCA0000EB0A1031688900B0FBF1F8A9
:101DC0006420B8FBF0F004012009642101FB1089B4
:101DD000A88900F4004040B1322000EBC900B0FBFC
:101DE000F1F000F00700044308E0322000EB091096
:101DF0006421B0FBF1F000F00F0004432C8106B029
:101E0000BDE8F0874FF41651016000218180C18048
:101E100001810C21418100218181704710B502466A
:101E20000020108A4FF2FF0318400B884C88234390
:101E30008C882343CC8823431843108210BD002193
:101E4000018041808180C180704721B1828942F444
:101E50000052828104E082894DF6FF731A4082812C
:101E60007047F0B50346002400260025002040F608
:101E70006A17B94200D100BF1846C1F3421401F0FD
:101E80001F06012707FA06F5012C01D10C3004E0EA
:101E9000022C01D1103000E014301AB107682F4332
:101EA000076002E00768AF430760F0BD1AB1838A9C
:101EB0000B43838202E0838A8B4383827047028ACA
:101EC0004FF6F0731A400282028A0A430282704778
:101ED00082894FF2FF731A40828182890A4382818C
:101EE000704721B1828942F00202828104E0828936
:101EF0004FF6FD731A4082817047028A4FF6DF73F6
:101F00001A400282028A0A430282704721B1028A81
:101F100042F48042028204E0028A4BF6FF731A40C8
:101F200002827047C1F308028280704701468888A8
:101F3000C0F308007047818941F001018181704739
:101F4000028BD2B20283028B42EA012202837047E3
:101F5000028B02F47F420283028B0A4302837047A2
:101F600021B1828A42F02002828204E0828A4FF606
:101F7000DF731A408282704721B1828A42F01002D8
:101F8000828204E0828A4FF6EF731A4082827047A1
:101F900021B1828A42F00802828204E0828A4FF6EE
:101FA000F7731A408282704721B1828942F400425D
:101FB000828103E08289C2F30E028281704721B1DF
:101FC000828A42F40062828204E0828A4FF2FF73C6
:101FD0001A4082827047828A4FF6FB731A408282CF
:101FE000828A0A438282704721B1828A42F00202C9
:101FF000828204E0828A4FF6FD731A408282704723
:1020000002460020B1F5007F00D100BF13880B40CD
:102010000BB1012000E00020704701F40072B2F51E
:10202000007F00D100BFCA430280704770B50246EE
:10203000002400230025002040F66A16B14200D19A
:1020400000BFC1F3421501F01F03012606FA03F396
:10205000012D02D19689334006E0022D02D1168A65
:10206000334001E0968A33400C12012606FA04F44C
:102070001688344013B10CB1012000E0002070BD7F
:1020800010B50022002340F66A14A14200D100BF1F
:102090000A1201249440A3B2DC43048010BD000066
:1020A000003801400044004000480040004C00401F
:1020B0000050004010B56FF00400FFF758FA2E48AA
:1020C00000682E49B0FBF1F02D49087008460078F1
:1020D00000EB4001C1EBC0104FF6FF7101EAC000F8
:1020E0002849088010BD0146254A12784A434FF01E
:1020F000E0235A6100229A611A46126942F00102F5
:102100001A6100BF4FF0E022106900F001021AB11D
:1021100000F48032002AF5D04FF0E022126922F05C
:1021200001024FF0E0231A6100229A6170470146D4
:10213000144A12884A434FF0E0235A6100229A6100
:102140001A46126942F001021A6100BF4FF0E02204
:10215000106900F001021AB100F48032002AF5D0B3
:102160004FF0E022126922F001024FF0E0231A61E1
:1021700000229A61704700000000002000127A00DF
:10218000280000202A000020014600BF704700BF41
:10219000494A128802F04002002AF9D0C2B2464BE6
:1021A0001B1D1A80704710B586B00446012144F209
:1021B0000400FFF717FD4FF40070ADF81400032082
:1021C0008DF8160018208DF8170005A93B48FFF779
:1021D0004DFA4FF48060ADF8140004208DF817001C
:1021E00005A93648FFF742FA25208DF800000320A4
:1021F0008DF801008DF8020001208DF8030068467B
:10220000FFF76BF901940020ADF80800ADF80A0063
:10221000ADF80C00ADF810000C20ADF80E0001A9CF
:102220002548FFF786FD012240F225512248FFF79D
:1022300018FE01212048FFF708FE06B010BD10B5BA
:1022400040F225511C48FFF7F1FE10B31A48FFF782
:102250006DFEC4B21A48008800F40040C8B918489E
:10226000008800F4804060B10A2C03D0002014499B
:10227000088020E01248008840F40040104908809F
:1022800019E00D2C06D10E48008840F480400C491E
:10229000088010E00A480088C0F30D0009490C547A
:1022A00007480088401C0649088008460088C7285F
:1022B00001DD0020088010BD003801400008014009
:1022C00030000020C861002080EA010210B502F051
:1022D0000043400022D04A001FD0010E01EB1261E2
:1022E000C0F35600C2F3560240F4000042F400026C
:1022F000A0FB022000047F39140400D0401C50EAE7
:10230000124001D44000491EC2B20C0604EBD010AA
:10231000401C4008802A02D003E0002010BD20F0BD
:102320000100002900DA0020184310BD2DE9FE4FFE
:10233000804681EA0300C00F0C46009021F0004166
:1023400023F00045B8EB0200A94105D240462146E2
:1023500090461C460B46024623F00040104347D0EF
:10236000270DC7F30A00C3F30A510290401A0190E7
:1023700040286BDAC3F3130040F4801B00989246A8
:1023800020B10023D2EB030A63EB0B0B01985946F3
:10239000C0F14002504600F0B8F806460D465046DF
:1023A0005946019A00F0C0F810EB08006141002482
:1023B00087EA115284EAE7731A4340D0009A62B365
:1023C000019A012A4FEA075215DC001B61EB02015A
:1023D0004FF0004202EA0752CDE90042001C41F5ED
:1023E000801132462B4600F0F7F803B0BDE8F08FBD
:1023F00040462146F9E7001B61EB0201001C41F554
:10240000801300185B412018A2F5001747EB030169
:1024100040EAD570B6196D4111E06D084FEA3606F5
:1024200045EAC0754FEA0752001B61EB0201001C30
:1024300041F5801149084FEA3000001951413246F8
:102440002B4603B0BDE8F04F00F0B7B8009801226A
:1024500040000023D0EB020263EBE07300982146BA
:102460004FEAE074B8EB000061EB0401E9E783F0A8
:1024700000435BE781F0004158E7962300221146B4
:1024800000F06DB820F00040C10DC0F3160040F41C
:1024900000007F2901DA00207047962903DCC1F192
:1024A0009601C840704796398840704700F0004256
:1024B00030F000400AD0C10D01F56071C0F3160084
:1024C00042EA0151C208400711437047002001460B
:1024D000704701F0004330B421F0004150EA01029E
:1024E00006D00A0DA2F56072C1F31301002A02DCC6
:1024F00030BC00207047440F44EAC104C100E0181A
:1025000030BC00EBC25000F021B8202A04DB203A96
:1025100000FA02F1002070479140C2F1200320FA36
:1025200003F3194390407047202A06DBCB17203A6B
:1025300041FA02F043EAE07306E041FA02F3D040C8
:10254000C2F1200291400843194670470029A8BFF4
:102550007047401C490008BF20F00100704710B4CC
:10256000B0FA80FC00FA0CF050EA010404BF10BC81
:10257000704749B1CCF1200421FA04F411FA0CF1AE
:1025800018BF012121430843A3EB0C01CB1D4FEAE7
:1025900000614FEA102042BF002010BC704700EBE2
:1025A000C35010440029A4BF10BC7047401C490010
:1025B00008BF20F0010010BC704710B5141E73F165
:1025C000000408DA401C41F1000192185B411A43F3
:1025D00001D120F0010010BD2DE9F04D92469B463F
:1025E00011B1B1FA81F202E0B0FA80F220329046E5
:1025F000FFF78BFF04460F4640EA0A0041EA0B0151
:1026000053465A46084313D0114653EA010019D0E5
:10261000C8F14002504600F03FF805460E465046CD
:1026200059464246FFF771FF084305D0012004E0F8
:1026300020463946BDE8F08D0020054346EAE076A5
:102640002C4337430A986305E40AA0EB08000022F4
:10265000FD0A44EA47540A3002D500200146E9E762
:10266000010510196941DDE9084500196941BDE816
:10267000F04DA2E7064C074D06E0E06840F001038C
:1026800094E8070098471034AC42F6D3FDF754FDA8
:10269000F802010818030108202A04DB203A21FA75
:1026A00002F00021704721FA02F3D040C2F120026B
:1026B0009140084319467047014A024900F013B897
:1026C0008F2100082C00002002E008C8121F08C15A
:1026D000002AFAD170477047002001E001C1121FA3
:1026E000002AFBD170472DE9F04116460F460446FB
:1026F000002503E03946B047641C6D1C2078002893
:10270000F8D12846BDE8F081FFFFFFFFFFFFFFFF84
:10271000FFFFFFFFFFFFFFFFFFFFFFFFFFFFFFFFC9
:10272000FFFFFFFFFFFFFFFFFFFFFFFFFFFFFFFFB9
:10273000FFFFFFFFFFFFFFFFFFFFFFFFFFFFFFFFA9
:10274000FFFFFFFFFFFFFFFFFFFFFFFFFFFFFFFF99
:10275000FFFFFFFFFFFFFFFFFFFFFFFFFFFFFFFF89
:10276000FFFFFFFFFFFFFFFFFFFFFFFFFFFFFFFF79
:10277000FFFFFFFFFFFFFFFFFFFFFFFFFFFFFFFF69
:10278000FFFFFFFFFFFFFFFFFFFFFFFFFFFFFFFF59
:10279000FFFFFFFFF7FFFFFFFFFFFFFFFFFFFFFF51
:1027A000FFFFFFFFFFFFFFFFFFFFFFFFFFFFFFFF39
:1027B000FFFFF7FFFFFFFFFFFFFFFFFFFFFFFFFF31
:1027C000FFFFFFFFFFFFFFFFFFFFFFFFFFFFFFFF19
:1027D000F7FFFFFFFFFFFFFFFFFFFC3FE7FFFFFFEC
:1027E000FFFFFFFFFFFFFFFFFFFFFFFFFFFFF7FF01
:1027F000FFFFFFFFFFFFFFFFFB3FC7FFFFFFFFFFE5
:10280000FFFFFFFFFFFFFFFFFFFFFFFFF7FFFFFFE0
:10281000FFFFFFFFFFFFFBFFB7FFFFFFFFFFFFFF14
:10282000FFFFFFFFFFFFFFFFFFFFF7FFFFFFFFFFC0
:10283000FFFFFFFFF7FF77FFFFFFFFFFFFFFFFFF38
:10284000FFFFFFFFFFFFFFFFF7FFFFFFFFFFFFFFA0
:10285000FFFFF7FEF7FFFFFFFFFFFFFFFFFFFFFF99
:10286000FFFFFFFFFFFFF7FFFFFFFFFFFFFFFFFF80
:10287000F7FDF7FFFFFFFFFFFFFFFFFFFFFFFFFF7A
:10288000FFFFFFFFF7FFFFFFFFFFFFFFFFFFF7F374
:10289000F7FFFFFFFFFFFFFFFFFFFFFFFFFFFFFF50
:1028A000FFFFF7FFFFFFFFFFFFFFFFFFF3E7F7FF6C
:1028B000FFFFFFFFFFFFFFFFFFFFFFFFFFFFFFFF28
:1028C000F7FFFFFFFFFFFFFFFFFFF80FE7FFFFFF2F
:1028D000FFFFFFFFFFFFFFFFFFFFFFFFFFFFF7FF10
:1028E000FFFFFFFFFFFFFFFFFC3F8FFFFFFFFFFF2B
:1028F000FFFFFFFFFFFFFFFFFFFFFFFFF7FFFFFFF0
:10290000FFFFFFFFFFFFFFFFFFFFFFFFFFFFFFFFD7
:10291000FFFFFFFFFFFFFFFFFFFFF7FFFFFFFFFFCF
:10292000FFFFFFFFFFFFFFFFFFFFFFFFFFFFFFFFB7
:10293000FFFFFFFFFFFFFFFFF7FFFFFFFFFFFFFFAF
:10294000FFFFFFFFFFFFFFFFFFFFFFFFFFFFFFFF97
:10295000FFFFFFFFFFFFF7FFFFFFFFFFFFFFFFFF8F
:10296000FF80FFFFFFFFFFFFFFFFFFFFFFFFFFFFF6
:10297000FFFFFFFFF7FFFFFFFFFFFFFFFFFFFC0071
:102980001FFFFFFFFFFFFFFFFFFFFFFFFFFFFFFF37
:10299000FFFFF7FFFFFFFFFFFFFFFFFFF8FF8FFFC6
:1029A000FFFFFFFFFFFFFF81FFFFFFFFFFFFFFFFB5
:1029B000F7FFFFFFFFFFFFFFFFFFF3FFE7FFFFFF53
:1029C000FFFFFFFFFF81FFFFFFFFFFFFFFFFF7FF9D
:1029D000FFFFFFFFFFFFFFFFF7FFF7FFFFFFFFFF17
:1029E000FFFFFF81FFFFFFFFFFFFFFFFF7FFFFFF7D
:1029F000FFFFFFFFFFFFF7FFF7FFFFFFFFFFFFFFF7
:102A0000FF81FFFFFFFFFFFFFFFFF7FFFFFFFFFF5C
:102A1000FFFFFFFFF7FFF7FFFFFFFFFFFFFFFF8154
:102A2000FF1FFFFFFFFFFFFFF7FE3FFFFFFFFFFF5F
:102A3000FFFFF3FFE7FFFFFFFFFFFFFFFF81FF7FC8
:102A4000FFFFFFFFFFFFF7FEFFFFFFFFFFFFFFFF9F
:102A5000F8FF8FFFFFFFFFFFFFFFFF81FF7FDFFF1B
:102A6000FFFFFFFFF7FEFFBFFFFFFFFFFFFFFC00C1
:102A70001FFFFFFFFFFFFFFFFF81FF001FFFFFFFA3
:102A8000FFFFF7FE003FFFFFFFFFFFFFFF00FFFF1D
:102A9000FFFFFFFFFFFFFF81FF7FDFFFFFFFFFFF64
:102AA000F7FEFFBFFFFFFFFFFFFFFFFFFFFFFFFF7F
:102AB000FFFFFFFFFF81FF7FFFFFFFFFFFFFF7FE2D
:102AC000FFFFFFFFFFFFFFFFFC3FE7FFFFFFFFFFF1
:102AD000FFFFFF81FF1FFFFFFFFFFFFFF7FE3FFF2D
:102AE000FFFFFFFFFFFFFB3FC7FFFFFFFFFFFFFFF2
:102AF000FF81FFFFFFFFFFFFFFFFF7FFFFFFFFFF6C
:102B0000FFFFFFFFFBFFB7FFFFFFFFFFFFFFFF819F
:102B1000FFFFFFFFFFFFFFFFF7FFFFFFFFFFFFFFCD
:102B2000FFFFF7FF77FFFFFFFFFFFFFFFF81FFC002
:102B30007FFFFFFFFFFFF7FF80FFFFFFFFFFFFFFAC
:102B4000F7FEF7FFFFFFFFFFFFFFFF81FFBFBFFFA4
:102B5000FFFFFFFFF7FF7F7FFFFFFFFFFFFFF7FD97
:102B6000F7FFFFFFFFFFFFFFFF81FF7FDFFFFFFF9B
:102B7000FFFFF7FEFFBFFFFFFFFFFFFFF7F3F7FFCA
:102B8000FFFFFFFFFFFFFF81FF7FDFFFFFFFFFFF73
:102B9000F7FEFFBFFFFFFFFFFFFFF3E7F7FFFFFFBA
:102BA000FFFFFFFFFF81FF7FDFFFFFFFFFFFF7FE5C
:102BB000FFBFFFFFFFFFFFFFF80FE7FFFFFFFFFF74
:102BC000FFFFFF81FFBFBFFFFFFFFFFFF7FF7F7F1B
:102BD000FFFFFFFFFFFFFC3F8FFFFFFFFFFFFFFF38
:102BE000FF81FFC07FFFFFFFFFFFF7FF80FFFFFFB9
:102BF000FFFFFFFFFFFFFFFFFFFFFFFFFFFFFF8163
:102C0000FFFFFFFFFFFFFFFFF7FFFFFFFFFFFFFFDC
:102C1000FFFFFFFFFFFFFFFFFFFFFFFFFF81FF7FC2
:102C2000DFFFFFFFFFFFF7FEFFBFFFFFFFFFFFFF1D
:102C3000FFFFFFFFFFFFFFFFFFFFFF81FF001FFF01
:102C4000FFFFFFFFF7FE003FFFFFFFFFFFFFFC7FDF
:102C50001FFFFFFFFFFFFFFFFF81FF7FDFFFFFFF82
:102C6000FFFFF7FE1FBFFFFFFFFFFFFFF87F0FFF14
:102C7000FFFFFFFFFFFFFF81FF7FDFFFFFFFFFFF82
:102C8000F7FFE3FFFFFFFFFFFFFFF7FFF7FFFFFF88
:102C9000FFFFFFFFFF81FF7FDFFFFFFFFFFFF7FF6A
:102CA000FC3FFFFFFFFFFFFFF7FFF7FFFFFFFFFF07
:102CB000FFFFFF81FF7FDFFFFFFFFFFFF7FFE3FF66
:102CC000FFFFFFFFFFFFF7F7F7FFFFFFFFFFFFFF2C
:102CD000FF81FFBFBFFFFFFFFFFFF7FE1FBFFFFF2B
:102CE000FFFFFFFFF7F7F7FFFFFFFFFFFFFFFF818A
:102CF000FFC07FFFFFFFFFFFF7FE003FFFFFFFFF6B
:102D0000FFFFF3E7F7FFFFFFFFFFFFFFFF81FFFF7D
:102D1000FFFFFFFFFFFFF7FEFFBFFFFFFFFFFFFF0C
:102D2000F80BEFFFFFFFFFFFFFFFFF81FFFFDFFF5C
:102D3000FFFFFFFFF7FFFFFFFFFFFFFFFFFFFC3875
:102D40000FFFFFFFFFFFFFFFFF81FFFF1FFFFFFFE1
:102D5000FFFFF7FF80FFFFFFFFFFFFFFFFFE1FFFEB
:102D6000FFFFFFFFFFFFFF81FFF8DFFFFFFFFFFF18
:102D7000F7FF7F7FFFFFFFFFFFFFFFFFFFFFFFFF6B
:102D8000FFFFFFFFFF81FFC5FFFFFFFFFFFFF7FE14
:102D9000FFBFFFFFFFFFFFFFFFFFFFFFFFFFFFFF83
:102DA000FFFFFF81FF3DFFFFFFFFFFFFF7FEFFBFBC
:102DB000FFFFFFFFFFFFFFFFFDFFFFFFFFFFFFFF25
:102DC000FF81FFC5FFFFFFFFFFFFF7FEFFBFFFFF14
:102DD000FFFFFFFFFFFFF3FFFFFFFFFFFFFFFF818D
:102DE000FFF8DFFFFFFFFFFFF7FF7F7FFFFFFFFF22
:102DF000FFFFFFFF8FFFFFFFFFFFFFFFFF81FFFFD1
:102E00001FFFFFFFFFFFF7FF80FFFFFFFFFFFFFF39
:102E1000FFFE3FFFFFFFFFFFFFFFFF81FFFFDFFF21
:102E2000FFFFFFFFF7FFFFFFFFFFFFFFFFFFFFF8C1
:102E3000FFFFFFFFFFFFFFFFFF81FFFFFFFFFFFF20
:102E4000FFFFF7FEFFBFFFFFFFFFFFFFFFE3FFFFF7
:102E5000FFFFFFFFFFFFFF81FF7FFFFFFFFFFFFF80
:102E6000F7FE003FFFFFFFFFFFFFFF8FFFFFFFFFAA
:102E7000FFFFFFFFFF81FF1FFFFFFFFFFFFFF7FEC9
:102E8000EFBFFFFFFFFFFFFFFE3FFFFFFFFFFFFF63
:102E9000FFFFFF81FF67DFFFFFFFFFFFF7FEEFFF91
:102EA000FFFFFFFFFFFFF8FFFFFFFFFFFFFFFFFF39
:102EB000FF81FFF81FFFFFFFFFFFF7FEE3FFFFFFAC
:102EC000FFFFFFFFE7FFFFFFFFFFFFFFFFFFFF81A8
:102ED000FF67DFFFFFFFFFFFF7FEECFFFFFFFFFFD6
:102EE000FFFFDFFFFFFFFFFFFFFFFFFFFF81FF1F70
:102EF000FFFFFFFFFFFFF7FF1F3FFFFFFFFFFFFF8A
:102F0000FFFFFFFFFFFFFFFFFFFFFF81FF7FFFFFCF
:102F1000FFFFFFFFF7FFFFBFFFFFFFFFFFFFFFFF09
:102F2000FFFFFFFFFFFFFFFFFF81FFFFFFFFFFFF2F
:102F3000FFFFF7FFFFFFFFFFFFFFFFFFFF80FFFF28
:102F4000FFFFFFFFFFFFFF81FFFFFFFFFFFFFFFF0F
:102F5000F7FEFFBFFFFFFFFFFFFFFC001FFFFFFFAC
:102F6000FFFFFFFFFF81FFFFFFFFFE7F81FFF7FEF7
:102F7000003FFFFFFFFFFFFFF8FF8FFFFFFFFFFF97
:102F8000FFFFFF81FFFFFFFFFE7F00FFF7FEEFBFA8
:102F9000FFFF03FFFFFFF3FFE7FFFFFFFFFFFFFF61
:102FA000FF81FFFFFFFFFE7E187FF7FEEFFFFFFEB2
:102FB00001FFFFFFF7FFF7FFFFFFFFFFFFFFFF81AD
:102FC000FFFFFFFFFE7C7E3FF7FEE3FFFFFC30FFCD
:102FD000FFFFF7FFF7FFFFFFFFFFFFFFFF81FFFF8F
:102FE000FFFFFE78FF3FF7FEECFFFFF8FC41FFFF1D
:102FF000F7FFF7FFFFFFFFFFFFFFFF81FFFFFFE787
:10300000FE60FF3FF7FF1F3FFFF1FE7FFFFFF3FF73
:10301000E7FFFFFF8001FFFFFF81FFFFFFE3FFC12D
:10302000FF3FF7FFFFBFFFC1FE7FFFFFF8FF8FFFEE
:10303000FFF800001FFFFF81FFFFFFF1FF8FFF3F41
:10304000F7FFFFFFFF83FE40FFFFFC001FFFFFC0F5
:10305000000003FFFF81FFFFFFF8F01FFF3FF7FFB6
:10306000FFFFFF9FFE7FFFFFFF00FFFFFF0000004D
:1030700000FFFF81FFFFFFFCC01FFF3FF7FF80FF46
:10308000FF9FFE4E1FFFFFFFFFFFFE007FFE007F42
:10309000FF81FFFFFFFF839FFF3FF7FF7F7FFF1F42
:1030A000FE7FFFFFFFFFFFFFFC0FFFFFF03FFF81F1
:1030B000FFFFFFFF0F8FFF3FF7FEFFBFFF1FFE7FEA
:1030C000FFFFFFFFFFFFF83FFFFFFC1FFF81FFFF38
:1030D000FFFE3F0FFF3FF7FEFFBFFF3FFE403FFFFA
:1030E000FDFFF7FFF0FFFFFFFF0FFF81FFFFFFFE78
:1030F0003E1FFF3FF7FEFFBFFE3FFE7FFFFFFDFFCE
:10310000F7FFE3FFFFFFFFC7FF81FFFFFFFC7C7FAF
:10311000FF3FF7FF7F7FFC7FFE7FFFFFFDFFF7FF95
:10312000E7FFFFFFFFE7FF81FFFFFFFC78FFFF3FA7
:10313000F7FF80FFF8FFFE618FFFF80007FFC7FF72
:10314000FFFFFFE3FF81FFFFFFFCF8FFFF3FF7FFFB
:10315000FFFFF1FFFE7FFFFFF00007FFCFFFFFFF44
:10316000FFF3FF81FFFFFC0CF9FFFF3FF7FEFFFFBE
:10317000F3FFFE7FFFFFFFFFF7FFCFFFFFFFFFF330
:10318000FF81FFFFFC0CF1FFFF3FF7FE01FFE7FFB0
:10319000FE600FFFFFFFF7FFCFFFFFFFFFF3FF8191
:1031A000FFFFFFFCF3FFFF3FF7FFFE3FE7FFFE7F60
:1031B000FFFFFFFFF7FFCFFFFFFFFFF3FF81FFFFE1
:1031C000FFFCF3FFFF3FF7FEF1FFE7FFFE7FFFFF8E
:1031D000FFFFFFFFCFFFFFFFFFF3FF81FFFFFFFCBC
:1031E00073FFFF3FF7FE0FFFE7FFFE430FFFFFFFF9
:1031F000FFFFE7FFFFFFFFE7FF81FFFFFFFE71FF1C
:10320000FF3FF7FEF1FFE7FFFE7FFFFFFFFFFFFF3E
:10321000E3FFFFFFFFC7FF81FFFFFFFE31FFFF3F1F
:10322000F7FFFE3FE3FFFE7FFFFFFFFFFDFFF1FF24
:10323000FFFFFF8FFF81FFFFFFFF19FFFF3FF7FE3B
:1032400001FFF3FFFE600FFFFFFFF3FFF07FFFFFC3
:10325000FE0FFF81FFFFFFFF80FFFF3FF7FEFFFF35
:10326000F3FFFE7FFFFFFFFF8FFFF81FFFFFF01F41
:10327000FF81FFFFFFFCC07FFF3FF7FFFFFFF1FF74
:10328000FE7FFFFFFFFE3FFFFE00FFFF007FFF818D
:10329000FFFFFFF8F03FFF3FF7FFFFFFF8FFFE6083
:1032A0001FFFFFF8FFFFFF00000000FFFF81FFFF8F
:1032B000FFF1FE03FF3FF7FFFFFFFC7FFE7FFFFFF5
:1032C000FFE3FFFFFFC0000003FFFF81FFFFFFE3FD
:1032D000FF81FF3FF7FFFFFFFE1FFE460FFFFF8F3F
:1032E000FFFFFFF800001FFFFF81FFFFFFE7FE6009
:1032F000FF3FF7FFFFFFFF07FE7FFFFFFE3FFFFFE0
:10330000FFFF8001FFFFFF81FFFFFFFFFE78FF3F10
:10331000F7FFFFFFFFC3FE7FFFFFF8FFFFFFFFFF89
:10332000FFFFFFFFFF81FFFFFFFFFE7C7E3FF7FFF8
:10333000FFFFFFF1FE403FFFE7FFFFFFFFFFFFFF43
:10334000FFFFFF81FFFFFFFFFE7C3C7FF7FFFFFFDA
:10335000FFF8FC7FFFFFDFFFFFFFFFFFFFFFFFFF27
:10336000FF81FFFFFFFFFE7E00FFF7FFFFFFFFF87B
:1033700078FFFFFFFFFFFFFFFFFFFFFFFFFFFF8162
:10338000FFFFFFFFFE7F81FFF7FFFFFFFFFC01FF55
:10339000FFFFFF80FFFFFFFFFFFFFFFFFF81FFFF3A
:1033A000FFFFFFFFFFFFF7FFFFFFFFFF03FFFFFF31
:1033B000FC001FFFFFFFFFFFFFFFFF81FFFFFFFF7D
:1033C000FFFFFFFFF7FFFFFFFFFFFFFFFFFFF8FF1C
:1033D0008FFFFFFF8001FFFFFF81FFFFFFFFFFFF68
:1033E000FFFFF7FFFFFFFFFFFFFFFFFFF3FFE7FF19
:1033F000FFF800001FFFFF81FFFFFFFFFFFFFFFF40
:10340000F7FFFFFFFFFFFFFFFFFFF7FFF7FFFFC023
:10341000000003FFFF81FFFFFFFFFFFFFFFFF7FF3C
:10342000FFFFFFFFFFFFFFFFF7FFF7FFFF000000B9
:1034300000FFFF81FFFFFFFFFFFFFFFFF7FFFFFF21
:10344000FFFFFFFFFFFFF7FFF7FFFE007FFE007F9C
:10345000FF81FFFFFFFFFFFFFFFFF7FFFFFFFFFF02
:10346000FFFFFFFFF3FFE7FFFC0FFFFFF03FFF81D0
:10347000FFFFFFFFFFFFFFFFF7FFFFFFFFFFFFFF64
:10348000FFFFF8FF8FFFF83FFFFFFC1FFF81FFFFEB
:10349000FFFFFFFFFFFFF7FFFFFFFFFFFFFFFFFF44
:1034A000FC001FFFF0FFFFFFFF0FFF81FFFFFFFF8B
:1034B000FFFFFFFFF7FFFFFFFFFFFFFFFFFFFF0023
:1034C000FFFFE3FFFFFFFFC7FF81FFFFFFFFFFFFDE
:1034D000FFFFF7FFFFFFFFFFFFFFFFFFFFFFFFFF04
:1034E000E7FFFFFFFFE7FF81FFFFFFFFFFFFFFFF9A
:1034F000F7FFFFFFFFFFFFFFFFFFFFFFFFFFC7FF1C
:10350000FFFFFFE3FF81FFFFFFFFFFFFFFFFF7FF6D
:10351000FFFFFFFFFFFFFFFFFFFFFFFFCFFFFFFFEB
:10352000FFF3FF81FFFFFFFFFFFFFFFFF7FFFFFF3D
:10353000FFFFFFFFFFFFFFFFFFFFCFFFFFFFFFF3D7
:10354000FF81FFFFFFFFFFFFFFFFF7FFFFFFFFFF11
:10355000FFFFFFFFFDFFF7FFCFFFFFFFFFF3FF813F
:10356000FFFFFFFFFFFFFFFFF7FFFFFFFFFFFFFF73
:10357000FFFFFDFFF7FFCFFFFFFFFFF3FF81FFFF1F
:10358000FFFFFFFFFFFFF7FFFFFFFFFFFFFFFFFF53
:10359000FDFFF7FFCFFFFFFFFFF3FF81FFFFFFFFFF
:1035A000FFFFFFFFF7FFFFFFFFFFFFFFFFFFF80039
:1035B00007FFE7FFFFFFFFE7FF81FFFFFFFF7FFF41
:1035C000FF7FF7FFFFFFFF7FFFFF7FFFF00007FF99
:1035D000E3FFFFFFFFC7FF81FFFFFFFF7FFFFF7FCD
:1035E000F7FFFFFFFF7FFFFF7FFFFFFFF7FFF1FF09
:1035F000FFFFFF8FFF81FFFFFFFF7FFFFF7FF7FFD1
:10360000FFFFFF7FFFFF7FFFFFFFF7FFF07FFFFF61
:10361000FE0FFF81FFFFFFFF7FFFFE7FF7FFFFFF32
:10362000FF7FFFFE7FFFFFFFF7FFF81FFFFFF01F89
:10363000FF81FFFFFFFE0000007FF7FFFFFFFE009E
:1036400000007FFFFFFFFFFFFE00FFFF007FFF8105
:10365000FFFFFFFC0000007FF7FFFFFFFC00000002
:103660007FFFFFFFFFFFFF00000000FFFF81FFFF64
:10367000FFFFFFFFFE7FF7FFFFFFFFFFFFFE7FFF64
:10368000FFFFFFFFFFC0000003FFFF81FFFFFFFF01
:10369000FFFFFF7FF7FFFFFFFFFFFFFF7FFFFFFF42
:1036A000FFFFFFF800001FFFFF81FFFFFFFFFFFF8D
:1036B000FF7FF7FFFFFFFFFFFFFF7FFFFFFFFFFF22
:1036C000FFFF8001FFFFFF81FFFFFFFFFFFFFF7F85
:1036D000F7FFFFFFFFFFFFFF7FFFFFFFFFFFFFFF82
:1036E000FFFFFFFFFF81FFFFFFFFFFFFFF7FF7FFF0
:1036F000FFFFFFFFFFFF7FFFFFFFFFFFFFFFFFFF5A
:10370000FFFFFF81FFFFFFFFFFFFFFFFF7FFFFFF4F
:10371000FFFFFFFFFFFFFFFFFFFFFFFFFFFFFFFFB9
:10372000FF81FFFFFFFFFFFFFFFFF7FFFFFFFFFF2F
:10373000FFFFFFFFFFFFFFFFFFFFFFFFFFFFFF8117
:10374000FFFFFFFFFFFFFFFFF7FFFFFFFFFFFFFF91
:10375000FFFFFFFFFFFFFFFFFFFFFFFFFF81FFFFF7
:10376000FFFFFFFFFFFFF7FFFFFFFFFFFFFFFFFF71
:10377000FFFFFFFFFFFFFFFFFFFFFF81FFFFFFFFD7
:10378000FFFFFFFFF7FFFFFFFFFFFFFFFFFFFFFF51
:10379000FFFFFFFFFFFFFFFFFF81FFFFFFFFFE00B7
:1037A0003FFFF7FFFFFFFF87FFE3FFFFFFFFFFFF85
:1037B000FFFFFFFFFFFFFF81FFFFFFFFF00007FF9D
:1037C000F7FFFFFFFF07FFC1FFFFFFFFFFFFFFFF47
:1037D000FFFFFFFFFF81FFFFFFFFC7E7C3FFF7FF0B
:1037E000FFFFFE47FFC0FFFFFFFFFFFFFFFFFFFFE1
:1037F000FFFFFF81FFFFFFFFBFCFF9FFF7FFFFFFD5
:10380000FEFFFFE4FFFFFFFFFFFFFFFFFFFFFFFFE4
:10381000FF81FFFFFFFF7FBFFCFFF7FFFFFFFDFF03
:10382000FFFE7FFFFFFFFFFFFFFFFFFFFFFFFF81A7
:10383000FFFFFFFEFFBFFEFFF7FFFFFFFDFFDFFF04
:103840007FFFFFFFFFFFFFFFFFFFFFFFFF81FFFF86
:10385000FFFEFF7FFF7FF7FFFFFFFDFFDFFF7FFF23
:10386000FFFFFFFFFFFFFFFFFFFFFF81FFFFFFFDE8
:10387000FF7FFF7FF7FFFFFFFDFFDFFF7FFFFFFF02
:10388000FFFFFFFFFFFFFFFFFF81FFFFFFFDFF7F48
:10389000FF7FF7FFFFFFFDFFDFFF7FFFFFFFFFFF62
:1038A000FFFF8FFFFF8FFF81FFFFFFFDFF7FFF7F88
:1038B000F7FFFFFFFCFF8FFF7FFFFFFFFFFFFFFF13
:1038C00007FFFF07FF81FFFFFFFDFF7FFF7FF7FF80
:1038D000FFFFFEFF2FFEFFFFFFFFFFFFFFFE03FFC7
:1038E000FE03FF81FFFFFFFDFF3FFEFFF7FFFFFF2E
:1038F000FE3E67FCFFFFFFFFFFFFFFFE03FFFE032F
:10390000FF81FFFFFFFC1F9FFCFFF7FFFFFFFF0092
:10391000F1F9FFFFFFFFFFFFFFFE03FFFE03FF8143
:10392000FFFFFFFE1FC7F1FFF7FFFFFFFFC1F80317
:10393000FFFFFFFFFFFFFFFF07FFFF07FF81FFFF05
:10394000FFFF1FE003FFF7FFFFFFFFFFFE0FFFFF7B
:10395000FFFFFFFFFFFF8FFFFF8FFF81FFFFFFFFD5
:10396000FFF80FFFF7FFFFFFFFFFFFFFFFFFFFFF66
:10397000FFFFFFFFFFFFFFFFFF81FFFFFFFFFFFFD5
:10398000FFFFF7FFFFFFFFFFFFFFFFFFFFFFFFFF4F
:10399000FFFFFFFFFFFFFF81FFFFFFFFFFFFFFFFB5
:1039A000F7FFFFFFFFFFFFFFFFFFFFFFFFFFFFFF2F
:1039B000FFFFFFFFFF81FFFFFFFFFFFFFFFFF7FF9D
:1039C000FFFFFFFFFFFFFFFFFFFFFFFFFFFFFFFF07
:1039D000FFFFFF81FFFFFFFFFFFFFFFFF7FFFFFF7D
:1039E000FFFFFFFFFFFFFFFFFFFFFFFFFFFFFFFFE7
:1039F000FF81FFFFFFFFFFFFFFFFF7FFFFFFFFFF5D
:103A0000FFFFFFFFFFFFFFFFFFFFFFFFFFFFFF8144
:103A1000FFFFFFFFFFFFFFFFF7FFFFFFFFFFFFFFBE
:103A2000FFFFFFFFFFFFFFFFFFFFFFFFFF81FFFF24
:103A3000FFFFFFFFFFFFF7FFFFFFFFFFFFFFFFFF9E
:103A4000FFFFFFFFFFFFFFFFFFFFFF81FFFFFFF80B
:103A50003FFFFFFFF7FFFFFFF83FFFFFFFFFFFFF05
:103A6000FFFFFFFFFFFFFFFFFF81FFFFFFF3BFFF30
:103A7000FFFFF7FFFFFFF3BFFFFFFFFFFFFFFFFFAA
:103A8000FFFFFFFFFFFFFF81FFFFFFF79FFFFFFF2C
:103A9000F7FFFFFFF79FFFFFFFFFFFFFFFFFFFFFA6
:103AA000FFFFFFFFFF81FFFFFFF7DFFFFFFFF7FFD4
:103AB000FFFFF7DFFFFFFFFFFFFFFFFFFFFFFFFF3E
:103AC000FFFFFF81FFFFFFF79FFFFFFFF7FFFFFFF4
:103AD000F79FFFFFFFFFFFFFFFFFFFFFFFFFFFFF5E
:103AE000FF81FFFFFFF03FFFFFFFF7FFFFFFF03F0A
:103AF000FFFFFFFFFFFFFFFFFFFFFFFFFFFFFF8154
:103B0000FFFFFFFCFFFFFFFFF7FFFFFFFCFFFFFFD3
:103B1000FFFFFFFFFFFFFFFFFFFFFFFFFF81FFFF33
:103B2000FFFFFC01FFFFF7FFFFFFFFFC01FFFFFFAF
:103B3000FFFFFFFFFFFFFFFFFFFFFF81FFFFFFFF13
:103B4000E0003FFFF7FFFFFFFFE0003FFFFFFFFF49
:103B5000FFFFFFFFFFFFFFFFFF81FFFFFFFF800071
:103B60000FFFF7FFFFFFFF80000FFFFFFFFFFFFFCB
:103B7000FFFFFFFFFFFFFF81FFFFFFFF07FF07FFC3
:103B8000F7FFFFFFFF07FF07FFFFFFFFFFFFFFFF3D
:103B9000FFFFFFFFFF81FFFFFFFE3FFFC3FFF7FFB8
:103BA000FFFFFE3FFFC3FFFFFFFFFFFFFFFFFFFF22
:103BB000FFFFFF81FFFFFFFC7FFFF1FFF7FFFFFF2C
:103BC000FC7FFFF1FFFFFFFFFFFFFCFFFFFFFFF3A5
:103BD000FF81FFFFFFF8FFFFF8FFF7FFFFFFF8FF90
:103BE000FFF8FFFFFFFFFFFFFCFFFFFFFFF3FF8179
:103BF000FFFFFFF9FFFFFCFFF7FFFFFFF9FFFFFCEF
:103C0000FFFFFFFFFFFFFCFFFFFFFFF3FF81FFFF51
:103C1000FFFBFFFFFCFFF7FFFFFFFBFFFFFCFFFFCA
:103C2000FFFFFFFFFCFFFFFFFFF3FF81FFFFFFFB35
:103C3000FFFFFE7FF7FFFFFFFBFFFFFE7FFFFFFFA2
:103C4000FFFFFCFFFFFFFFF3FF81FFFFFFF3FFFF1D
:103C5000FE7FF7FFFFFFF3FFFFFE7FFFFFFFFFFF8A
:103C6000FCFFFFFFFFE3FF81FFFFFFF3FFFFFE7F8E
:103C7000F7FFFFFFF3FFFFFE7FFFFFFFFFFFF87F70
:103C8000FFFFFFC3FF81FFFFFFF3FFFFFE7FF7FF93
:103C9000FFFFF3FFFFFE7FFFFFFFFFFFF8000000C5
:103CA0000003FF81FFFFFFF3FFFFFE7FF7FFFFFF32
:103CB000F3FFFFFE7FFFFFFFFFFFF00000000003A8
:103CC000FF81FFFFFFFBFFFFFEFFF7FFFFFFFBFF93
:103CD000FFFEFFFFFFFFFFFFE00000000003FF818A
:103CE000FFFFFFFBFFFFFCFFF7FFFFFFFBFFFFFCFA
:103CF000FFFFFFFFFFFFC00000000003FF81FFFF89
:103D0000FFF9FFFFFCFFF7FFFFFFF9FFFFFCFFFFDD
:103D1000FFFFFFFFFFFFFFFFFFC3FF81FFFFFFFD6F
:103D2000FFFFF9FFF7FFFFFFFDFFFFF9FFFFFFFFB9
:103D3000FFFFFFFFFFFFFFE3FF81FFFFFFFCFFFF30
:103D4000FBFFF7FFFFFFFCFFFFFBFFFFFFFFFFFF96
:103D5000FFFFFFFFFFF3FF81FFFFFFFE7FFFF3FF8A
:103D6000F7FFFFFFFE7FFFF3FFFFFFFFFFFFFFFFF8
:103D7000FFFFFFF3FF81FFFFFFFF1FFFE7FFF7FFDD
:103D8000FFFFFF1FFFE7FFFFFFFFFFFFFFFFFFFF3B
:103D9000FFF3FF81FFFFFFFC01FFDFFFF7FFFFFFE6
:103DA000FC01FFDFFFFFFFFFFFFFFFFFFFFFFFF350
:103DB000FF81FFFFFFFFFFFFFFFFF7FFFFFFFFFF99
:103DC000FFFFFFFFFFFFFFFFFFFFFFFFFFF3FF818D
:103DD000FFFFFFFFFFFFFFFFF7FFFFFFFFFFFFFFFB
:103DE000FFFFFFFFFFFFFFFFFFFFFFFFFF81FFFF61
:103DF000FFFFFFFFFFFFF7FFFFFFFFFFFFFFFFFFDB
:103E0000FFFFFFFFFFFFFFFFFFFFFF81FFFFFFFF40
:103E1000FFFFFFFFF7FFFFFFFFFFFFFFFFFFFFFFBA
:103E2000FFFFFFFFFFFFFFFFFF81FFFFFFFFFFFF20
:103E3000FFFFF7FFFFFFFFFFFFFFFFFFFFFFFFFF9A
:103E4000FFFFFFFFFFFFFF81FFFFFFFFFFFFFFFF00
:103E5000F7FFFFFFFFFFFFFFFFFFFFFFFFFFFFFF7A
:103E6000FFFFFFFFFF81FFFFFFFFFFFFFFFFF7FFE8
:103E7000FFFFFFFFFFFFFFFFFFFFFFFFFFFFFFFF52
:103E8000FFFFFF81FFFFFFCFFFFFFFFFF7FFFFFFF8
:103E9000CFFFFFFFFFFFFFFFFFFFFFFFFFFFFFFF62
:103EA000FF81FFFFFF3FFFFFFFFFF7FFFFFF3FFF28
:103EB000FFFFFFFFFFFFFFFFFFFFFFFFFFFFFF8190
:103EC000FFFFFF7FFFFFFFFFF7FFFFFF7FFFFFFF0A
:103ED000FFFFFFFFFFFFFFFFFFFFFFFFFF81FFFF70
:103EE000FEFFFFFFFFFFF7FFFFFEFFFFFFFFFFFFEC
:103EF000FFFFFFFFFFFFFFFFFFFFFF81FFFFFEFF51
:103F0000FFFFFFFFF7FFFFFEFFFFFFFFFFFFFFFFCA
:103F1000FFFFFFFFFFFFFF83FF81FFFFFE7FFFFF2C
:103F2000FFFFF7FFFFFE7FFFFFFFFFFFFFFFFFFF2A
:103F3000FFC0FFFFFF03FF81FFFFFE3FFFFFFFFF0B
:103F4000F7FFFFFE3FFFFFFFFFFFFFFFFFFFFE004A
:103F50007FFFFC03FF81FFFFFF1FFFFFFFFFF7FF56
:103F6000FFFF1FFFFFFFFFFFFFFFFFFFFC007FFFC3
:103F7000F843FF81FFFFFF8FFFFFFFFFF7FFFFFF0A
:103F80008FFFFFFFFFFFFFFFFFFFF8007FFFF0C382
:103F9000FF81FFFFFFC7FFFFFFFFF7FFFFFFC7FF27
:103FA000FFFFFFFFFFFFFFFFF0E07FFFE1C3FF81A7
:103FB000FFFFFFE7FFFFFFFFF7FFFFFFE7FFFFFF49
:103FC000FFFFFFFFFFFFF1F8FFFFC7C3FF81FFFF08
:103FD000FFF3FFFFFFFFF7FFFFFFF3FFFFFFFFFF11
:103FE000FFFFFFFFE3FFFFFF8FC3FF81FFFFFFFB2B
:103FF000FFFFFFFFF7FFFFFFFBFFFFFFFFFFFFFFDD
:10400000FFFFE7FFFFFF1FC3FF81FFFFFFFBFFFF76
:10401000FFFFF7FFFFFFFBFFFFFFFFFFFFFFFFFFBC
:10402000C7FFFFFE3FC3FF81FFFFFFF7FFFFFFFF5B
:10403000F7FFFFFFF7FFFFFFFFFFFFFFFFFFCFFFD0
:10404000FFFC7FC3FF81FFFFFFEFFFFFFFFFF7FFD5
:10405000FFFFEFFFFFFFFFFFFFFFFFFFCFFFFFF8B7
:10406000FFC3FF81FFFFFF9FFFFFFFFFF7FFFFFF82
:104070009FFFFFFFFFFFFFFFFFFFCFFFFFF1FFC32A
:10408000FF81FFFFFFFFFFFFFFFFF7FFFFFFFFFFC6
:10409000FFFFFFFFFFFFFFFFCFFFFFE3FFC3FF8136
:1040A000FFFFFFFFFFFFFFFFF7FFFFFFFFFFFFFF28
:1040B000FFFFFFFFFFFFCFFFFFC7FFC3FF81FFFF32
:1040C000FFFFC3FFFC7FF7FFFFFFFFC3FFFC7FFF86
:1040D000FFFFFFFFCFFFFF8FFFC3FF81FFFFFFFF4A
:1040E00001FFF87FF7FFFFFFFF01FFF87FFFFFFFF2
:1040F000FFFFC7FFFF1FFFC3FF81FFFFFFFF01FFA0
:10410000F27FF7FFFFFFFF01FFF27FFFFFFFFFFFDF
:10411000E7FFFC3FFFC3FF81FFFFFFFE71FFC67F8C
:10412000F7FFFFFFFE71FFC67FFFFFFFFFFFE3FF0B
:10413000F87FFFC3FF81FFFFFFFEFFFF9E7FF7FFBA
:10414000FFFFFEFFFF9E7FFFFFFFFFFFE1FFE0FF9E
:10415000FFC3FF81FFFFFFFDFFFF3E7FF7FFFFFF74
:10416000FDFFFF3E7FFFFFFFFFFFF07F01FFFF83AB
:10417000FF81FFFFFFFDFFFE7E7FF7FFFFFFFDFFDB
:10418000FE7E7FFFFFFFFFFFF80003FFFF03FF81BD
:10419000FFFFFFFDFFFCFE7FF7FFFFFFFDFFFCFEC3
:1041A0007FFFFFFFFFFFFC0007FFFE03FF81FFFF14
:1041B000FFFDFFF9FE7FF7FFFFFFFDFFF9FE7FFF29
:1041C000FFFFFFFFFE001FFFE003FF81FFFFFFFD7A
:1041D000FFF3FE7FF7FFFFFFFDFFF3FE7FFFFFFF13
:1041E000FFFFFF80FFFFE1FFFF81FFFFFFFCFFE715
:1041F000FE7FF7FFFFFFFCFFE7FE7FFFFFFFFFFFF4
:10420000FFFFFFFFFFFFFF81FFFFFFFEFFCFFE7FEE
:10421000F7FFFFFFFEFFCFFE7FFFFFFFFFFFFFFF68
:10422000FFFFFFFFFF81FFFFFFFE3E1FFC7FF7FF49
:10423000FFFFFE3E1FFC7FFFFFFFFFFFFFFFFFFFB3
:10424000FFFFFF81FFFFFFFF003FF87FF7FFFFFF4A
:10425000FF003FF87FFFFFFFFFFFFFFFFFFFFFFFB4
:10426000FF81FFFFFFFFC1FFE3FFF7FFFFFFFFC17C
:10427000FFE3FFFFFFFFFFFFFFFFFFFFFFFFFF81E8
:10428000FFFFFFFFFFFFFFFFF7FFFFFFFFFFFFFF46
:10429000FFFFFFFFFFFFFFFFFFFFFFFFFF81FFFFAC
:1042A000FFFFFFFFFFFFF7FFFFFFFFFFFFFFFFFF26
:1042B000FFFFFFFFFFFFFFFFFFFFFF81FFFFFFFF8C
:1042C000FFFFFFFFF7FFFFFFFFFFFFFFFFFFFFFF06
:1042D000FFFFFFFFFFFFFFFFFF81FFFFFFFFFFFF6C
:1042E000FFFFF7FFFFFFFFFFFFFFFFFFFFFFFFFFE6
:1042F000FFFFFFFFFFFFFF81FFFFFFFFFFFFC7FF84
:10430000F7FFFFFFFFFFFFFFFFFFFFFFFFFFFFFFC5
:10431000FFFFFFFFFF81FFFFFFFFE00F81FFF7FFC0
:10432000FFFFFFFFFFFFFFFFFFFFFFFFFFFFFFFF9D
:10433000FFFFFF81FFFFFFFC03CF80FFF7FFFFFFC1
:10434000FFFFFFFFFFFFFFFFFFFFFFFFFFFFFFFF7D
:10435000FF81FFFFFFFCFF9F8EFFF7FFFFFFFF7F47
:10436000FFFF7FFFFFFFFFFFFFFFFFFFFFFFFF815B
:10437000FFFFFFFCFFBFFE7FF7FFFFFFFF7FFFFF99
:104380007FFFFFFFFFFFFFFFFFFFFFFFFF81FFFF3B
:10439000FFFCFF7FFF7FF7FFFFFFFF7FFFFF7FFF38
:1043A000FFFFFFFFFFFFFFFFFFFFFF81FFFFFFFC9E
:1043B000FF7FFF7FF7FFFFFFFF7FFFFE7FFFFFFF16
:1043C000FFFFFFFFFFFFFFFFFF81FFFFFFFCFF7FFE
:1043D000FF7FF7FFFFFFFE0000007FFFFFFFFFFFF3
:1043E000FFFF8FFFFF8FFF81FFFFFFFCFF7FFF7F3E
:1043F000F7FFFFFFFC0000007FFFFFFFFFFFFFFF55
:1044000007FFFF07FF81FFFFFFFCFF7FFF7FF7FF35
:10441000FFFFFFFFFFFE7FFFFFFFFFFFFFFE03FF2A
:10442000FE03FF81FFFFFFFCFF3FFEFFF7FFFFFFE3
:10443000FFFFFFFF7FFFFFFFFFFFFFFE03FFFE0306
:10444000FF81FFFFFFFCFF9FFCFFF7FFFFFFFFFF68
:10445000FFFF7FFFFFFFFFFFFFFE03FFFE03FF8164
:10446000FFFFFFFCFFC7F1FFF7FFFFFFFFFFFFFFAD
:104470007FFFFFFFFFFFFFFF07FFFF07FF81FFFF3A
:10448000FFFCFFE003FFF7FFFFFFFFFFFFFF7FFFE2
:10449000FFFFFFFFFFFF8FFFFF8FFF81FFFFFFFC8D
:1044A000FFF80FFFF7FFFFFFFFFFFFFFFFFFFFFF1B
:1044B000FFFFFFFFFFFFFFFFFF81FFFFFFFFFFFF8A
:1044C000FFFFF7FFFFFFFFFFFFFFFFFFFFFFFFFF04
:1044D000FFFFFFFFFFFFFF81FFFFFFFFFFFFFFFF6A
:1044E000F7FFFFFFFFFFFFFFFFFFFFFFFFFFFFFFE4
:1044F000FFFFFFFFFF81FFFFFFFFFFFFFFFFF7FF52
:10450000FFFFFFFFFFFFFFFFFFFFFFFFFFFFFFFFBB
:10451000FFFFFF81FFFFFFFFFFFFFFFFF7FFFFFF31
:10452000FFFFFFFFFFFFFFFFFFFFFFFFFFFFFFFF9B
:10453000FF81FFFFFFFFFFFFFFFFF7FFFFFFFFFF11
:10454000FFFFFFFFFFFFFFFFFFFFFFFFFFFFFF81F9
:10455000FFFFFFFFFFFFFFFFF7FFFFFFFFFFFFFF73
:10456000FFFFFFFFFFFFFFFFFFFFFFFFFF81FFFFD9
:10457000FFFFFFFFFFFFF7FFFFFFFFFFFFFFFFFF53
:10458000FFFFFFFFFFFFFFFFFFFFFF81FFFFFFF8C0
:104590003FFFFFFFF7FFFFFFF83FFFFFFFFFFFFFBA
:1045A000FFFFFFFFFFFFFFFFFF81FFFFFFF3BFFFE5
:1045B000FFFFF7FFFFFFF3BFFFFFFFFFFFFFFFFF5F
:1045C000FFFFFFFFFFFFFF81FFFFFFF79FFFFFFFE1
:1045D000F7FFFFFFF79FFFFFFFFFFFFFFFFFFFFF5B
:1045E000FFFFFFFFFF81FFFFFFF7DFFFFFFFF7FF89
:1045F000FFFFF7DFFFFFFFFFFFFFFFFFFFFFFFFFF3
:10460000FFFFFF81FFFFFFF79FFFFFFFF7FFFFFFA8
:10461000F79FFFFFFFFFFFFFFFFFFFFFFFFFFFFF12
:10462000FF81FFFFFFF03FFFFFFFF7FFFFFFF03FBE
:10463000FFFFFFFFFFFFFFFFFFFFFFFFFFFFFF8108
:10464000FFFFFFFCFFFFFFFFF7FFFFFFFCFFFFFF88
:10465000FFFFFFFFFFFFFFFFFFFFFFFFFF81FFFFE8
:10466000FFFFFC01FFFFF7FFFFFFFFFC01FFFFFF64
:10467000FFFFFFFFFFFFFFFFFFFFFF81FFFFFFFFC8
:10468000E0003FFFF7FFFFFFFFE0003FFFFFFFFFFE
:10469000FFFFFFFF8001FFFFFF81FFFFFFFF8000A3
:1046A0000FFFF7FFFFFFFF80000FFFFFFFFFFFFF80
:1046B000FFF800001FFFFF81FFFFFFFF07FF07FF5D
:1046C000F7FFFFFFFF07FF07FFFFFFFFFFFFFFC031
:1046D000000003FFFF81FFFFFFFE3FFFC3FFF7FF67
:1046E000FFFFFE3FFFC3FFFFFFFFFFFFFF000000D4
:1046F00000FFFF81FFFFFFFC7FFFF1FFF7FFFFFFE0
:10470000FC7FFFF1FFFFFFFFFFFFFE007FFE007F4A
:10471000FF81FFFFFFF8FFFFF8FFF7FFFFFFF8FF44
:10472000FFF8FFFFFFFFFFFFFC0FFFFFF03FFF81E0
:10473000FFFFFFF9FFFFFCFFF7FFFFFFF9FFFFFCA3
:10474000FFFFFFFFFFFFF83FFFFFFC1FFF81FFFFA1
:10475000FFFBFFFFFCFFF7FFFFFFFBFFFFFCFFFF7F
:10476000FFFFFFFFF0FFFFFFFF0FFF81FFFFFFFBDA
:10477000FFFFFE7FF7FFFFFFFBFFFFFE7FFFFFFF57
:10478000FFFFE3FFFFFFFFC7FF81FFFFFFF3FFFF17
:10479000FE7FF7FFFFFFF3FFFFFE7FFFFFFFFFFF3F
:1047A000E7FFFFFFFFE7FF81FFFFFFF3FFFFFE7F54
:1047B000F7FFFFFFF3FFFFFE7FFFFFFFFFFFC7FFD6
:1047C000FFFFFFE3FF81FFFFFFF3FFFFFE7FF7FF28
:1047D000FFFFF3FFFFFE7FFFFFFFFFFFCFFFFFFFA6
:1047E000FFF3FF81FFFFFFF3FFFFFE7FF7FFFFFFF8
:1047F000F3FFFFFE7FFFFFFFFFFFCFFFFFFFFFF392
:10480000FF81FFFFFFFBFFFFFEFFF7FFFFFFFBFF47
:10481000FFFEFFFFFFFFFFFFCFFFFFFFFFF3FF8163
:10482000FFFFFFFBFFFFFCFFF7FFFFFFFBFFFFFCAE
:10483000FFFFFFFFFFFFCFFFFFFFFFF3FF81FFFF42
:10484000FFF9FFFFFCFFF7FFFFFFF9FFFFFCFFFF92
:10485000FFFFFFFFCFFFFFFFFFF3FF81FFFFFFFD24
:10486000FFFFF9FFF7FFFFFFFDFFFFF9FFFFFFFF6E
:10487000FFFFE7FFFFFFFFE7FF81FFFFFFFCFFFFF9
:10488000FBFFF7FFFFFFFCFFFFFBFFFFFFFFFFFF4B
:10489000E3FFFFFFFFC7FF81FFFFFFFE7FFFF3FF87
:1048A000F7FFFFFFFE7FFFF3FFFFFFFFFFFFF1FFBB
:1048B000FFFFFF8FFF81FFFFFFFF1FFFE7FFF7FFF6
:1048C000FFFFFF1FFFE7FFFFFFFFFFFFF07FFFFF7F
:1048D000FE0FFF81FFFFFFFC01FFDFFFF7FFFFFF80
:1048E000FC01FFDFFFFFFFFFFFFFF81FFFFFF01FCF
:1048F000FF81FFFFFFFFFFFFFFFFF7FFFFFFFFFF4E
:10490000FFFFFFFFFFFFFFFFFE00FFFF007FFF81B4
:10491000FFFFFFFFFFFFFFFFF7FFFFFFFFFFFFFFAF
:10492000FFFFFFFFFFFFFF00000000FFFF81FFFF11
:10493000FFFFFFFFFFFFF7FFFFFFFFFFFFFFFFFF8F
:10494000FFFFFFFFFFC0000003FFFF81FFFFFFFF2E
:10495000FFFFFFFFF7FFFFFFFFFFFFFFFFFFFFFF6F
:10496000FFFFFFF800001FFFFF81FFFFFFFFFFFFBA
:10497000FFFFF7FFFFFFFFFFFFFFFFFFFFFFFFFF4F
:10498000FFFF8001FFFFFF81FFFFFFFFFFFFFFFF32
:10499000F7FFFFFFFFFFFFFFFFFFFFFFFFFFFFFF2F
:1049A000FFFFFFFFFF81FFFFFFFFFFFFFFFFF7FF9D
:1049B000FFFFFFFFFFFFFFFFFFFFFFFFFFFFFFFF07
:1049C000FFFFFF81FFFFFFFFFFFFFFFFF7FFFFFF7D
:1049D000FFFFFFFFFFFFFFFFFFFFFFFFFFFFFFFFE7
:1049E000FF81FFFFFFFFFFFFFFFFF7FFFFFFFFFF5D
:1049F000FFFFFFFFFFFFFFFFFFFFFFFFFFFFFF8145
:104A0000FFFFFFFFFFFFFFFFF7FFFFFFFFFFFFFFBE
:104A1000FFFFFFFFFFFFFFFFFFFFFFFFFF81FFFF24
:104A2000FFFFFFFFFFFFF7FFFFFFFFFFFFFFFFFF9E
:104A3000FFFFFFFFFFFFFFFFFFFFFF81FFFFFFFF04
:104A4000FFFFFFFFF7FFFFFFFFFFFFFFFFFFFFFF7E
:104A5000FFFFFFFFFFFFFFFFFF81FFFFFFFFFFFFE4
:104A6000FFFFF7FFFFFFFFFFFFFFFFFFFFFFFFFF5E
:104A7000FFFFFFFFFFFFFF81FFFFFFFFFFFFFFFFC4
:104A8000F7FFFFFFFFFFFFFFFFFFFFFFFFFFFFFF3E
:104A9000FFFFFFFFFF81FFFFFFFFFFFFFFFFF7FFAC
:104AA000FFFFFFFFFFFFFFFFFFFFFFFFFFFFFFFF16
:104AB000FFFFFF81FFFFFFFFFFFFFFFFF7FFFFFF8C
:104AC000FFFFFFFFFFFFFFFFFFFFFCFFFFFFFFF305
:104AD000FF81FFFFFFFFFFFFFFFFF7FFFFFFFFFF6C
:104AE000FFFFFFFFFFFFFFFFFCFFFFFFFFF3FF8163
:104AF000FFFFFFFFFFFFFFFFF7FFFFFFFFFFFFFFCE
:104B0000FFFFFFFFFFFFFCFFFFFFFFF3FF81FFFF42
:104B1000FFFFFFFFFFFFF7FFFFFFFFFFFFFFFFFFAD
:104B2000FFFFFFFFFCFFFFFFFFF3FF81FFFFFFFF22
:104B3000FFFFFFFFF7FFFFFFFFFFFFFFFFFFFFFF8D
:104B4000FFFFFCFFFFFFFFF3FF81FFFFFFFFFFFF02
:104B5000FFFFF7FFFFFFFFFFFFFFFFFFFFFFFFFF6D
:104B6000FCFFFFFFFFE3FF81FFFFFFFFFFFFFFFFF2
:104B7000F7FFFFFFFFFFFFFFFFFFFFFFFFFFF87FD4
:104B8000FFFFFFC3FF81FFFFFFFFFFFFFFFFF7FFF7
:104B9000FFFFFFFFFFFFFFFFFFFFFFFFF800000029
:104BA0000003FF81FFFFFFFFFFFFFFFFF7FFFFFF96
:104BB000FFFFFFFFFFFFFFFFFFFFF000000000030C
:104BC000FF81FFFFFFFFFFFFFFFFF7FFFFFFFFFF7B
:104BD000FFFFFFFFFFFFFFFFE00000000003FF817A
:104BE000FFFFFFFFFFFFFFFFF7FFFFFFFFFFFFFFDD
:104BF000FFFFFFFFFFFFC00000000003FF81FFFF7A
:104C0000FFFFFFFFFFFFF7FFFFFFFFFFFFFFFFFFBC
:104C1000FFFFFFFFFFFFFFFFFFC3FF81FFFFFFFF5E
:104C2000FFFFFFFFF7FFFFFFFFFFFFFFFFFFFFFF9C
:104C3000FFFFFFFFFFFFFFE3FF81FFFFFFFFFFFF1E
:104C4000FFFFF7FFFFFFFFFFFFFFFFFFFFFFFFFF7C
:104C5000FFFFFFFFFFF3FF81FFFFFFFFFFFFFFFFEE
:104C6000F7FFFFFFFFFFFFFFFFFFFFFFFFFFFFFF5C
:104C7000FFFFFFF3FF81FFFFFFFFFFFFFFFFF7FFD6
:104C8000FFFFFFFFFFFFFFFFFFFFFFFFFFFFFFFF34
:104C9000FFF3FF81FFFFFFEFFDFFFFFFF7FFFFFFC8
:104CA000FFFFFFFFFFFFE00001FFFFFFFFFFFFF33C
:104CB000FF81FFFFFFEFFDFFFFFFF7FFFFFFDFFBC0
:104CC000FFFFFFFFDFFFFEFFFFFFFFFFFFF3FF819F
:104CD000FFFFFFC001FFFFFFF7FFFFFFDFFBFFFF4D
:104CE000FFFFDFFFFEFFFFFFFFFFFFFFFF81FFFF73
:104CF000FFFFFDFFFFFFF7FFFFFF8003FFFFFFFF49
:104D0000DFFFFEFFFFFFFFFFFFFFFF81FFFFFFFF52
:104D1000FDFFFFFFF7FFFFFFFFFBFFFFFFFFDC00D3
:104D20000EFFFFFFFFFFFFFFFF81FFFFFFFFFFFF02
:104D3000FFFFF7FFFFFFFFFBFFFFFFFFDFFFFEFFB0
:104D4000FFFFFFFFFFFFFF81FFFFFFFFFFFFFFFFF1
:104D5000F7FFFFFFFFFFFFFFFFFFDFFFFEFFFFFF8C
:104D6000FFFFFFFFFF81FFFFFFFFFFFFFFFFF7FFD9
:104D7000FFFFFFFFFFFFFFFFDFFFFEFFFFFFFFFF64
:104D8000FFFFFF81FFFFFFF80FFFFFFFF7FFFFFFB0
:104D9000FFFFFFFFFFFFDC000EFFFFFFFFFFFFFF36
:104DA000FF81FFFFFFE7F3FFFFFFF7FFFFFFF01FAC
:104DB000FFFFFFFFDC000EFFFFFFFFFFFFFFFF8194
:104DC000FFFFFFDFFDFFFFFFF7FFFFFFCFE7FFFF65
:104DD000FFFFDFFFFEFFFFFFFFFFFFFFFF81FFFF82
:104DE000FFDFFDFFFFFFF7FFFFFFBFFBFFFFFFFF41
:104DF000DFFFFEFFFFFFFFFFFFFFFF81FFFFFFDF82
:104E0000FDFFFFFFF7FFFFFFBFFBFFFFFFFFDFFF20
:104E1000FEFFFFFFFFFFFFFFFF81FFFFFFDFFDFF43
:104E2000FFFFF7FFFFFFBFFBFFFFFFFFDFFFFEFFFF
:104E3000FFFFFFFFFFFFFF81FFFFFFE7F3FFFFFF24
:104E4000F7FFFFFFBFFBFFFFFFFFDFFFFEFFFFFFDF
:104E5000FFFFFFFFFF81FFFFFFF80FFFFFFFF7FFDF
:104E6000FFFFCFE7FFFFFFFFDFFFFEFFFFFFFFFFBB
:104E7000FFFFFF81FFFFFFFFFFFFFFFFF7FFFFFFC8
:104E8000F01FFFFFFFFFDFFFFEFFFFFFFFFFFFFF42
:104E9000FF81FFFFFFFFFFFFFFFFF7FFFFFFFFFFA8
:104EA000FFFFFFFFDFFFFEFFFFFFFFFFFFFFFF81B1
:104EB000FFFFFFF80FFFFFFFF7FFFFFFFFFFFFFF01
:104EC000FFFFDFFFFEFFFFFFFFFFFFFFFF81FFFF91
:104ED000FFE7F3FFFFFFF7FFFFFFFFFFFFFFFFFF0E
:104EE000DFFFFEFFFFFFFFFFFFFFFF81FFFFFFDF91
:104EF000FDFFFFFFF7FFFFFFFFFFFFFFFFFFDFFFEC
:104F0000FEFFFFFFFFFFFFFFFF81FFFFFFDFFDFF52
:104F1000FFFFF7FFFFFFDFFBFFFFFFFFDFFFFEFFEE
:104F2000FFFFFFFFFFFFFF81FFFFFFDFFDFFFFFF31
:104F3000F7FFFFFFDFFBFFFFFFFFDFFFFEFFFFFFCE
:104F4000FFFFFFFFFF81FFFFFFDFFDFFFFFFF7FF19
:104F5000FFFF8003FFFFFFFFDFFFFEFFFFFFFFFFFD
:104F6000FFFFFF81FFFFFFE7F3FFFFFFF7FFFFFFFB
:104F7000FFFBFFFFFFFFDFFFFEFFFFFFFFFFFFFF66
:104F8000FF81FFFFFFF80FFFFFFFF7FFFFFFFFFBB2
:104F9000FFFFFFFFDFFFFEFFFFFFFFFFFFFFFF81C0
:104FA000FFFFFFFFFFFFFFFFF7FFFFFFFFFFFFFF19
:104FB000FFFFDFFFFEFFFFFFFFFFFFFFFF81FFFFA0
:104FC000FFFFFFFFFFFFF7FFFFFFFFFFFFFFFFFFF9
:104FD000DFFFFEFFFFFFFFFFFFFFFF81FFFFFFFF80
:104FE000FFFFFFFFF7FFFFFFC7C7FFFFFFFFDFFF69
:104FF000FEFFFFFFFFFFFFFFFF81FFFFFFEFFDFF52
:10500000FFFFF7FFFFFFBFFBFFFFFFFFDFFFFEFF1D
:10501000FFFFFFFFFFFFFF81FFFFFFEFFDFFFFFF30
:10502000F7FFFFFFBFFBFFFFFFFFDFFFFEFFFFFFFD
:10503000FFFFFFFFFF81FFFFFFC001FFFFFFF7FF43
:10504000FFFFBEFBFFFFFFFFDFFFFEFFFFFFFFFFD6
:10505000FFFFFF81FFFFFFFFFDFFFFFFF7FFFFFFE8
:10506000BEFBFFFFFFFFE00000FFFFFFFFFFFFFFB2
:10507000FF81FFFFFFFFFDFFFFFFF7FFFFFFDCFBEF
:10508000FFFFFFFFFFBF3FFFFFFFFFFFFFFFFF81AE
:10509000FFFFFFFFFFFFFFFFF7FFFFFFE377FFFFCC
:1050A000FFFFFFBFBFFFFFFFFFFFFFFFFF81FFFF0E
:1050B000FFFFFFFFFFFFF7FFFFFFFF8FFFFFFFFF78
:1050C000FFBF3FFFFFFFFFFFFFFFFF81FFFFFFDF8E
:1050D000FDFFFFFFF7FFFFFFFFFFFFFFFFFFFF8069
:1050E0007FFFFFFFFFFFFFFFFF81FFFFFFC001FF0B
:1050F000FFFFF7FFFFFFBFFBFFFFFFFFFFFFFFFF0C
:10510000FFFFFFFFFFFFFF81FFFFFFDF7DFFFFFFCF
:10511000F7FFFFFF8003FFFFFFFFFFFFFFFFFFFF22
:10512000FFFFFFFFFF81FFFFFFFF7FFFFFFFF7FF95
:10513000FFFFBEFBFFFFFFFFFFFFFFFFFFFFFFFFC4
:10514000FFFFFF81FFFFFFFF7FFFFFFFF7FFFFFF75
:10515000FEFFFFFFFFFFFFFFFFFFFFFFFFFFFFFF60
:10516000FF81FFFFFFFF7FFFFFFFF7FFFFFFFEFF56
:10517000FFFFFFFFFFFFFFFFFFFFFFFFFFFFFF81BD
:10518000FFFFFFDF7DFFFFFFF7FFFFFFFEFFFFFFDA
:10519000FFFFFFFFFFFFFFFFFFFFFFFFFF81FFFF9D
:1051A000FFC001FFFFFFF7FFFFFFBEFBFFFFFFFF99
:1051B000FFFFFFFFFFFFFFFFFFFFFF81FFFFFFDF9D
:1051C000FDFFFFFFF7FFFFFF8003FFFFFFFFFFFF74
:1051D000FFFFFFFFFFFFFFFFFF81FFFFFFFFFFFF5D
:1051E000FFFFF7FFFFFFBFFBFFFFFFFFFFFFFFFF1B
:1051F000FFFFFFFFFFFFFF81FFFFFFFDFF7FFFFFBF
:10520000F7FFFFFFFFFFFFFFFFFFFFFE7FFFFFFF37
:10521000FFFFFFFFFF81FFFFFFFC007FFFFFF7FFA6
:10522000FFFFFBFEFFFFFFFFFFFD7FFFFFFFFFFF15
:10523000FFFFFF81FFFFFFFEFB7FFFFFF7FFFFFF89
:10524000F800FFFFFFFFFFF37FFFFFFFFFFFFFFF00
:10525000FF81FFFFFFFDFDFFFFFFF7FFFFFFFDF6F3
:10526000FFFFFFFFFFEF7FFFFFFFFFFFFFFFFF815C
:10527000FFFFFFFDFDFFFFFFF7FFFFFFFBFBFFFF52
:10528000FFFFFF9F7BFFFFFFFFFFFFFFFF81FFFF90
:10529000FFFDFDFFFFFFF7FFFFFFFBFBFFFFFFFF32
:1052A000FE7F7BFFFFFFFFFFFFFFFF81FFFFFFFE92
:1052B000FBFFFFFFF7FFFFFFFBFBFFFFFFFFFCFF15
:1052C0007BFFFFFFFFFFFFFFFF81FFFFFFFF07FFE8
:1052D000FFFFF7FFFFFFFDF7FFFFFFFFF00003FFFA
:1052E000FFFFFFFFFFFFFF81FFFFFFFFFFFFFFFF4C
:1052F000F7FFFFFFFE0FFFFFFFFFF00003FFFFFFC1
:10530000FFFFFFFFFF81FFFFFFFFFFFFFFFFF7FF33
:10531000FFFFFFFFFFFFFFFFFFFF7BFFFFFFFFFF21
:10532000FFFFFF81FFFFFFFE63FFFFFFF7FFFFFFB0
:10533000FFFFFFFFFFFFFFFF7BFFFFFFFFFFFFFF01
:10534000FF81FFFFFFFDDDFFFFFFF7FFFFFFFCC752
:10535000FFFFFFFFFFFF7BFFFFFFFFFFFFFFFF815F
:10536000FFFFFFFDDDFFFFFFF7FFFFFFFBBBFFFFC1
:10537000FFFFFFFFFFFFFFFFFFFFFFFFFF81FFFFBB
:10538000FFFDDDFFFFFFF7FFFFFFFBBBFFFFFFFFA1
:10539000FFFFFFFFFFFFFFFFFFFFFF81FFFFFFFD9D
:1053A000BDFFFFFFF7FFFFFFFBBBFFFFFFFFFFFF9F
:1053B000FFFFFFFFFFFFFFFFFF81FFFFFFFDBBFFC1
:1053C000FFFFF7FFFFFFFB7BFFFFFFFFFF807FFF7C
:1053D000FFFFFFFFFFFFFF81FFFFFFFE01FFFFFF5A
:1053E000F7FFFFFFFB77FFFFFFFFFE001FFFFFFF41
:1053F000FFFFFFFFFF81FFFFFFFFFDFFFFFFF7FF45
:10540000FFFFFC03FFFFFFFFF87F8FFFFFFFFFFFA2
:10541000FFFFFF81FFFFFFFFF9FFFFFFF7FFFFFF28
:10542000FFFBFFFFFFFFF9FFE7FFFFFFFFFFFFFFAE
:10543000FF81FFFFFFFFFFFFFFFFF7FFFFFFFFF30E
:10544000FFFFFFFFF3FFF3FFFFFFFFFFFFFFFF8102
:10545000FFFFFFFFFFFFFFFFF7FFFFFFFFFFFFFF64
:10546000FFFFF7FFFBFFFFFFFFFFFFFFFF81FFFFD6
:10547000FFFFFFFFFFFFF7FFFFFFFFFFFFFFFFFF44
:10548000F7FFFBFFFFFFFFFFFFFFFF81FFFFFFFFB6
:10549000FFFFFFFFF7FFFFFFFFFFFFFFFFFFF7FF2C
:1054A000FBFFFFFFFFFFFFFFFF81FFFFFFFFFFFF8E
:1054B000FFFFF7FFFFFFFFFFFFFFFFFFFBFFF7FF10
:1054C000FFFFFFFFFFFFFF81FFFFFFFFFFFFFFFF6A
:1054D000F7FFFFFFFFFFFFFFFFFFF87F87FFFFFFE3
:1054E000FFFFFFFFFF81FFFFFFFFFFFFFFFFF7FF52
:1054F000FFFFFFFFFFFFFFFFFE001FFFFFFFFFFF9C
:10550000FFFFFF81FFFFFFFFFFFFFFFFF7FFFFFF31
:10551000FFFFFFFFFFFFFF807FFFFFFFFFFFFFFF9A
:10552000FFFFFFFFFFFFFFFFFFFFF7FFFFFFFFFF93
:10553000FFFFFFFFFFFFFFFFFFFFFFFFFFFFFFFF7B
:10554000FFFFFFFFFFFFFFFFF7FFFFFFFFFFFFFF73
:10555000FFFFF81FFFFFFFFFFFFFFFFFFFFFFFFF42
:10556000FFFFFFFFFFFFF7FFFFFFFFFFFFFFFFFF53
:10557000F7EFFFFFFFFFFFFFFFFFFFFFFFFFFFFF53
:10558000FFFFFFFFF7FFFFFFFFFFFFFFFFFFEFF74B
:10559000F3FFFFFFFFFFFFFFFFFFFFFFFFFFFFFF27
:1055A000FFFFF7FFFFFFFFFFFFFFFFFFEFF7CFFF5B
:1055B000FFFFFFFFFFFFFFFFFFFFFFFFFFFFFFFFFB
:1055C000F7FFFFFFFFFFFFFFFFFFF7E73FFFFFFFD3
:1055D000FFFFFFFFFFFFFFFFFFFFFFFFFFFFF7FFE3
:1055E000FFFFFFFFFFFFFFFFF81CFFFFFFFFFFFFB5
:1055F000FFFFFFFFFFFFFFFFFFFFFFFFF7FFFFFFC3
:10560000FFFFFFFFFFFFFFE3FFFFFFFFFFFFFFFFC6
:10561000FFFFFFFFFFFFFFFFFFFFF7FFFFFFFFFFA2
:10562000FFFFFFFFFF9C0FFFFFFFFFFFFFFFFFFFDD
:10563000FFFFFFFFFFFFFFFFF7FFFFFFFFFFFFFF82
:10564000FFFFFE7BF7FFFFFFFFFFFFFFFFFFFFFFF7
:10565000FFFFFFFFFFFFF7FFFFFFFFFFFFFFFFFF62
:10566000F9F7FBFFFFFFFFFFFFFFFFFFFFFFFFFF5C
:10567000FFFFFFFFF7FFFFFFFFFFFFFFFFFFE7F762
:10568000FBFFFFFFFFFFFFFFFFFFFFFFFFFFFFFF2E
:10569000FFFFF7FFFFFFFFFFFFFFFFFFFFFBF3FF32
:1056A000FFFFFFFFFFFFFFFFFFFFFFFFFFFFFFFF0A
:1056B000F7FFFFFFFFFFFFFFFFFFFFFC0FFFFFFFF5
:1056C000FFFFFFFFFFFFFFFFFFFFFFFFFFFFF7FFF2
:1056D000FFFFFFFFFFFFFFFFFFFFFFFFFFFFFFFFDA
:1056E000FFFFFFFFFFFFFFFFFFFFFFFFF7FFFFFFD2
:1056F000FFFFFFFFFFFFFFFFFFFFFFFFFFFFFFFFBA
:10570000FFFFFFFFFFFFFFFFFFFFF7FFFFFFFFFFB1
:10571000FFFFFFFFFFFFFFFFFFFFFFFFFFFFFFFF99
:10572000FFFFFFFFFFFFFFFFF7FFFFFFFFFFFFFF91
:10573000FFFFFFFFFFFFFFFFFFFFFFFFFFFFFFFF79
:10574000FFFFFFFFFFFFF7FFFFFFFFFFFFFFFFFF71
:10575000FFFFFFFFFFFFFFFFFFFFFFFFFFFFFFFF59
:10576000FFFFFFFFFFFFFFFFFFFFFFFFFFFFFFFF49
:10577000FFFFFFFFFFFFFFFFFFFFFFFFFFFFFFFF39
:10578000FFFFFFFFFFFFFFFFFFFFFFFFFFFFFFFF29
:10579000FFFFFFFFFFFFFFFFFFFFFFFFFFFFFFFF19
:1057A000FFFFFFFFFFFFFFFFFFFFFFFFFFFFFFFF09
:1057B000FFFFFFFFFFFFFFFFFFFFFFFFFFFFFFFFF9
:1057C000FFFFFFFFFFFFFFFF0000000000000000E1
:1057D00000000000000000000000000000000000C9
:1057E00000000000000000000000000000000000B9
:1057F00000000000000000000000000000000000A9
:105800000000000000000000000000000000000098
:105810000000000000000000000000000000000088
:105820000000000000000000000000000000000078
:105830000000000000000000000000000000000068
:105840000000000000000000000000000000000058
:105850000000000000000000000000000000000048
:105860000000000000000000000000000000000038
:105870000000000000000000000000000000000028
:105880000000000000000000000000000000000018
:105890000000000000000000000000000000000008
:1058A0000000007FC001FF000000001FF0001C008E
:1058B00000000000000000000000000000000000E8
:1058C000007FC001FF000000001FF0001C0000006E
:1058D0000000000000000000000000000000007F49
:1058E000C001FF000000001FF0001C0000000000CD
:1058F0000000000000000000000000000380380EDF
:1059000000E000E000E00E001F800000000000004A
:10591000000000000000000000000380380E00E0DE
:1059200000E000E00E001F8000000000000000000A
:1059300000000000000000000380380E00E000E0DE
:1059400000E00E001F8000000000000000000000CA
:105950000000000000000380380E00E000E000E0DE
:105960000E001C000000000000000000000000000D
:10597000000000000380380E00E000E000E00E00B0
:105980001C000000000000000000000000000000FB
:1059900000000380380E00E000E000E00E001C0074
:1059A00000000000000000000000000000000000F7
:1059B0000380380E00E0000000E000001C00000042
:1059C0000000000000000000000000000000038054
:1059D000380E00E0000000E000001C0000000000A5
:1059E0000000000000000000000000000380380EEE
:1059F00000E0000000E000001C00000000000000CB
:105A0000000000000000000000000380380E00E0ED
:105A10000000001C00001C0000000000000000004E
:105A200000000000000000000380380E00E00000CD
:105A3000001C00001C00000000000000000000002E
:105A40000000000000000380380E00E00000001C91
:105A500000001C000000000000000000000000002A
:105A6000000000000380380E00E00000000380000A
:105A70001C0000000000000000000000000000000A
:105A800000000380380E00E00000000380001C00CE
:105A90000000000000000000000000000000000006
:105AA0000380380E00E00000000380001C000000AE
:105AB0000000000000000000000000000000038063
:105AC000380E00E000E0000070001C000000000044
:105AD0000000000000000000000000000380380EFD
